:100000000C9435000C945D000C945D000C945D0024
:100010000C945D000C945D000C945D000C945D00EC
:100020000C945D000C945D000C945D000C945D00DC
:100030000C945D000C945D000C945D000C945D00CC
:100040000C94F1090C945D000C94610A0C943B0A29
:100050000C945D000C945D000C945D000C945D00AC
:100060000C945D000C945D00930A11241FBECFEF29
:10007000D8E0DEBFCDBF12E0A0E0B1E0EAE5F0E2FB
:1000800002C005900D92A83AB107D9F723E0A8EA7B
:10009000B2E001C01D92A838B207E1F710E0C5E355
:1000A000D0E004C02197FE010E94E40BC433D107C5
:1000B000C9F70E94CF0A0C942B100C9400003FB794
:1000C000F8948091C6029091C702A091C802B091A5
:1000D000C90226B5A89B05C02F3F19F00196A11DA6
:1000E000B11D3FBFBA2FA92F982F8827BC01CD0182
:1000F000620F711D811D911D42E0660F771F881FE1
:10010000991F4A95D1F708954F925F926F927F920F
:100110009F92AF92BF92CF92DF92EF92FF920F9396
:100120001F93CF93DF9300D01F92CDB7DEB7F82E89
:1001300080917A0390917B03A0917C03B0917D0321
:10014000892B8A2B8B2BD9F00E945F000091D6025D
:100150001091D7022091D8023091D902601B710B07
:10016000820B930B00917A0310917B0320917C0307
:1001700030917D036017710782079307C8F20E94D0
:100180005F006093D6027093D7028093D802909359
:10019000D902E0918203F0918303309759F04091A6
:1001A0007E0350917F0360918003709181038F2DB6
:1001B0000995F82E0091D4021091D5024F2C512CA4
:1001C000712C612C0115110509F45EC0D8011C9633
:1001D000EC901C9780917803909179038436910577
:1001E00010F41C961C92D801ED91FC91A280B38072
:1001F00019821A821B82FF2089F1F8013696D12CD0
:10020000C12C2191222319F19280992001F130E033
:1002100050E040E02F5F3F4F4F4F5F4FC301B201AF
:100220000E94780B9B01AC01892D90E0B0E0A0E02A
:10023000BC01CD016F5F7F4F8F4F9F4F0E94780BA6
:10024000A1E0B0E0AC0FBD1FAC0DBD1D8C93BFEFA6
:10025000CB1ADB0A83E0C816D10499F6D8011D96A3
:100260004D915C911E9712966D917C919E012F5F2E
:100270003F4FC801F5010995D8011C96EC921C97D7
:1002800014960D911C919ECF8091D2029091D30231
:100290009C012F5F3F4F3093D3022093D2024997A6
:1002A0000CF44AC08FB7F8942091CA023091CB0267
:1002B0004091CC025091CD028FBF8091CE0290919F
:1002C000CF02A091D002B091D102281B390B4A0B6A
:1002D0005B0B21F421E030E040E050E0E091D202FD
:1002E000F091D30288EE93E0E89FB001E99F700D92
:1002F000F89F700D1124072E000C880B990B0E949B
:100300009C0B30937903209378031092D3021092C0
:10031000D2022FB7F8948091CA029091CB02A0919B
:10032000CC02B091CD022FBF8093CE029093CF022A
:10033000A093D002B093D1020F900F900F90DF9155
:10034000CF911F910F91FF90EF90DF90CF90BF90D2
:10035000AF909F907F906F905F904F900895AF9275
:10036000BF92CF92DF92EF92FF920F931F93CF93A2
:10037000DF936C017B018B01040F151FEB015E0104
:10038000AE18BF08C017D10759F06991D601ED9199
:10039000FC910190F081E02DC6010995892B79F738
:1003A000C501DF91CF911F910F91FF90EF90DF90EA
:1003B000CF90BF90AF900895FC01538D448D252FB1
:1003C00030E0842F90E0821B930B541710F0CF96EF
:1003D000089501970895FC01918D828D981761F021
:1003E000A28DAE0FBF2FB11D5D968C91928D9F5F38
:1003F0009F73928F90E008958FEF9FEF0895FC0117
:10040000918D828D981731F0828DE80FF11D858DC9
:1004100090E008958FEF9FEF0895FC01918D228D5C
:10042000892F90E0805C9F4F821B91098F739927E1
:1004300008958AED92E00E940D0221E0892B09F4D3
:1004400020E0822F089580E090E0892B29F00E941F
:10045000190281110C9400000895FC01A48DA80FCD
:10046000B92FB11DA35ABF4F2C91848D90E00196F6
:100470008F739927848FA689B7892C93A089B18916
:100480008C91837080648C93938D848D981306C0B7
:100490000288F389E02D80818F7D80830895EF921B
:1004A000FF920F931F93CF93DF93EC0181E0888F2E
:1004B0009B8D8C8D98131AC0E889F989808185FFFE
:1004C00015C09FB7F894EE89FF896083E889F989A0
:1004D00080818370806480839FBF81E090E0DF91A2
:1004E000CF911F910F91FF90EF900895F62E0B8DF5
:1004F00010E00F5F1F4F0F731127E02E8C8D8E11B0
:100500000CC00FB607FCFACFE889F989808185FF16
:10051000F5CFCE010E942D02F1CFEB8DEC0FFD2F18
:10052000F11DE35AFF4FF0829FB7F8940B8FEA89D1
:10053000FB8980818062CFCFCF93DF93EC01888DE0
:100540008823B9F0AA89BB89E889F9898C9185FD4E
:1005500003C0808186FD0DC00FB607FCF7CF8C91DC
:1005600085FFF2CF808185FFEDCFCE010E942D0265
:10057000E9CFDF91CF9108950F931F93CF93DF932E
:10058000DC01EB0116968D919C91179783319105B3
:1005900090F429E0289FF001299FF00D1124E050EC
:1005A000FF4F00811181228133810F3F4FEF1407EC
:1005B0002407340751F413961C921E921297179633
:1005C0001C921E92169780E01BC012964D915C9172
:1005D000139770E060E0401751076207730798F3C4
:1005E00064815581468127813085019617969C93B9
:1005F0008E9316976C835D834E8338872F8381E0BB
:10060000DF91CF911F910F910895FC0122813381D9
:10061000620F731F73836283089580E008950F93C0
:100620001F93CF93DF932091C4022F5F322F377037
:100630003093C40220FF2BC020E831FD20643470C9
:1006400009F02062205FFC01EC01239600E011E03C
:100650006485662329F070E0C8010E94880B6F5FF3
:100660006187322F369F030E30E0311D1124311186
:1006700010C01682662311F0615061873196EC1725
:10068000FD0731F7DF91CF911F910F91089520E081
:10069000D4CF31503683EECF4F925F926F927F92DC
:1006A0008F92AF92BF92CF92DF92EF920F931F93F0
:1006B000CF93DF933C01EB010E945F00F30127859C
:1006C0003089621B730B6A307105B0F3F894E881CE
:1006D000F98175B1716065B16E7F65B9CA848F812A
:1006E0002C2D281B822F2F83BF844A805B801D8581
:1006F0000C85DE841F5F0F5FD3949E813885A984AB
:10070000EB844181D20120E0C32F522F322F31815F
:10071000442788943111380F08F43FEF819588946D
:1007200010FD430F4795889411FD430F479588941A
:1007300012FD430F4795889413FD430F4795889406
:1007400014FD430F4795889415FD430F47958894F2
:1007500016FD430F4795889417FD430F47958894DE
:10076000232F1111242F8C0D422F002C75B900C09E
:1007700047FF65B930812227889400C000C0002C53
:1007800065B93111390F00C0002C75B900C046FFA2
:1007900065B908F43FEF9195889400C000C0002C23
:1007A00065B900FD230F00C0002C75B900C045FFDE
:1007B00065B92795889401FD230F00C000C0002C67
:1007C00065B92795889400C0002C75B900C044FF16
:1007D00065B902FD230F2795889400C000C0002C46
:1007E00065B903FD230F00C0002C75B900C043FF9D
:1007F00065B92795889404FD230F00C000C0002C24
:1008000065B92795889400C0002C75B900C042FFD7
:1008100065B905FD230F2795889400C000C0002C02
:1008200065B906FD230F00C0002C75B900C041FF5B
:1008300065B92795889407FD230F00C000C0002CE0
:1008400065B92795889400C0002C75B900C040FF99
:1008500065B9432F0111422F9A0D00C000C0002C32
:1008600065B900C000C0002C75B900C047FF65B96C
:1008700032812227889400C000C0002C65B9311154
:100880003C0F00C0002C75B900C046FF65B908F4E4
:100890003FEFEB0DF11D00C000C0002C65B9D0FC8E
:1008A000230F00C0002C75B900C045FF65B927951E
:1008B0008894D1FC230F00C000C0002C65B9279597
:1008C000889400C0002C75B900C044FF65B9D2FC03
:1008D000230F2795889400C000C0002C65B9D3FC75
:1008E000230F00C0002C75B900C043FF65B92795E0
:1008F0008894D4FC230F00C000C0002C65B9279554
:10090000889400C0002C75B900C042FF65B9D5FCC1
:10091000230F2795889400C000C0002C65B9D6FC31
:10092000230F00C0002C75B900C041FF65B92795A1
:100930008894D7FC230F00C000C0002C65B9279510
:10094000889400C0002C75B900C040FF65B9432FE2
:10095000D110422FC19500C000C0002C65B9CE0D4A
:1009600000C000C075B900C047FF65B931812227BA
:10097000889400C000C0002C65B93111380F00C048
:10098000002C75B900C046FF65B908F43FEF8195AA
:10099000889400C000C0002C65B910FD230F00C072
:1009A000002C75B900C045FF65B92795889411FDE5
:1009B000230F00C000C0002C65B92795889400C0A3
:1009C000002C75B900C044FF65B912FD230F2795AF
:1009D000889400C000C0002C65B913FD230F00C02F
:1009E000002C75B900C043FF65B92795889414FDA4
:1009F000230F00C000C0002C65B92795889400C063
:100A0000002C75B900C042FF65B915FD230F27956D
:100A1000889400C000C0002C65B916FD230F00C0EB
:100A2000002C75B900C041FF65B92795889417FD62
:100A3000230F00C000C0002C65B92795889400C022
:100A4000002C75B900C040FF65B9432F1111422F2A
:100A50008C0D00C000C0002C65B9119709F086CE3E
:100A600020EE31E0D2010E94BE0BDC01CB01F4E0AC
:100A7000B695A79597958795FA95D1F730E020E040
:100A8000B901EAE94E9E040C611D5E9E600D711D68
:100A90001124650D711D860F971FA11DB11D893E83
:100AA00043E09407A105B10508F434C0885E934083
:100AB000A109B10942E0B695A795979587954A9502
:100AC000D1F747E0849F080E211D949F200D311D12
:100AD0001124290F311D6091C30270E0860F971F0A
:100AE000820F931F4091CA025091CB026091CC02B9
:100AF0007091CD02292F3327420F531F611D711DA5
:100B00004093CA025093CB026093CC027093CD0203
:100B10008093C30278940E945F00F301708B678713
:100B2000DF91CF911F910F91EF90DF90CF90BF9009
:100B3000AF908F907F906F905F904F90089580E975
:100B400091E00895209A08950F931F93CF93DF9318
:100B5000CDB7DEB762970FB6F894DEBF0FBECDBF3C
:100B60008C01F901DC011C968C917A8369835C838A
:100B70004B835E834D8390819D8791819E87928177
:100B80009F878130F1F4CE0101960E940F0383E02C
:100B9000888B1A8A198AD801ED91FC910484F58515
:100BA000E02DBE016F5F7F4FC801099562960FB6B9
:100BB000F894DEBF0FBECDBFDF91CF911F910F9193
:100BC00008951C861B861A86198618861F82DFCF19
:100BD0000F931F93CF93DF93CDB7DEB762970FB616
:100BE000F894DEBF0FBECDBF8C01F901DC011C966D
:100BF0008C917A8369835C834B835E834D83908180
:100C00009D8791819E8792819F878130E9F4CE01F3
:100C100001960E940F03188A1A8A198AD801ED9149
:100C2000FC910484F585E02DBE016F5F7F4FC80104
:100C3000099562960FB6F894DEBF0FBECDBFDF9167
:100C4000CF911F910F9108951C861B861A861986D5
:100C500018861F82E0CFCF93DF93EC018E819F81B6
:100C6000DC01ED91FC910280F381E02D48E152E03E
:100C700064E009952C8130E04A815B818091BB0260
:100C8000811145C01092AD021092AC028FEF80939B
:100C9000B0028093B1028093B2028093B30280933A
:100CA000B4028093B50281E08093B6021092B8023C
:100CB0001092B7021092AF021092AE028091D4024D
:100CC0009091D502892B31F48AEA92E09093D50273
:100CD0008093D402E091A802F091A902309721F00C
:100CE0008AEA92E0958384838AEA92E09093A9024B
:100CF0008093A8021092BA021092B9028EEC91E091
:100D00009093AB028093AA0281E08093BB02209A69
:100D10005093AD024093AC023093B8022093B702D7
:100D200080917A0390917B03A0917C03B0917D0325
:100D3000843C29E09207A105B10520F484EC99E0F8
:100D4000A0E0B0E080937A0390937B03A0937C03B0
:100D5000B0937D0390E080E02C812817190679F08C
:100D600070F09C01220F331F280F391FEA81FB818D
:100D7000E20FF31F1082118212820196EDCF809153
:100D800077030E94840081E0DF91CF910895CF9393
:100D9000DF9300D000D000D0CDB7DEB7AB011C820E
:100DA0001D821E82DC01ED91FC910190F081E02D0D
:100DB00019821A821B829E012F5F3F4FBE016C5F1A
:100DC0007F4F099526960FB6F894DEBF0FBECDBFB4
:100DD000DF91CF9108958F929F92AF92BF92CF9261
:100DE000DF92EF92FF926B01770FEE08FF080E94EF
:100DF0005F004B015C01C114D104E104F104B9F0BE
:100E00000E945F00681979098A099B09683E73404E
:100E10008105910580F321E0C21AD108E108F108AB
:100E200088EE880E83E0981EA11CB11CE4CFFF90D1
:100E3000EF90DF90CF90BF90AF909F908F900895EC
:100E4000FC0185859685089590E080E00895CF9314
:100E5000DF93D0E0C0E0009771F0FC01019000202A
:100E6000E9F73197AF01481B590BBC018AED92E0BD
:100E70000E94AF01EC0142E050E060E372E08AEDD5
:100E800092E00E94AF018C0F9D1FDF91CF910895DA
:100E9000CF92DF92EF92FF92FC01C280D380E48078
:100EA000F580E091EA02F091EB0282E08083C114C8
:100EB000F1EEDF06E104F104A1F060E079E08DE3FA
:100EC00090E0A70196010E949C0B21503109410935
:100ED00051095695479537952795211580E1380793
:100EE000A8F0E091EA02F091EB02108260E874E869
:100EF0008EE190E0A70196010E949C0B21503109E0
:100F0000410951095695479537952795E091E60295
:100F1000F091E7023083E091E802F091E90220834A
:100F20001092F202E091EE02F091EF0286E08083EF
:100F3000E091EC02F091ED02808180618083E0918C
:100F4000EC02F091ED02808188608083E091EC02F8
:100F5000F091ED02808180688083E091EC02F09155
:100F6000ED0280818F7D808383E392E0FF90EF909C
:100F7000DF90CF900C9427070E941E0D8F929F92B6
:100F8000AF92BF92CF92DF92EF92FF920F931F9397
:100F9000CF93DF93CDB7DEB7C950D1400FB6F894E9
:100FA000DEBF0FBECDBF6C01DC0118968D919C9108
:100FB000DC01ED91FC910280F381E02D47E452E0E9
:100FC00064E009958CE5A82E82E0B82EFE013196EA
:100FD0004F01D60112968D919C91DC01ED91FC910F
:100FE0000480F581E02D0995811194C0F60180857A
:100FF0009185DC01ED91FC910280F381E02D47E5C4
:1010000052E060E10995F60182819381DC01ED9166
:10101000FC910190F081E02DBE016F5F7E4F09953C
:10102000882309F45DC0CB5FDE4F8881C550D14075
:101030001F928F93C95FDE4F8881C750D1401F92A6
:101040008F93BF92AF929F928F920E94530DF601A1
:1010500080859185DC01ED91FC910280F381E02D8A
:10106000A40164E00995F60184819581DC01ED918C
:10107000FC910280F381E02DCF5FDE4FE880C1500C
:10108000D140CE5FDE4FF880C250D140CD5FDE4F01
:101090000881C350D140CC5FDE4F1881C450D1408D
:1010A000CB5FDE4F2881C550D140CA5FDE4F38810B
:1010B000C650D140C95FDE4F4881C750D140C85F9C
:1010C000DE4F5881C850D140C75FDE4F6881C9509C
:1010D000D14009950FB6F894DEBF0FBECDBF93CFB8
:1010E000D60116968D919C91DC01ED91FC910190B9
:1010F000F081E02D64E670E00995F601828193812C
:10110000DC01ED91FC910280F381E02D64E670E05A
:1011100009955FCFC75FDE4F0FB6F894DEBF0FBEF5
:10112000CDBFDF91CF911F910F91FF90EF90DF9096
:10113000CF90BF90AF909F908F9008958F929F9285
:10114000AF92BF92CF92DF92EF92FF920F931F93D5
:10115000CF93DF93CDB7DEB7C950D1400FB6F89427
:10116000DEBF0FBECDBFCF5FDE4FE882C150D140A2
:10117000CE5FDE4FF882C250D140CD5FDE4F088394
:10118000C350D140CC5FDE4F1883C450D140CB5FF9
:10119000DE4F2883C550D140CA5FDE4F3883C6502A
:1011A000D140F42EC95FDE4F4883C750D140C85F9D
:1011B000DE4F5883C850D140C75FDE4F6883C950A7
:1011C000D140DC0114962C91421708F06CC08C01C0
:1011D000E42FEE51FF0B6F01CC0CDD1CCB5FDE4F1B
:1011E0008881C550D1409E012F5F3F4F5901882310
:1011F00009F46DC01F924F9388E792E09F938F93FD
:101200003F932F930E94530DD80116968D919C9178
:10121000DC01ED91FC910280F381E02DA50168E0F5
:1012200009950F900F900F900F900F900F90BBE3C8
:1012300040E050E06FEF70E0BF1520F04FEF50E05E
:1012400060E070E0F80184818150990B8C199D0950
:10125000FC01EE0FFF1F8E0F9F1FD8011296ED911C
:10126000FC911397E80FF91F4B01AA24BB2480823D
:101270001182428314968C9114978150990B8C198A
:101280009D09FC01EE0FFF1F8E0F9F1F0397129603
:10129000ED91FC91E80FF91F8082118242838091C9
:1012A00077030E948400C75FDE4F0FB6F894DEBF5D
:1012B0000FBECDBFDF91CF911F910F91FF90EF90A7
:1012C000DF90CF90BF90AF909F908F9008951F9226
:1012D0004F938BE892E09F938F933F932F930E94BD
:1012E000530DF80186819781DC01ED91FC9102801C
:1012F000F381E02DA50168E00995F8018481815012
:10130000990B8C199D09FC01EE0FFF1F8E0F9F1F7B
:10131000D8011296ED91FC911397E80FF91F1082F6
:101320001182128214968C9114978150990B8C190A
:101330009D09FC01EE0FFF1F8E0F9F1F0397129652
:10134000ED91FC91E80FF91F1082118212828091B9
:1013500077030E9484000F900F900F900F900F90D2
:101360000F90A1CF22EF31E0FC01318320838281F5
:101370009381009711F00C94950C0895CF93DF930F
:10138000EC010E94B209CE01DF91CF910C94950C33
:10139000CF93DF93EC019A85962301F15F934F93EE
:1013A0001F926F938FE992E09F938F938F818F931A
:1013B0008E818F9389858F9388858F930E94230DCB
:1013C0008DB79EB70A960FB6F8949EBF0FBE8DBF1D
:1013D00088859985DF91CF910C942707DF91CF9174
:1013E00008951F920F920FB60F9211242F933F93DF
:1013F0008F939F93AF93BF938091CA029091CB023A
:10140000A091CC02B091CD023091C50223E0230F10
:101410002D3758F50196A11DB11D2093C50280936B
:10142000CA029093CB02A093CC02B093CD028091DC
:10143000C6029091C702A091C802B091C90201965C
:10144000A11DB11D8093C6029093C702A093C8024C
:10145000B093C902BF91AF919F918F913F912F910E
:101460000F900FBE0F901F90189526E8230F02963D
:10147000A11DB11DD2CF1F920F920FB60F92112452
:101480002F933F934F935F936F937F938F939F938C
:10149000AF93BF93EF93FF938AED92E00E942D02EA
:1014A000FF91EF91BF91AF919F918F917F916F913C
:1014B0005F914F913F912F910F900FBE0F901F9012
:1014C00018951F920F920FB60F9211242F938F939E
:1014D0009F93EF93FF93E091EA02F091EB028081FA
:1014E000E091F002F091F10282FD1BC090818091A9
:1014F000F3028F5F8F732091F402821741F0E09125
:10150000F302F0E0E652FD4F958F8093F302FF91D6
:10151000EF919F918F912F910F900FBE0F901F9081
:1015200018958081F4CFEAEDF2E01382128288EE02
:1015300093E0A0E0B0E084839583A683B7838AE03C
:1015400092E09183808385EC90E09587848784EC9A
:1015500090E09787868780EC90E0918B808B81EC80
:1015600090E0938B828B82EC90E0958B848B86EC61
:1015700090E0978B868B118E128E138E148EE7E778
:10158000F3E08FEF808312821182148613868FEF2F
:101590009FEFDC0187839087A187B2870895CF935F
:1015A000DF93CDB7DEB7A7970FB6F894DEBF0FBEB7
:1015B000CDBF789484B5826084BD84B5816084BDDC
:1015C00085B5826085BD85B5816085BD80916E00E1
:1015D000816080936E001092810080918100826012
:1015E000809381008091810081608093810080914F
:1015F00080008160809380008091B100846080933E
:10160000B1008091B00081608093B00080917A0039
:10161000846080937A0080917A00826080937A005F
:1016200080917A00816080937A0080917A0080684E
:1016300080937A001092C10080EE91E09A838983B2
:1016400080E895E2A0E0B0E08B839C83AD83BE830D
:1016500080E091E098878F838FE08B8780E091E036
:101660000E94F90B9A8789878E010F5F1F4FC8016F
:101670000E94480788EE91E09F8F8E8F19A218A2D2
:101680001BA30AA31DA21CA282EF91E09F8B8E8B4D
:1016900080E98A8F1D8F0C8F80EB91E00E94F90BFF
:1016A000998F888F7E0186E1E80EF11CC7010E94A8
:1016B0002B0684E092E09FA38EA38EEF882E81E01C
:1016C000982E5E018EE1A80EB11C6E0186E2C80E56
:1016D000D11C9D868C86BF86AE86F98AE88ADB8A15
:1016E000CA8A1D8B0C8BCE010C960E94BE07F1CFCF
:1016F000DB018F939F930E94C50BBF91AF91A29F77
:10170000800D911DA39F900DB29F900D11240895FF
:1017100097FB072E16F4009407D077FD09D00E949E
:10172000D00B07FC05D03EF4909581959F4F08950E
:10173000709561957F4F0895A1E21A2EAA1BBB1BDD
:10174000FD010DC0AA1FBB1FEE1FFF1FA217B3078D
:10175000E407F50720F0A21BB30BE40BF50B661FA3
:10176000771F881F991F1A9469F760957095809567
:1017700090959B01AC01BD01CF0108950E94EA0B39
:10178000B7FF0895821B930B08950E94EA0BA59F53
:10179000900DB49F900DA49F800D911D112408956C
:1017A000AA1BBB1B51E107C0AA1FBB1FA617B70787
:1017B00010F0A61BB70B881F991F5A95A9F78095A3
:1017C0009095BC01CD010895EE0FFF1F0590F49197
:1017D000E02D0994A29FB001B39FC001A39F700D9B
:1017E000811D1124911DB29F700D811D1124911D29
:1017F00008950F931F93CF93DF938230910510F4D8
:1018000082E090E0E0918603F091870330E020E0F1
:10181000B0E0A0E0309799F42115310509F44AC0F1
:10182000281B390B24303105D8F58A819B8161153D
:10183000710589F1FB0193838283FE0111C0408110
:1018400051810281138148175907E0F04817590761
:1018500099F4109761F012960C93129713961C93BB
:101860003296CF01DF91CF911F910F910895009390
:10187000860310938703F4CF2115310551F04217E9
:10188000530738F0A901DB019A01BD01DF01F8011E
:10189000C1CFEF01F9CF9093870380938603CDCF1B
:1018A000FE01E20FF31F8193919322503109398396
:1018B0002883D7CF2091840330918503232B41F4D3
:1018C0002091B6013091B7013093850320938403B2
:1018D0002091B4013091B5012115310541F42DB7A6
:1018E0003EB74091B8015091B901241B350BE091EE
:1018F0008403F0918503E217F307A0F42E1B3F0B3E
:101900002817390778F0AC014E5F5F4F2417350771
:1019100048F04E0F5F1F50938503409384038193DB
:1019200091939FCFF0E0E0E09CCFCF93DF930097BF
:10193000E9F0FC01329713821282A0918603B091E4
:101940008703ED0130E020E01097A1F42081318180
:10195000820F931F20918403309185032817390744
:1019600009F061C0F0938503E0938403DF91CF9188
:101970000895EA01CE17DF07E8F54A815B819E01F1
:1019800041155105B1F7E901FB83EA83499159916A
:10199000C40FD51FEC17FD0761F480819181029679
:1019A000840F951FE90199838883828193819B83AA
:1019B0008A83F0E0E0E012968D919C911397009756
:1019C000B9F52D913C911197CD010296820F931F8D
:1019D00020918403309185032817390739F6309711
:1019E00051F51092870310928603B0938503A0935C
:1019F0008403BCCFD383C28340815181840F951F60
:101A0000C817D90761F44E5F5F4F88819981480FED
:101A1000591F518340838A819B819383828321153F
:101A2000310509F0B0CFF0938703E09386039ECF92
:101A3000FD01DC01C0CF13821282D7CF81E090E09C
:101A4000F8940C942B10AEE0B0E0E9E2FDE00C94C9
:101A500002100D891E898F89988D26E02C831A83A8
:101A6000098397FF02C080E090E801979E838D83F1
:101A7000AE01455E5F4F698D7A8DCE0101960E9461
:101A8000760D4D815E8157FD0AC02F813885421742
:101A900053070CF49A01020F131FF80110822E96BF
:101AA000E4E00C941E10AEE0B0E0E9E5FDE00C943B
:101AB00002100D891E8986E08C831A8309838FEFBB
:101AC0009FE79E838D83AE01475E5F4F6F89788D60
:101AD000CE0101960E94760D2F813885020F131FCB
:101AE000F80110822E96E4E00C941E10ABE0B0E0FA
:101AF000ECE7FDE00C94F40F7C013B018A01FC0152
:101B000017821682838181FFC8C1CE0101965C01D4
:101B1000F7019381F30193FD859193FF81913F013B
:101B2000882309F453C1853239F493FD859193FFDD
:101B300081913F01853229F4B70190E00E94660F40
:101B4000E7CF912C212C312CFFE1F31538F08B32AB
:101B500011F190F4803209F1833229F137FC3CC055
:101B600020ED280F2A3050F536FE20C08AE0989EDE
:101B7000200D1124922E06C08D3291F0803371F722
:101B8000689430F8F30193FD859193FF81913F01B3
:101B90008111DACF21C0689431F8689432F8F2CF1D
:101BA000689433F8EFCF689434F8ECCFEAE02E9ED7
:101BB000200D1124222E689435F8E4CF8E3229F4BA
:101BC00036FC04C1689436F8DDCF8C3619F468947D
:101BD00037F8D8CF8836B1F2982F9F7D955493303F
:101BE000E0F08336A1F18337C1F1833509F063C09A
:101BF0002801F2E04F0E511CF801C080D180692D00
:101C000070E036FC02C06FEF7FEFC6010E94500FFC
:101C10004C01689437F882010AC00C5F1F4FFFE344
:101C2000F98388248394912C6501E89437F833FE76
:101C30002DC0522C8114910471F5552009F468CF00
:101C4000B70180E290E00E94660F5A94F6CFF80147
:101C5000808189830E5F1F4FE4CF2801F2E04F0E91
:101C6000511CF801C080D180692D70E036FC02C0A3
:101C70006FEF7FEFC6010E945B0F4C018201D5CF51
:101C8000B70180E290E00E94660F2A94281419049C
:101C900009F0B0F7CECFF60137FC859137FE819180
:101CA0006F01B70190E00E94660F51105A94F1E065
:101CB0008F1A9108BFCF843619F0893609F077C0A2
:101CC000F80137FE6BC060817181828193810C5F66
:101CD0001F4FF32DFF763F2E97FF09C090958095FB
:101CE000709561957F4F8F4F9F4F689437F82AE02A
:101CF00030E0A5010E94960FC82ECA188C2C432CE8
:101D000036FE0CC0E89440F8C91440F434FE05C017
:101D100032FC03C0F32DFE7E4F2E892C44FE95C06D
:101D2000FE01EC0DF11D8081803309F087C0242D68
:101D3000297E422E842D8870582E43FC95C040FE8B
:101D40008FC09C2C821418F42C0C922C981844FEF2
:101D500091C0B70180E390E00E94660F42FE09C087
:101D600088E790E041FE02C088E590E0B7010E945C
:101D7000660FC91408F48AC0CA94D12C9FEFC91AFF
:101D8000D90ACA0CDB1CF60182916F01B70190E001
:101D90000E94660FAC14BD04B1F74FCF6081718112
:101DA000072E000C880B990B0E5F1F4F92CFD32C80
:101DB000E894D4F82AE030E0853739F1232D297FE3
:101DC000D22E8F3601F148F48835A9F0F7018681CB
:101DD00097812B96E2E10C941010803749F08837F8
:101DE000A9F7D4FE02C06894D2F820E130E00DC01B
:101DF0006894D4F8F6CF34FE03C0822F8660D82EC4
:101E000020E132E002C028E030E0F801D7FE0FC048
:101E100060817181828193810C5F1F4FA5010E94B7
:101E2000960FC82ECA183D2CE89437F867CF60810A
:101E3000718190E080E00E5F1F4FF0CF42FC02C046
:101E4000839478CF8394839475CF842D867809F416
:101E500071CFF6CFB70180E290E00E94660F8394C5
:101E60008214C0F3512C73CF522C5818821408F4EA
:101E70006ECFF8CF842D867809F47BCF8BE241FEBC
:101E800080E247FC8DE2B70190E071CFB70180E3BB
:101E900090E00E94660F9A946CCF8FEF9FEF99CFDE
:101EA000FC010590615070400110D8F78095909525
:101EB0008E0F9F1F0895FC0161507040019001102A
:101EC000D8F7809590958E0F9F1F08950F931F93BD
:101ED000CF93DF93182F092FEB018B8181FD09C070
:101EE0001FEF0FEF812F902FDF91CF911F910F9157
:101EF000089582FF14C02E813F818C819D81281717
:101F000039073CF4E881F981CF01019699838883F0
:101F100010838E819F8101969F838E83E3CFE88516
:101F2000F985812F0995892BA1F3DACFFA01AA2728
:101F3000283051F1203181F1E8946F936E7F6E5F0C
:101F40007F4F8F4F9F4FAF4FB1E03ED0B4E03CD0BA
:101F5000670F781F891F9A1FA11D680F791F8A1F9D
:101F6000911DA11D6A0F711D811D911DA11D20D004
:101F700009F468943F912AE0269F11243019305DBE
:101F80003193DEF6CF010895462F4770405D4193AF
:101F9000B3E00FD0C9F7F6CF462F4F70405D4A33FC
:101FA00018F0495D31FD4052419302D0A9F7EACFC4
:101FB000B4E0A6959795879577956795BA95C9F7F3
:101FC00000976105710508959B01AC010A2E0694E6
:101FD0005795479537952795BA95C9F7620F731F9F
:101FE000841F951FA01D08952F923F924F925F92DC
:101FF0006F927F928F929F92AF92BF92CF92DF9219
:10200000EF92FF920F931F93CF93DF93CDB7DEB77D
:10201000CA1BDB0B0FB6F894DEBF0FBECDBF099411
:102020002A88398848885F846E847D848C849B8468
:10203000AA84B984C884DF80EE80FD800C811B8176
:10204000AA81B981CE0FD11D0FB6F894DEBF0FBEA5
:0A205000CDBFED010895F894FFCF15
:10205A00000000000100403400E8030000000040D6
:10206A004000E803000001003E3B00D007000001E9
:10207A0000344700D007000001002D4D00D00700B2
:10208A00000100395200D007000000003E4000D095
:10209A0007000001003C40009411000000003C4091
:1020AA00009411000000003E3B0094110000000063
:1020BA004040009411000000002D3C0094110000E3
:1020CA000000342D00941100000000392D00FFFF9C
:1020DA00FFFF0000000000000000000000000000F8
:1020EA0000000000000000000000000000000000E6
:1020FA0000000000000000000000000000000000D6
:10210A000000000000008803800000000000BC07F7
:10211A00BC07BC07C7062007240700000000E80523
:10212A00A405A205C70620079F054C03000000006E
:10213A004807C80900000000BC0205030D0300009F
:10214A0000002B069E08B209BE0900000000BE0767
:10215A0000000000EB06000000004F02AF01DC01A6
:10216A009C020D02EB01FF01496E697469616C6999
:10217A007A696E6720466173744C45442E2E2E0090
:10218A000D0A004C6F6767657220696E6974696130
:10219A006C697A6564210053746172746564207293
:1021AA00756E6E696E67005469636B00476F7420C1
:1021BA006E6F74652E204B6579203D2025752C2085
:1021CA004F6E203D202575005475726E696E67202A
:1021DA004C4544202575206F6E21005475726E6936
:1021EA006E67204C4544202575206F666621005B8A
:0821FA0025755D3A20257300F4
:00000001FF
