:100000000C9455000C947D000C947D000C947D00A4
:100010000C947D000C947D000C947D000C947D006C
:100020000C947D000C947D000C947D000C947D005C
:100030000C947D000C947D000C947D000C947D004C
:100040000C948A090C947D000C94FA090C94D40940
:100050000C947D000C947D000C947D000C947D002C
:100060000C947D000C947D000000FF00002AD50058
:100070000055AB00007FAB0000ABAB0000D55600D5
:1000800000FF00002AD5000055AB0000AA56000072
:10009000FF000000D5002A00AB00550081007F0062
:1000A0005500AB002B00D5002B0A11241FBECFEF4B
:1000B000D8E0DEBFCDBF23E0AEEAB1E001C01D92C3
:1000C000AE34B207E1F711E0A0E0B1E0EAE6FEE10C
:1000D00002C005900D92AE3AB107D9F710E0C5E520
:1000E000D0E004C02197FE010E94550BC435D10712
:1000F000C9F70E94670A0C94330F0C940000CF924A
:10010000DF92EF92FF926B017C01E091F001F091A0
:10011000F10182E08083C11481EED806E104F1048C
:10012000A1F060E079E08DE390E0A70196010E94E4
:10013000180B2150310941095109569547953795BA
:100140002795211580E13807A8F0E091F001F091A2
:10015000F101108260E874E88EE190E0A701960159
:100160000E94180B215031094109510956954795B4
:1001700037952795E091EC01F091ED013083E09106
:10018000EE01F091EF0120831092F801E091F4016B
:10019000F091F50186E08083E091F201F091F301A6
:1001A000808180618083E091F201F091F301808190
:1001B00088608083E091F201F091F3018081806892
:1001C0008083E091F201F091F30180818F7D808343
:1001D000FF90EF90DF90CF9008953FB7F894809113
:1001E000CC019091CD01A091CE01B091CF0126B567
:1001F000A89B05C02F3F19F00196A11DB11D3FBF5F
:10020000BA2FA92F982F8827BC01CD01620F711D2D
:10021000811D911D42E0660F771F881F991F4A9527
:10022000D1F708954F925F926F927F929F92AF9213
:10023000BF92CF92DF92EF92FF920F931F93CF93D3
:10024000DF9300D01F92CDB7DEB7F0903D038091D1
:10025000400390914103A0914203B0914303892B45
:100260008A2B8B2BD9F00E94ED000091DC011091BC
:10027000DD012091DE013091DF01601B710B820BEB
:10028000930B009140031091410320914203309160
:1002900043036017710782079307C8F20E94ED00BD
:1002A0006093DC017093DD018093DE019093DF01A8
:1002B000E0914803F0914903309759F0409144038D
:1002C0005091450360914603709147038F2D099526
:1002D000F82E0091DA011091DB014F2C512C712C7A
:1002E000612C0115110509F45EC0D8011C96EC9033
:1002F0001C9780913E0390913F038436910510F442
:100300001C961C92D801ED91FC91A280B3801982B9
:100310001A821B82FF2089F1F8013696D12CC12C5C
:100320002191222319F19280992001F130E050E0CF
:1003300040E02F5F3F4F4F4F5F4FC301B2010E941C
:10034000F40A9B01AC01892D90E0B0E0A0E0BC0173
:10035000CD016F5F7F4F8F4F9F4F0E94F40AA1E046
:10036000B0E0AC0FBD1FAC0DBD1D8C93BFEFCB1A21
:10037000DB0A83E0C816D10499F6D8011D964D9189
:100380005C911E9712966D917C919E012F5F3F4F5D
:10039000C801F5010995D8011C96EC921C9714969A
:1003A0000D911C919ECF8091D8019091D9019C0113
:1003B0002F5F3F4F3093D9012093D80149970CF418
:1003C0004AC08FB7F8942091D0013091D10140916B
:1003D000D2015091D3018FBF8091D4019091D5016A
:1003E000A091D601B091D701281B390B4A0B5B0BAA
:1003F00021F421E030E040E050E0E091D801F091BC
:10040000D90188EE93E0E89FB001E99F700DF89F55
:10041000700D1124072E000C880B990B0E94180BED
:1004200030933F0320933E031092D9011092D801DC
:100430002FB7F8948091D0019091D101A091D20171
:10044000B091D3012FBF8093D4019093D501A09395
:10045000D601B093D7010F900F900F90DF91CF91FD
:100460001F910F91FF90EF90DF90CF90BF90AF90D2
:100470009F907F906F905F904F9008954F925F9202
:100480006F927F928F929F92AF92BF92CF92DF92A4
:10049000EF92FF922B013C018FB7F894C090D001EE
:1004A000D090D101E090D201F090D3018FBF0E9493
:1004B000ED004B015C010E94ED00681979098A0981
:1004C0009B09683E734081059105A8F30E941201C3
:1004D0002FB7F8948091D0019091D101A091D201D1
:1004E000B091D3012FBF8C199D09AE09BF098415A6
:1004F0009505A605B705D8F2FF90EF90DF90CF9055
:10050000BF90AF909F908F907F906F905F904F9033
:100510000895AF92BF92CF92DF92EF92FF920F9326
:100520001F93CF93DF936C017B018B01040F151F89
:10053000EB015E01AE18BF08C017D10759F06991F1
:10054000D601ED91FC910190F081E02DC601099555
:10055000892B79F7C501DF91CF911F910F91FF9002
:10056000EF90DF90CF90BF90AF900895FC01538D36
:10057000448D252F30E0842F90E0821B930B54177D
:1005800010F0CF96089501970895FC01918D828D0A
:10059000981759F0A28DAE0FBF2FB11D5D968C91AB
:1005A000928D9F5F928F90E008958FEF9FEF089557
:1005B000FC01918D828D981731F0828DE80FF11D2D
:1005C000858D90E008958FEF9FEF0895FC01918D48
:1005D000828D981B892F90E0089580EE91E00E9413
:1005E000E60221E0892B09F420E0822F089580E0C3
:1005F00090E0892B29F00E94ED0281110C940000FB
:100600000895FC01A48DA80FB92FB11DA35EBE4FA4
:100610002C91848D90E001968F739927848FA68901
:10062000B7892C93A089B1898C91837080648C9355
:10063000938D848D981306C00288F389E02D808104
:100640008F7D80830895EF92FF920F931F93CF9336
:10065000DF93EC0181E0888F9B8D8C8D98131AC0FD
:10066000E889F989808185FF15C09FB7F894EE89E4
:10067000FF896083E889F989808183708064808341
:100680009FBF81E090E0DF91CF911F910F91FF908C
:10069000EF900895F62E0B8D10E00F5F1F4F0F7334
:1006A0001127E02E8C8D8E110CC00FB607FCFACFEF
:1006B000E889F989808185FFF5CFCE010E94010389
:1006C000F1CFEB8DEC0FFD2FF11DE35EFE4FF082BD
:1006D0009FB7F8940B8FEA89FB8980818062CFCF26
:1006E000CF93DF93EC01888D8823B9F0AA89BB8969
:1006F000E889F9898C9185FD03C0808186FD0DC054
:100700000FB607FCF7CF8C9185FFF2CF808185FF74
:10071000EDCFCE010E940103E9CFDF91CF91089583
:100720000C9412010F931F93CF93DF932091CA0172
:100730002F5F322F37703093CA0120FF2BC020E883
:1007400031FD2064347009F02062205FFC01EC016F
:10075000239600E011E06485662329F070E0C8016B
:100760000E94040B6F5F6187322F369F030E30E0CB
:10077000311D1124311110C01682662311F0615011
:1007800061873196EC17FD0731F7DF91CF911F910B
:100790000F91089520E0D4CF31503683EECF4F92A1
:1007A0005F926F927F928F92AF92BF92CF92DF92C1
:1007B000EF920F931F93CF93DF933C01EB010E94C5
:1007C000ED00F30127853089621B730B6A307105D8
:1007D000B0F3F894E881F98175B1716065B16E7F0D
:1007E00065B9CA848F812C2D281B822F2F83BF844B
:1007F0004A805B801D850C85DE841F5F0F5FD3946C
:100800009E813885A984EB844181D20120E0C32FE9
:10081000522F322F3181442788943111380F08F438
:100820003FEF8195889410FD430F4795889411FD03
:10083000430F4795889412FD430F4795889413FD05
:10084000430F4795889414FD430F4795889415FDF1
:10085000430F4795889416FD430F4795889417FDDD
:10086000430F47958894232F1111242F8C0D422F6D
:10087000002C75B900C047FF65B9308122278894E4
:1008800000C000C0002C65B93111390F00C0002C28
:1008900075B900C046FF65B908F43FEF919588949B
:1008A00000C000C0002C65B900FD230F00C0002C63
:1008B00075B900C045FF65B92795889401FD230FE0
:1008C00000C000C0002C65B92795889400C0002C9A
:1008D00075B900C044FF65B902FD230F27958894C0
:1008E00000C000C0002C65B903FD230F00C0002C20
:1008F00075B900C043FF65B92795889404FD230F9F
:1009000000C000C0002C65B92795889400C0002C59
:1009100075B900C042FF65B905FD230F279588947E
:1009200000C000C0002C65B906FD230F00C0002CDC
:1009300075B900C041FF65B92795889407FD230F5D
:1009400000C000C0002C65B92795889400C0002C19
:1009500075B900C040FF65B9432F0111422F9A0DB0
:1009600000C000C0002C65B900C000C0002C75B9E3
:1009700000C047FF65B932812227889400C000C0BB
:10098000002C65B931113C0F00C0002C75B900C0B6
:1009900046FF65B908F43FEFEB0DF11D00C000C044
:1009A000002C65B9D0FC230F00C0002C75B900C025
:1009B00045FF65B927958894D1FC230F00C000C07E
:1009C000002C65B92795889400C0002C75B900C02B
:1009D00044FF65B9D2FC230F2795889400C000C05E
:1009E000002C65B9D3FC230F00C0002C75B900C0E2
:1009F00043FF65B927958894D4FC230F00C000C03D
:100A0000002C65B92795889400C0002C75B900C0EA
:100A100042FF65B9D5FC230F2795889400C000C01C
:100A2000002C65B9D6FC230F00C0002C75B900C09E
:100A300041FF65B927958894D7FC230F00C000C0FB
:100A4000002C65B92795889400C0002C75B900C0AA
:100A500040FF65B9432FD110422FC19500C000C09F
:100A6000002C65B9CE0D00C000C075B900C047FFAD
:100A700065B931812227889400C000C0002C65B977
:100A80003111380F00C0002C75B900C046FF65B9A0
:100A900008F43FEF8195889400C000C0002C65B930
:100AA00010FD230F00C0002C75B900C045FF65B9CB
:100AB0002795889411FD230F00C000C0002C65B954
:100AC0002795889400C0002C75B900C044FF65B913
:100AD00012FD230F2795889400C000C0002C65B933
:100AE00013FD230F00C0002C75B900C043FF65B98A
:100AF0002795889414FD230F00C000C0002C65B911
:100B00002795889400C0002C75B900C042FF65B9D4
:100B100015FD230F2795889400C000C0002C65B9EF
:100B200016FD230F00C0002C75B900C041FF65B948
:100B30002795889417FD230F00C000C0002C65B9CD
:100B40002795889400C0002C75B900C040FF65B996
:100B5000432F1111422F8C0D00C000C0002C65B92D
:100B6000119709F086CE20EE31E0D2010E943A0BB7
:100B7000DC01CB01F4E0B695A79597958795FA959A
:100B8000D1F730E020E0B901EAE94E9E040C611D86
:100B90005E9E600D711D1124650D711D860F971FDE
:100BA000A11DB11D893E43E09407A105B10508F4DC
:100BB00034C0885E9340A109B10942E0B695A7957B
:100BC000979587954A95D1F747E0849F080E211D98
:100BD000949F200D311D1124290F311D6091C901F1
:100BE00070E0860F971F820F931F4091D0015091A4
:100BF000D1016091D2017091D301292F3327420F87
:100C0000531F611D711D4093D0015093D10160931A
:100C1000D2017093D3018093C90178940E94ED00B2
:100C2000F301708B6787DF91CF911F910F91EF9048
:100C3000DF90CF90BF90AF908F907F906F905F903C
:100C40004F90089580E991E00895209A08950F93B8
:100C50001F93CF93DF93CDB7DEB762970FB6F894AB
:100C6000DEBF0FBECDBF8C01F901DC011C968C915B
:100C70007A8369835C834B835E834D8390819D87F8
:100C800091819E8792819F878130F1F4CE010196F8
:100C90000E94920383E0888B1A8A198AD801ED9109
:100CA000FC910484F585E02DBE016F5F7F4FC80184
:100CB000099562960FB6F894DEBF0FBECDBFDF91E7
:100CC000CF911F910F9108951C861B861A86198655
:100CD00018861F82DFCF0F931F93CF93DF93CDB77B
:100CE000DEB762970FB6F894DEBF0FBECDBF8C01A2
:100CF000F901DC011C968C917A8369835C834B83B8
:100D00005E834D8390819D8791819E8792819F878D
:100D10008130E9F4CE0101960E949203188A1A8A62
:100D2000198AD801ED91FC910484F585E02DBE016E
:100D30006F5F7F4FC801099562960FB6F894DEBFCA
:100D40000FBECDBFDF91CF911F910F9108951C86EB
:100D50001B861A86198618861F82E0CFCF93DF93F1
:100D6000EC01FB0120818C81281730F561815281D3
:100D700043812E51330B76E0729FC001739F900D1B
:100D80001124AA81BB81A80FB91F6C9311965C93A3
:100D9000119712964C9380818E51990B789F9001F8
:100DA000799F300D11242D5F3F4FEA81FB81E20FC7
:100DB000F31F608351834283DF91CF910895CF92D7
:100DC000DF92EF92FF920F931F93CF93DF93CDB7F4
:100DD000DEB7E0970FB6F894DEBF0FBECDBF8C0133
:100DE000DC011696ED91FC91A081B18180E591E046
:100DF0009F938F9384E08F93FF93EF931296ED91DF
:100E0000FC910995F801248130E0428153810F90D3
:100E10000F900F900F900F908091C101811145C0EC
:100E20001092B3011092B2018FEF8093B6018093BC
:100E3000B7018093B8018093B9018093BA01809380
:100E4000BB0181E08093BC011092BE011092BD01F4
:100E50001092B5011092B4018091DA019091DB01FA
:100E6000892B31F480EB91E09093DB018093DA01E0
:100E7000E091AE01F091AF01309721F080EB91E06D
:100E80009583848380EB91E09093AF018093AE01D2
:100E90001092C0011092BF018AE191E09093B101DC
:100EA0008093B00181E08093C101209A5093B301F7
:100EB0004093B2013093BE012093BD018091400365
:100EC00090914103A0914203B0914303843CF9E027
:100ED0009F07A105B10520F484EC99E0A0E0B0E003
:100EE0008093400390934103A0934203B093430344
:100EF00088E690E0DE0111969E012F5C3F4F6D0168
:100F0000FC0145915591659174916C9311965C9398
:100F1000119712964C93129704961396A217B30743
:100F200079F7F12CE12C90E080E0D80114962C9117
:100F30002817190609F008F449C0282F2E0D622F32
:100F400062956F702F70E62FEE0FE60FEC0DFD2D02
:100F5000F11D508141813281222309F427C033964B
:100F60006F3009F4F6012295207F722F7095579FFC
:100F7000050E50E0511D6081629F060E60E0611D0C
:100F8000560F479F040E40E0411D6181629F060E8F
:100F900060E0611D460F379F030E30E0311D628116
:100FA000629F060E60E0611D360F1124BC01660FC2
:100FB000771F680F791FD8011296ED91FC91E60F0B
:100FC000F71F5083418332830196AFCF0E941201F5
:100FD00061E070E080E090E00E943E02BFEFEB1A1B
:100FE000FB0AE4EFEE16E1E0FE0609F09CCF90E08C
:100FF00080E0D80114962C9114972817190681F0D7
:1010000078F09C01220F331F280F391F1296ED91A3
:10101000FC91E20FF31F1082118212820196E9CF38
:101020000E94120162E370E080E090E00E943E02C4
:1010300081E0E0960FB6F894DEBF0FBECDBFDF9122
:10104000CF911F910F91FF90EF90DF90CF90089577
:10105000CF93DF9300D000D000D0CDB7DEB7AB0187
:101060001C821D821E82DC01ED91FC910190F081B9
:10107000E02D19821A821B829E012F5F3F4FBE0115
:101080006C5F7F4F099526960FB6F894DEBF0FBEB2
:10109000CDBFDF91CF910895FC0185859685089598
:1010A00090E080E00895CF93DF93D0E0C0E0009718
:1010B00071F0FC0101900020E9F73197AF01481B66
:1010C000590BBC0180EE91E00E948902EC0142E0E4
:1010D00050E068E671E080EE91E00E9489028C0F9A
:1010E0009D1FDF91CF910895FC01628173818481FE
:1010F00095810E947F008BE691E00C9453080E943A
:10110000800C0F931F93CF93DF93CDB7DEB70F8182
:10111000188599852A853B85F80182858923E1F028
:101120003F932F931F929F938FE791E09F938F930D
:1011300087818F9386818F9381858F9380858F930D
:101140000E94850CF801808591850E9453080FB696
:10115000F894DEBF0FBECDBFDF91CF911F910F91ED
:101160000895CF93DF93CDB7DEB7C851D1400FB606
:10117000F894DEBF0FBECDBF8E010F5F1E4F8CE215
:1011800091E0F8019183808380E092ECA1E0B0E0EF
:1011900082839383A483B58380E091E097838683E1
:1011A00012860E945B0BF80191878087C8010E941C
:1011B000740884E391E0C45FDE4F99838883CC5048
:1011C000D14080E9C05FDE4F8883C051D140CE5E00
:1011D000DE4F19830883C251D14080EB91E00E9419
:1011E0005B0BC25FDE4F99838883CE50D140CE0126
:1011F000845F9E4F0E94DF0660E072EC81E090E029
:101200000E947F0088E891E00E94530810E000E00F
:101210008FE8E82E81E0F82E662463949E012F5F0C
:101220003F4F69019AE0A92EB12C80EE91E00E9417
:10123000E6020397D4F30F5F1F4F80EE91E00E9408
:10124000C502582E492E80EE91E00E94C502782EEC
:10125000392E80EE91E00E94C5024C019F928F933F
:101260003F927F924F925F92FF92EF926F921F9206
:10127000DF92CF920E94850CC6010E945308CC5E7B
:10128000DE4F7882C451D14081E00FB6F894DEBFC2
:101290000FBECDBF892809F480E08195CB5EDE4F7B
:1012A0008883C551D140CA5EDE4F1882C651D140F5
:1012B000C95EDE4F1882C751D140C85EDE4F18822A
:1012C000C851D140BE016C5E7E4FCE01845F9E4FFF
:1012D0000E94AE06C801B5010E94040B892B09F0DB
:1012E000A4CF0E941201A1CF24E331E0FC0131839D
:1012F000208382819381009711F00C94F70B08955D
:10130000CF93DF93EC010E947409CE01DF91CF915E
:101310000C94F70B1F920F920FB60F9211242F937C
:101320003F938F939F93AF93BF938091D001909100
:10133000D101A091D201B091D3013091CB0123E032
:10134000230F2D3758F50196A11DB11D2093CB0118
:101350008093D0019093D101A093D201B093D30197
:101360008091CC019091CD01A091CE01B091CF019F
:101370000196A11DB11D8093CC019093CD01A09346
:10138000CE01B093CF01BF91AF919F918F913F91CB
:101390002F910F900FBE0F901F90189526E8230FE6
:1013A0000296A11DB11DD2CF1F920F920FB60F92C0
:1013B00011242F933F934F935F936F937F938F935A
:1013C0009F93AF93BF93EF93FF9380EE91E00E94C2
:1013D0000103FF91EF91BF91AF919F918F917F9109
:1013E0006F915F914F913F912F910F900FBE0F9092
:1013F0001F9018951F920F920FB60F9211242F93E2
:101400008F939F93EF93FF93E091F001F091F1019F
:101410008081E091F601F091F70182FD1AC0908180
:101420008091F9018F5F2091FA01821741F0E091DC
:10143000F901F0E0E052FE4F958F8093F901FF91A2
:10144000EF919F918F912F910F900FBE0F901F9052
:1014500018958081F4CFE0EEF1E01382128288EEDD
:1014600093E0A0E0B0E084839583A683B78382E411
:1014700091E09183808385EC90E09587848784EC6C
:1014800090E09787868780EC90E0918B808B81EC51
:1014900090E0938B828B82EC90E0958B848B86EC32
:1014A00090E0978B868B118E128E138E148EEDE347
:1014B000F3E08FEF808312821182148613868FEF00
:1014C0009FEFDC0187839087A187B2870895789486
:1014D00084B5826084BD84B5816084BD85B5826039
:1014E00085BD85B5816085BDEEE6F0E080818160D7
:1014F0008083E1E8F0E010828081826080838081D7
:1015000081608083E0E8F0E0808181608083E1EBAE
:10151000F0E0808184608083E0EBF0E08081816096
:101520008083EAE7F0E0808184608083808182604C
:101530008083808181608083808180688083109235
:10154000C1000E94B1080E94E50AA59F900DB49FBA
:10155000900DA49F800D911D112408952F923F920C
:101560004F925F926F927F928F929F92AF92BF92B3
:10157000CF92DF92EF92FF920F931F93CF93DF935F
:10158000CDB7DEB7CA1BDB0B0FB6F894DEBF0FBEBC
:10159000CDBF09942A88398848885F846E847D8409
:1015A0008C849B84AA84B984C884DF80EE80FD800B
:1015B0000C811B81AA81B981CE0FD11D0FB6F89481
:1015C000DEBF0FBECDBFED010895A29FB001B39F56
:1015D000C001A39F700D811D1124911DB29F700D3C
:1015E000811D1124911D0895DB018F939F930E940B
:1015F000A30ABF91AF91A29F800D911DA39F900D53
:10160000B29F900D1124089597FB072E16F40094B5
:1016100007D077FD09D00E94410B07FC05D03EF4AE
:10162000909581959F4F0895709561957F4F08958E
:10163000A1E21A2EAA1BBB1BFD010DC0AA1FBB1FD6
:10164000EE1FFF1FA217B307E407F50720F0A21B48
:10165000B30BE40BF50B661F771F881F991F1A94B5
:1016600069F760957095809590959B01AC01BD01DF
:10167000CF0108950E94E50AB7FF0895821B930BDE
:101680000895AA1BBB1B51E107C0AA1FBB1FA617C9
:10169000B70710F0A61BB70B881F991F5A95A9F71B
:1016A00080959095BC01CD010895EE0FFF1F059028
:1016B000F491E02D09940F931F93CF93DF93823021
:1016C000910510F482E090E0E0914C03F0914D031D
:1016D00030E020E0B0E0A0E0309799F4211531052A
:1016E00009F44AC0281B390B24303105D8F58A810A
:1016F0009B816115710589F1FB0193838283FE0152
:1017000011C0408151810281138148175907E0F0CF
:101710004817590799F4109761F012960C93129795
:1017200013961C933296CF01DF91CF911F910F91A9
:10173000089500934C0310934D03F4CF2115310508
:1017400051F04217530738F0A901DB019A01BD019E
:10175000DF01F801C1CFEF01F9CF90934D038093E2
:101760004C03CDCFFE01E20FF31F819391932250E2
:10177000310939832883D7CF20914A0330914B0315
:10178000232B41F4209102013091030130934B034C
:1017900020934A0320910001309101012115310568
:1017A00041F42DB73EB74091040150910501241B2F
:1017B000350BE0914A03F0914B03E217F307A0F4D5
:1017C0002E1B3F0B2817390778F0AC014E5F5F4F97
:1017D0002417350748F04E0F5F1F50934B0340937B
:1017E0004A03819391939FCFF0E0E0E09CCFCF93A9
:1017F000DF930097E9F0FC01329713821282A091E7
:101800004C03B0914D03ED0130E020E01097A1F4BE
:1018100020813181820F931F20914A0330914B0325
:101820002817390709F061C0F0934B03E0934A038E
:10183000DF91CF910895EA01CE17DF07E8F54A81DD
:101840005B819E0141155105B1F7E901FB83EA83F4
:1018500049915991C40FD51FEC17FD0761F48081A0
:1018600091810296840F951FE90199838883828173
:1018700093819B838A83F0E0E0E012968D919C91A6
:1018800013970097B9F52D913C911197CD010296D0
:10189000820F931F20914A0330914B032817390779
:1018A00039F6309751F510924D0310924C03B093D6
:1018B0004B03A0934A03BCCFD383C28340815181A1
:1018C000840F951FC817D90761F44E5F5F4F888159
:1018D0009981480F591F518340838A819B8193834B
:1018E00082832115310509F0B0CFF0934D03E093C9
:1018F0004C039ECFFD01DC01C0CF13821282D7CFF3
:1019000081E090E0F8940C94330FAEE0B0E0EBE8A7
:10191000FCE00C94BC0A0D891E898F89988D26E005
:101920002C831A83098397FF02C080E090E8019717
:101930009E838D83AE01455E5F4F698D7A8DCE01AA
:1019400001960E94B50C4D815E8157FD0AC02F8122
:101950003885421753070CF49A01020F131FF80140
:1019600010822E96E4E00C94D80AABE0B0E0EBEBEA
:10197000FCE00C94AE0A7C013B018A01FC01178259
:101980001682838181FFC8C1CE0101965C01F701F7
:101990009381F30193FD859193FF81913F0188230A
:1019A00009F453C1853239F493FD859193FF8191F8
:1019B0003F01853229F4B70190E00E94A50EE7CFE0
:1019C000912C212C312CFFE1F31538F08B3211F1E1
:1019D00090F4803209F1833229F137FC3CC020EDCC
:1019E000280F2A3050F536FE20C08AE0989E200D40
:1019F0001124922E06C08D3291F0803371F76894D5
:101A000030F8F30193FD859193FF81913F0181119E
:101A1000DACF21C0689431F8689432F8F2CF689434
:101A200033F8EFCF689434F8ECCFEAE02E9E200D27
:101A30001124222E689435F8E4CF8E3229F436FC36
:101A400004C1689436F8DDCF8C3619F4689437F801
:101A5000D8CF8836B1F2982F9F7D95549330E0F01F
:101A60008336A1F18337C1F1833509F063C02801C2
:101A7000F2E04F0E511CF801C080D180692D70E05A
:101A800036FC02C06FEF7FEFC6010E948F0E4C0143
:101A9000689437F882010AC00C5F1F4FFFE3F98397
:101AA00088248394912C6501E89437F833FE2DC087
:101AB000522C8114910471F5552009F468CFB701B7
:101AC00080E290E00E94A50E5A94F6CFF801808142
:101AD00089830E5F1F4FE4CF2801F2E04F0E511CA7
:101AE000F801C080D180692D70E036FC02C06FEF34
:101AF0007FEFC6010E949A0E4C018201D5CFB7013B
:101B000080E290E00E94A50E2A942814190409F09E
:101B1000B0F7CECFF60137FC859137FE81916F018A
:101B2000B70190E00E94A50E51105A94F1E08F1A6F
:101B30009108BFCF843619F0893609F077C0F801D3
:101B400037FE6BC060817181828193810C5F1F4F72
:101B5000F32DFF763F2E97FF09C0909580957095E5
:101B600061957F4F8F4F9F4F689437F82AE030E0A0
:101B7000A5010E94D50EC82ECA188C2C432C36FE07
:101B80000CC0E89440F8C91440F434FE05C032FC9F
:101B900003C0F32DFE7E4F2E892C44FE95C0FE011E
:101BA000EC0DF11D8081803309F087C0242D297E42
:101BB000422E842D8870582E43FC95C040FE8FC065
:101BC0009C2C821418F42C0C922C981844FE91C072
:101BD000B70180E390E00E94A50E42FE09C088E7AD
:101BE00090E041FE02C088E590E0B7010E94A50E9A
:101BF000C91408F48AC0CA94D12C9FEFC91AD90A13
:101C0000CA0CDB1CF60182916F01B70190E00E94C3
:101C1000A50EAC14BD04B1F74FCF60817181072EC2
:101C2000000C880B990B0E5F1F4F92CFD32CE894BA
:101C3000D4F82AE030E0853739F1232D297FD22EE0
:101C40008F3601F148F48835A9F0F7018681978134
:101C50002B96E2E10C94CA0A803749F08837A9F73D
:101C6000D4FE02C06894D2F820E130E00DC0689440
:101C7000D4F8F6CF34FE03C0822F8660D82E20E140
:101C800032E002C028E030E0F801D7FE0FC06081EA
:101C90007181828193810C5F1F4FA5010E94D50E37
:101CA000C82ECA183D2CE89437F867CF608171813F
:101CB00090E080E00E5F1F4FF0CF42FC02C08394A3
:101CC00078CF8394839475CF842D867809F471CF6F
:101CD000F6CFB70180E290E00E94A50E83948214B3
:101CE000C0F3512C73CF522C5818821408F46ECFC5
:101CF000F8CF842D867809F47BCF8BE241FE80E219
:101D000047FC8DE2B70190E071CFB70180E390E02E
:101D10000E94A50E9A946CCF8FEF9FEF99CFFC0194
:101D20000590615070400110D8F7809590958E0F06
:101D30009F1F0895FC016150704001900110D8F779
:101D4000809590958E0F9F1F08950F931F93CF93AB
:101D5000DF93182F092FEB018B8181FD09C01FEF45
:101D60000FEF812F902FDF91CF911F910F91089549
:101D700082FF14C02E813F818C819D8128173907F5
:101D80003CF4E881F981CF0101969983888310831F
:101D90008E819F8101969F838E83E3CFE885F985AD
:101DA000812F0995892BA1F3DACFFA01AA272830D0
:101DB00051F1203181F1E8946F936E7F6E5F7F4F18
:101DC0008F4F9F4FAF4FB1E03ED0B4E03CD0670F94
:101DD000781F891F9A1FA11D680F791F8A1F911DE7
:101DE000A11D6A0F711D811D911DA11D20D009F437
:101DF00068943F912AE0269F11243019305D319379
:101E0000DEF6CF010895462F4770405D4193B3E061
:101E10000FD0C9F7F6CF462F4F70405D4A3318F008
:101E2000495D31FD4052419302D0A9F7EACFB4E0B9
:101E3000A6959795879577956795BA95C9F7009771
:101E40006105710508959B01AC010A2E0694579512
:101E5000479537952795BA95C9F7620F731F841F69
:0A1E6000951FA01D0895F894FFCF10
:101E6A0000004E038000000000007F087F087F0802
:101E7A0028084C085008000000006B0627062506B3
:101E8A0028084C082206CF030000000074088108C5
:101E9A0000000000DF06AE06900374098009000006
:101EAA00000023038902B6027003E602C502D802C3
:101EBA00496E697469616C697A696E6720466173F3
:101ECA00744C45442E2E2E000D0A004C6F67676530
:101EDA007220696E697469616C697A656421005B54
:101EEA0025755D3A202573005265616479210048A1
:101EFA006561646572203D2025642C204B6579203C
:0E1F0A003D2025642C204F6E203D20256400D4
:00000001FF
