:100000000C9455000C947D000C947D000C947D00A4
:100010000C947D000C947D000C947D000C947D006C
:100020000C947D000C947D000C947D000C947D005C
:100030000C947D000C947D000C947D000C947D004C
:100040000C94170B0C947D000C94870B0C94610B93
:100050000C947D000C947D000C947D000C947D002C
:100060000C947D000C947D000000FF00002AD50058
:100070000055AB00007FAB0000ABAB0000D55600D5
:1000800000FF00002AD5000055AB0000AA56000072
:10009000FF000000D5002A00AB00550081007F0062
:1000A0005500AB002B00D500B80B11241FBECFEFBD
:1000B000D8E0DEBFCDBF24E0A4E6B2E001C01D92CF
:1000C000A139B207E1F712E0A0E0B1E0EEEBF2E215
:1000D00002C005900D92A436B107D9F710E0C5E52E
:1000E000D0E004C02197FE010E945C0DC435D10709
:1000F000C9F70E94050C0C945D110C9400003FB7E9
:10010000F8948091820290918302A0918402B09130
:10011000850226B5A89B05C02F3F19F00196A11DA9
:10012000B11D3FBFBA2FA92F982F8827BC01CD0141
:10013000620F711D811D911D42E0660F771F881FA0
:10014000991F4A95D1F708954F925F926F927F92CF
:100150009F92AF92BF92CF92DF92EF92FF920F9356
:100160001F93CF93DF9300D01F92CDB7DEB7F090EF
:1001700080048091830490918404A0918504B091BF
:100180008604892B8A2B8B2BD9F00E947F0000914B
:100190009202109193022091940230919502601B7B
:1001A000710B820B930B00918304109184042091B6
:1001B0008504309186046017710782079307C8F29F
:1001C0000E947F0060939202709393028093940246
:1001D00090939502E0918B04F0918C04309759F044
:1001E00040918704509188046091890470918A0439
:1001F0008F2D0995F82E00919002109191024F2CAD
:10020000512C712C612C0115110509F45EC0D80127
:100210001C96EC901C978091810490918204843606
:10022000910510F41C961C92D801ED91FC91A280CE
:10023000B38019821A821B82FF2089F1F801369659
:10024000D12CC12C2191222319F19280992001F106
:1002500030E050E040E02F5F3F4F4F4F5F4FC30112
:10026000B2010E94FB0C9B01AC01892D90E0B0E033
:10027000A0E0BC01CD016F5F7F4F8F4F9F4F0E9469
:10028000FB0CA1E0B0E0AC0FBD1FAC0DBD1D8C930D
:10029000BFEFCB1ADB0A83E0C816D10499F6D80168
:1002A0001D964D915C911E9712966D917C919E01C9
:1002B0002F5F3F4FC801F5010995D8011C96EC92BC
:1002C0001C9714960D911C919ECF80918E02909157
:1002D0008F029C012F5F3F4F30938F0220938E023D
:1002E00049970CF44AC08FB7F89420918602309158
:1002F000870240918802509189028FBF80918A02C3
:1003000090918B02A0918C02B0918D02281B390B29
:100310004A0B5B0B21F421E030E040E050E0E0913B
:100320008E02F0918F0288EE93E0E89FB001E99F82
:10033000700DF89F700D1124072E000C880B990B7F
:100340000E941F0D309382042093810410928F022B
:1003500010928E022FB7F8948091860290918702B6
:10036000A0918802B09189022FBF80938A02909356
:100370008B02A0938C02B0938D020F900F900F9080
:10038000DF91CF911F910F91FF90EF90DF90CF9071
:10039000BF90AF909F907F906F905F904F90089527
:1003A0008F929F92AF92BF92CF92DF92EF92FF9285
:1003B0006B017C010E947F004B015C01C114D104E0
:1003C000E104F104B9F00E947F00681979098A09F3
:1003D0009B09683E73408105910580F321E0C21AB4
:1003E000D108E108F10888EE880E83E0981EA11C70
:1003F000B11CE4CFFF90EF90DF90CF90BF90AF9013
:100400009F908F9008958F929F92AF92BF92CF92BC
:10041000DF92EF92FF926B017C018FB7F89480908E
:10042000860290908702A0908802B09089028FBFC8
:1004300061E070E080E090E00E94D0010E94A400A2
:100440002FB7F8948091860290918702A09188023C
:10045000B09189022FBF88199909AA09BB098C1587
:100460009D05AE05BF0520F3FF90EF90DF90CF9084
:10047000BF90AF909F908F900895AF92BF92CF9210
:10048000DF92EF92FF920F931F93CF93DF936C0154
:100490007B018B01040F151FEB015E01AE18BF0835
:1004A000C017D10759F06991D601ED91FC910190E7
:1004B000F081E02DC6010995892B79F7C501DF91FF
:1004C000CF911F910F91FF90EF90DF90CF90BF9051
:1004D000AF900895FC01538D448D252F30E0842F7B
:1004E00090E0821B930B541710F0CF96089501975C
:1004F0000895FC01918D828D981759F0A28DAE0F51
:10050000BF2FB11D5D968C91928D9F5F928F90E071
:1005100008958FEF9FEF0895FC01918D828D9817BC
:1005200031F0828DE80FF11D858D90E008958FEFF9
:100530009FEF0895FC01918D828D981B892F90E08B
:10054000089586E992E00E949A0221E0892B09F43D
:1005500020E0822F089580E090E0892B29F00E940E
:10056000A10281110C9400000895FC01A48DA80F34
:10057000B92FB11DA35EBE4F2C91848D90E00196E2
:100580008F739927848FA689B7892C93A089B18905
:100590008C91837080648C93938D848D981306C0A6
:1005A0000288F389E02D80818F7D80830895EF920A
:1005B000FF920F931F93CF93DF93EC0181E0888F1D
:1005C0009B8D8C8D98131AC0E889F989808185FFED
:1005D00015C09FB7F894EE89FF896083E889F9898F
:1005E00080818370806480839FBF81E090E0DF9191
:1005F000CF911F910F91FF90EF900895F62E0B8DE4
:1006000010E00F5F1F4F0F731127E02E8C8D8E119E
:100610000CC00FB607FCFACFE889F989808185FF05
:10062000F5CFCE010E94B502F1CFEB8DEC0FFD2F7F
:10063000F11DE35EFE4FF0829FB7F8940B8FEA89BD
:10064000FB8980818062CFCFCF93DF93EC01888DCF
:100650008823B9F0AA89BB89E889F9898C9185FD3D
:1006600003C0808186FD0DC00FB607FCF7CF8C91CB
:1006700085FFF2CF808185FFEDCFCE010E94B502CC
:10068000E9CFDF91CF91089580E00895089581E04A
:1006900008950F931F93CF93DF93209180022F5FD4
:1006A000322F37703093800220FF2BC020E831FDBD
:1006B0002064347009F02062205FFC01EC01239675
:1006C00000E011E06485662329F070E0C8010E9413
:1006D0000B0D6F5F6187322F369F030E30E0311DA7
:1006E0001124311110C01682662311F06150618708
:1006F0003196EC17FD0731F7DF91CF911F910F91E4
:10070000089520E0D4CF31503683EECF4F925F92E0
:100710006F927F928F92AF92BF92CF92DF92EF92C1
:100720000F931F93CF93DF933C01EB010E947F0057
:10073000F30127853089621B730B6A307105B0F3B2
:10074000F894E881F98175B1716065B16E7F65B922
:10075000CA848F812C2D281B822F2F83BF844A802F
:100760005B801D850C85DE841F5F0F5FD3949E81A7
:100770003885A984EB844181D20120E0C32F522F18
:10078000322F3181442788943111380F08F43FEF1C
:100790008195889410FD430F4795889411FD430F70
:1007A0004795889412FD430F4795889413FD430F96
:1007B0004795889414FD430F4795889415FD430F82
:1007C0004795889416FD430F4795889417FD430F6E
:1007D00047958894232F1111242F8C0D422F002C24
:1007E00075B900C047FF65B930812227889400C0E1
:1007F00000C0002C65B93111390F00C0002C75B94B
:1008000000C046FF65B908F43FEF9195889400C099
:1008100000C0002C65B900FD230F00C0002C75B985
:1008200000C045FF65B92795889401FD230F00C0DE
:1008300000C0002C65B92795889400C0002C75B9BC
:1008400000C044FF65B902FD230F2795889400C0BE
:1008500000C0002C65B903FD230F00C0002C75B942
:1008600000C043FF65B92795889404FD230F00C09D
:1008700000C0002C65B92795889400C0002C75B97C
:1008800000C042FF65B905FD230F2795889400C07D
:1008900000C0002C65B906FD230F00C0002C75B9FF
:1008A00000C041FF65B92795889407FD230F00C05C
:1008B00000C0002C65B92795889400C0002C75B93C
:1008C00000C040FF65B9432F0111422F9A0D00C0AF
:1008D00000C0002C65B900C000C0002C75B900C074
:1008E00047FF65B932812227889400C000C0002CE0
:1008F00065B931113C0F00C0002C75B900C046FF2E
:1009000065B908F43FEFEB0DF11D00C000C0002CED
:1009100065B9D0FC230F00C0002C75B900C045FF9D
:1009200065B927958894D1FC230F00C000C0002C26
:1009300065B92795889400C0002C75B900C044FFA4
:1009400065B9D2FC230F2795889400C000C0002C05
:1009500065B9D3FC230F00C0002C75B900C043FF5C
:1009600065B927958894D4FC230F00C000C0002CE3
:1009700065B92795889400C0002C75B900C042FF66
:1009800065B9D5FC230F2795889400C000C0002CC2
:1009900065B9D6FC230F00C0002C75B900C041FF1B
:1009A00065B927958894D7FC230F00C000C0002CA0
:1009B00065B92795889400C0002C75B900C040FF28
:1009C00065B9432FD110422FC19500C000C0002C43
:1009D00065B9CE0D00C000C075B900C047FF65B94C
:1009E00031812227889400C000C0002C65B93111E4
:1009F000380F00C0002C75B900C046FF65B908F477
:100A00003FEF8195889400C000C0002C65B910FDAF
:100A1000230F00C0002C75B900C045FF65B92795AC
:100A2000889411FD230F00C000C0002C65B92795E4
:100A3000889400C0002C75B900C044FF65B912FD50
:100A4000230F2795889400C000C0002C65B913FDC2
:100A5000230F00C0002C75B900C043FF65B927956E
:100A6000889414FD230F00C000C0002C65B92795A1
:100A7000889400C0002C75B900C042FF65B915FD0F
:100A8000230F2795889400C000C0002C65B916FD7F
:100A9000230F00C0002C75B900C041FF65B9279530
:100AA000889417FD230F00C000C0002C65B927955E
:100AB000889400C0002C75B900C040FF65B9432F71
:100AC0001111422F8C0D00C000C0002C65B9119788
:100AD00009F086CE20EE31E0D2010E94410DDC010A
:100AE000CB01F4E0B695A79597958795FA95D1F740
:100AF00030E020E0B901EAE94E9E040C611D5E9EE3
:100B0000600D711D1124650D711D860F971FA11DAC
:100B1000B11D893E43E09407A105B10508F434C036
:100B2000885E9340A109B10942E0B695A7959795D3
:100B300087954A95D1F747E0849F080E211D949F21
:100B4000200D311D1124290F311D60917F0270E0AD
:100B5000860F971F820F931F409186025091870244
:100B60006091880270918902292F3327420F531F09
:100B7000611D711D40938602509387026093880225
:100B80007093890280937F0278940E947F00F30122
:100B9000708B6787DF91CF911F910F91EF90DF905E
:100BA000CF90BF90AF908F907F906F905F904F905D
:100BB000089580E991E00895209A08950F931F9376
:100BC000CF93DF93CDB7DEB762970FB6F894DEBF51
:100BD0000FBECDBF8C01F901DC011C968C917A838C
:100BE00069835C834B835E834D8390819D87918174
:100BF0009E8792819F878130F1F4CE0101960E94F9
:100C0000490383E0888B1A8A198AD801ED91FC91F7
:100C10000484F585E02DBE016F5F7F4FC801099503
:100C200062960FB6F894DEBF0FBECDBFDF91CF91B5
:100C30001F910F9108951C861B861A8619861886A7
:100C40001F82DFCF0F931F93CF93DF93CDB7DEB714
:100C500062970FB6F894DEBF0FBECDBF8C01F901CD
:100C6000DC011C968C917A8369835C834B835E8361
:100C70004D8390819D8791819E8792819F8781304E
:100C8000E9F4CE0101960E944903188A1A8A198A4A
:100C9000D801ED91FC910484F585E02DBE016F5FD4
:100CA0007F4FC801099562960FB6F894DEBF0FBE5C
:100CB000CDBFDF91CF911F910F9108951C861B86A8
:100CC0001A86198618861F82E0CF0C94A400CF9252
:100CD000DF92EF92FF920F931F93CF93DF93CDB7E5
:100CE000DEB7E0970FB6F894DEBF0FBECDBF8C0124
:100CF000DC011696ED91FC91A081B18188E691E02E
:100D00009F938F9384E08F93FF93EF931296ED91CF
:100D1000FC910995F801248130E0428153810F90C4
:100D20000F900F900F900F9080917702811145C026
:100D300010926902109268028FEF80936C02809388
:100D40006D0280936E0280936F0280937002809395
:100D5000710281E080937202109274021092730209
:100D600010926B0210926A0280919002909191020F
:100D7000892B31F486E692E0909391028093900261
:100D8000E0916402F0916502309721F086E692E0EE
:100D90009583848386E692E0909365028093640253
:100DA00010927602109275028AE191E090936702A8
:100DB0008093660281E080937702209A50936902C3
:100DC00040936802309374022093730280918304ED
:100DD00090918404A0918504B0918604843CF9E04C
:100DE0009F07A105B10520F484EC99E0A0E0B0E0F4
:100DF0008093830490938404A0938504B093860425
:100E000088E690E0DE0111969E012F5C3F4F6D0158
:100E1000FC0145915591659174916C9311965C9389
:100E2000119712964C93129704961396A217B30734
:100E300079F7F12CE12C90E080E0D80114962C9108
:100E40002817190609F008F449C0282F2E0D622F23
:100E500062956F702F70E62FEE0FE60FEC0DFD2DF3
:100E6000F11D508141813281222309F427C033963C
:100E70006F3009F4F6012295207F722F7095579FED
:100E8000050E50E0511D6081629F060E60E0611DFD
:100E9000560F479F040E40E0411D6181629F060E80
:100EA00060E0611D460F379F030E30E0311D628107
:100EB000629F060E60E0611D360F1124BC01660FB3
:100EC000771F680F791FD8011296ED91FC91E60FFC
:100ED000F71F5083418332830196AFCF0E94A40055
:100EE00061E070E080E090E00E940302BFEFEB1A47
:100EF000FB0AE4EFEE16E1E0FE0609F09CCF90E07D
:100F000080E0D80114962C9114972817190681F0C7
:100F100078F09C01220F331F280F391F1296ED9194
:100F2000FC91E20FF31F1082118212820196E9CF29
:100F30000E94A40062E370E080E090E00E9403025F
:100F400081E0E0960FB6F894DEBF0FBECDBFDF9113
:100F5000CF911F910F91FF90EF90DF90CF90089568
:100F6000CF93DF9300D000D000D0CDB7DEB7AB0178
:100F70001C821D821E82DC01ED91FC910190F081AA
:100F8000E02D19821A821B829E012F5F3F4FBE0106
:100F90006C5F7F4F099526960FB6F894DEBF0FBEA3
:100FA000CDBFDF91CF910895072E000C880B990BD0
:100FB0000C94D001FC0185859685089590E080E031
:100FC0000895CF93DF93D0E0C0E0009771F0FC016B
:100FD00001900020E9F73197AF01481B590BBC0184
:100FE00086E992E00E943D02EC0142E050E060E8B8
:100FF00071E086E992E00E943D028C0F9D1FDF9117
:10100000CF910895CF92DF92EF92FF92FC01C280C0
:10101000D380E480F580E091A602F091A70282E0FF
:101020008083C114F1EEDF06E104F104A1F060E079
:1010300079E08DE390E0A70196010E941F0D2150F9
:10104000310941095109569547953795279521153D
:1010500080E13807A8F0E091A602F091A702108283
:1010600060E874E88EE190E0A70196010E941F0DF0
:1010700021503109410951095695479537952795D2
:10108000E091A202F091A3023083E091A402F091DA
:10109000A50220831092AE02E091AA02F091AB0269
:1010A00086E08083E091A802F091A90280818061AE
:1010B0008083E091A802F091A902808188608083FA
:1010C000E091A802F091A902808180688083E0917C
:1010D000A802F091A90280818F7D808383E891E04E
:1010E000FF90EF90DF90CF900C94E1070E94870E65
:1010F0006F927F928F929F92AF92BF92CF92DF9228
:10110000EF92FF920F931F93CF93DF93CDB7DEB78C
:10111000C558D1090FB6F894DEBF0FBECDBF8C0104
:10112000DC011896ED91FC91A081B18187E991E0F5
:101130009F938F9384E08F93FF93EF931296ED919B
:10114000FC9109950F900F900F900F900F90F12C3C
:10115000E12C97EAC92E91E0D92E20E1722E3CEACB
:10116000A32E31E0B32EFE0131964F0144E0642EF0
:10117000D80112968D919C91DC01ED91FC91048037
:10118000F581E02D0995811193C0D8011896ED9154
:10119000FC91A081B181DF92CF927F92FF93EF9378
:1011A0001296ED91FC9109950F900F900F900F9072
:1011B0000F90F80182819381DC01ED91FC91019007
:1011C000F081E02DBE016F577F4F0995882309F408
:1011D00048C0CE57DF4F8881C258D040CD57DF4F2F
:1011E0009881C358D040892BCC57DF4F9881C45881
:1011F000D040892BCB57DF4F9881C558D040892BE1
:101200001F928F93CF57DF4F8881C158D0401F92D4
:101210008F93BF92AF929F928F920E94BC0ED80183
:101220001896ED91FC91A081B1819F928F926F925F
:10123000FF93EF931296ED91FC910995F80184814B
:101240009581DC01ED91FC910280F381E02DBE01DE
:101250006F577F4F09950FB6F894DEBF0FBECDBF15
:10126000A8CFD80114968D919C91DC01ED91FC9151
:101270000480F581E02DB7010995F8018281938101
:10128000DC01ED91FC910280F381E02DB70109951D
:10129000F80186819781DC01ED91FC910190F0814C
:1012A000E02D6AE070E009958AE0E82EF12C60CF2D
:1012B000CB57DF4F0FB6F894DEBF0FBECDBFDF9127
:1012C000CF911F910F91FF90EF90DF90CF90BF9043
:1012D000AF909F908F907F906F900895CF92DF9204
:1012E000EF92FF920F931F93CF93DF93CDB7DEB7AB
:1012F000C058D1090FB6F894DEBF0FBECDBFFC01B8
:10130000DB019C918481981708F068C08B017F01F4
:10131000FB012181328143815481822F832B842BD5
:10132000852BBE016F5F7F4F6B01882309F466C078
:101330001F925F931F924F931F923F931F922F9381
:101340001F929F9388EC91E09F938F937F936F936D
:101350000E94BC0E0FB6F894DEBF0FBECDBFD70102
:101360001696ED91FC91A081B181DF92CF9288E039
:101370008F93FF93EF931296ED91FC910995F801ED
:1013800041813281238180818E51990B56E0589F93
:10139000B001599F700D1124D7011296ED91FC9167
:1013A0001397E60FF71F408331832283F801808172
:1013B0008E51990B589FF001599FF00D1124CF01C8
:1013C00003961296ED91FC91E80FF91F408331834B
:1013D00022830F900F900F900F900F90C058DF4F07
:1013E0000FB6F894DEBF0FBECDBFDF91CF911F9136
:1013F0000F91FF90EF90DF90CF9008951F929F93F1
:1014000082EF91E09F938F937F936F930E94BC0E26
:101410000F900F900F900F900F900F90A0CF0F9301
:101420001F93CF93DF93CDB7DEB70F8118859985D2
:101430002A853B85F80182858923E1F03F932F932C
:101440001F929F9386E092E09F938F9387818F9363
:1014500086818F9381858F9380858F930E948C0ED8
:10146000F801808591850E94E1070FB6F894DEBFF0
:101470000FBECDBFDF91CF911F910F9108958F9235
:101480009F92AF92BF92CF92DF92EF92FF920F9313
:101490001F93CF93DF93CDB7DEB7E2970FB6F894E3
:1014A000DEBF0FBECDBF4C018B0186E992E00E94EA
:1014B0009A02833091050CF442C09F938F938AE186
:1014C00092E09F938F931F9282E3D82EDF929E012A
:1014D0002F5F3F4F79013F932F930E948C0E86E937
:1014E00092E00E9479020FB6F894DEBF0FBECDBF26
:1014F000823339F1282F082E000C330B3F938F9342
:101500008EE292E09F938F931F92DF92FF92EF9271
:101510000E948C0ED4011296ED91FC91A081B181B4
:10152000FF92EF9282E08F93FF93EF931296ED91EB
:10153000FC9109950FB6F894DEBF0FBECDBF80E0D9
:1015400048C086E992E00E9479026C0186E992E047
:101550000E9479025C0184E192E0A114B10411F0CF
:101560008FE092E09F938F93DF92CF9289E492E095
:101570009F938F931F9282E38F93FF92EF920E942B
:101580008C0ED4011296ED91FC91A081B181FF9255
:10159000EF9280E28F93FF93EF931296ED91FC917F
:1015A0000995F801C0820FB6F894DEBF0FBECDBF1B
:1015B000AB2829F4118212821382148209C03CE301
:1015C000C316D104CCF08FEF818312821382148270
:1015D00081E0E2960FB6F894DEBF0FBECDBFDF917B
:1015E000CF911F910F91FF90EF90DF90CF90BF9020
:1015F000AF909F908F900895118212828FEF838316
:10160000DCCF20E431E0FC013183208382819381AF
:10161000009711F00C94FE0D0895CF93DF93EC0129
:101620000E94010BCE01DF91CF910C94FE0D1F9211
:101630000F920FB60F9211242F933F938F939F9386
:10164000AF93BF938091860290918702A091880208
:10165000B09189023091810223E0230F2D3758F594
:101660000196A11DB11D2093810280938602909363
:101670008702A0938802B0938902809182029091A0
:101680008302A0918402B09185020196A11DB11D33
:101690008093820290938302A0938402B093850288
:1016A000BF91AF919F918F913F912F910F900FBE5E
:1016B0000F901F90189526E8230F0296A11DB11DCB
:1016C000D2CF1F920F920FB60F9211242F933F93F8
:1016D0004F935F936F937F938F939F93AF93BF933A
:1016E000EF93FF9386E992E00E94B502FF91EF919C
:1016F000BF91AF919F918F917F916F915F914F912A
:101700003F912F910F900FBE0F901F9018951F9231
:101710000F920FB60F9211242F938F939F93EF93F5
:10172000FF93E091A602F091A7028081E091AC02C4
:10173000F091AD0282FD1AC090818091AF028F5F5F
:101740002091B002821741F0E091AF02F0E0EA563A
:10175000FD4F958F8093AF02FF91EF919F918F91F5
:101760002F910F900FBE0F901F9018958081F4CF8E
:10177000E6E9F2E01382128288EE93E0A0E0B0E0A6
:1017800084839583A683B7838AE591E091838083E0
:1017900085EC90E09587848784EC90E09787868736
:1017A00080EC90E0918B808B81EC90E0938B828B2E
:1017B00082EC90E0958B848B86EC90E0978B868B07
:1017C000118E128E138E148EE3EFF3E080E094E01E
:1017D000918380839383828380E894E095838483DC
:1017E00097838683848580788487E0E8F4E08FEFB0
:1017F000808312821182148613868FEF9FEFDC01A3
:1018000087839087A187B2870895CF93DF93CDB761
:10181000DEB7A3970FB6F894DEBF0FBECDBF7894A6
:1018200084B5826084BD84B5816084BD85B58260E5
:1018300085BD85B5816085BD80916E008160809396
:101840006E001092810080918100826080938100FF
:10185000809181008160809381008091800081600F
:10186000809380008091B10084608093B10080916A
:10187000B00081608093B00080917A008460809392
:101880007A0080917A00826080937A0080917A0059
:10189000816080937A0080917A00806880937A00DA
:1018A0001092C1008CE291E09A83898380E092ECEF
:1018B000A1E0B0E08B839C83AD83BE8380E091E0A8
:1018C00098878F8383E28B8780E091E00E94620D8E
:1018D0009A8789878E010F5F1F4FC8010E940208F7
:1018E00084E391E09F8F8E8F19A308A380E491E099
:1018F0009F8B8E8B80E98A8F1D8F0C8F80EB91E000
:101900000E94620D998F888F7E0186E1E80EF11C9E
:10191000C7010E94670684E591E09BA38AA38EE439
:10192000882E81E0982E5E018EE1A80EB11C6E011A
:1019300082E2C80ED11C9D868C86BF86AE86F98A4F
:10194000E88ADB8ACA8A1D8B0C8BCE010C960E941A
:101950007808F1CF0E94EC0CA59F900DB49F900DDC
:10196000A49F800D911D112408952F923F924F92B4
:101970005F926F927F928F929F92AF92BF92CF921F
:10198000DF92EF92FF920F931F93CF93DF93CDB728
:10199000DEB7CA1BDB0B0FB6F894DEBF0FBECDBFA0
:1019A00009942A88398848885F846E847D848C8471
:1019B0009B84AA84B984C884DF80EE80FD800C817A
:1019C0001B81AA81B981CE0FD11D0FB6F894DEBF5D
:1019D0000FBECDBFED010895A29FB001B39FC0011E
:1019E000A39F700D811D1124911DB29F700D811D4B
:1019F0001124911D0895DB018F939F930E94AA0CDF
:101A0000BF91AF91A29F800D911DA39F900DB29F9A
:101A1000900D1124089597FB072E16F4009407D01B
:101A200077FD09D00E94480D07FC05D03EF4909543
:101A300081959F4F0895709561957F4F0895A1E21C
:101A40001A2EAA1BBB1BFD010DC0AA1FBB1FEE1F38
:101A5000FF1FA217B307E407F50720F0A21BB30B83
:101A6000E40BF50B661F771F881F991F1A9469F7FF
:101A700060957095809590959B01AC01BD01CF015B
:101A800008950E94EC0CB7FF0895821B930B0895F4
:101A9000AA1BBB1B51E107C0AA1FBB1FA617B70794
:101AA00010F0A61BB70B881F991F5A95A9F78095B0
:101AB0009095BC01CD010895EE0FFF1F0590F491A4
:101AC000E02D09940F931F93CF93DF9382309105FC
:101AD00010F482E090E0E0918F04F091900430E007
:101AE00020E0B0E0A0E0309799F42115310509F429
:101AF0004AC0281B390B24303105D8F58A819B81D7
:101B00006115710589F1FB0193838283FE0111C088
:101B1000408151810281138148175907E0F048172D
:101B2000590799F4109761F012960C931297139637
:101B30001C933296CF01DF91CF911F910F910895A1
:101B400000938F0410939004F4CF2115310551F0C8
:101B50004217530738F0A901DB019A01BD01DF01EB
:101B6000F801C1CFEF01F9CF9093900480938F04D7
:101B7000CDCFFE01E20FF31F8193919322503109E3
:101B800039832883D7CF20918D0430918E04232B65
:101B900041F4209102013091030130938E0420938F
:101BA0008D0420910001309101012115310541F48E
:101BB0002DB73EB74091040150910501241B350B10
:101BC000E0918D04F0918E04E217F307A0F42E1B30
:101BD0003F0B2817390778F0AC014E5F5F4F241791
:101BE000350748F04E0F5F1F50938E0440938D04CD
:101BF000819391939FCFF0E0E0E09CCFCF93DF9370
:101C00000097E9F0FC01329713821282A0918F04B1
:101C1000B0919004ED0130E020E01097A1F4208114
:101C20003181820F931F20918D0430918E042817EB
:101C3000390709F061C0F0938E04E0938D04DF91C1
:101C4000CF910895EA01CE17DF07E8F54A815B815D
:101C50009E0141155105B1F7E901FB83EA834991E2
:101C60005991C40FD51FEC17FD0761F48081918154
:101C70000296840F951FE90199838883828193815D
:101C80009B838A83F0E0E0E012968D919C911397FC
:101C90000097B9F52D913C911197CD010296820FD5
:101CA000931F20918D0430918E042817390739F63F
:101CB000309751F51092900410928F04B0938E04D7
:101CC000A0938D04BCCFD383C28340815181840F04
:101CD000951FC817D90761F44E5F5F4F88819981BE
:101CE000480F591F518340838A819B81938382834C
:101CF0002115310509F0B0CFF0939004E0938F04E3
:101D00009ECFFD01DC01C0CF13821282D7CF81E0CC
:101D100090E0F8940C945D11AEE0B0E0E2E9FEE0F2
:101D20000C94C30C0D891E898F89988D26E02C8315
:101D30001A83098397FF02C080E090E801979E8391
:101D40008D83AE01455E5F4F698D7A8DCE01019620
:101D50000E94DF0E4D815E8157FD0AC02F813885BC
:101D6000421753070CF49A01020F131FF801108257
:101D70002E96E4E00C94DF0CAEE0B0E0E2ECFEE086
:101D80000C94C30C0D891E8986E08C831A83098309
:101D90008FEF9FE79E838D83AE01475E5F4F6F8914
:101DA000788DCE0101960E94DF0E2F813885020FBB
:101DB000131FF80110822E96E4E00C94DF0CABE0C8
:101DC000B0E0E5EEFEE00C94B50C7C013B018A012D
:101DD000FC0117821682838181FFC8C1CE01019662
:101DE0005C01F7019381F30193FD859193FF81914C
:101DF0003F01882309F453C1853239F493FD85915D
:101E000093FF81913F01853229F4B70190E00E9450
:101E1000CF10E7CF912C212C312CFFE1F31538F0B6
:101E20008B3211F190F4803209F1833229F137FCC1
:101E30003CC020ED280F2A3050F536FE20C08AE045
:101E4000989E200D1124922E06C08D3291F0803381
:101E500071F7689430F8F30193FD859193FF8191B8
:101E60003F018111DACF21C0689431F8689432F8CB
:101E7000F2CF689433F8EFCF689434F8ECCFEAE00F
:101E80002E9E200D1124222E689435F8E4CF8E3238
:101E900029F436FC04C1689436F8DDCF8C3619F489
:101EA000689437F8D8CF8836B1F2982F9F7D955433
:101EB0009330E0F08336A1F18337C1F1833509F027
:101EC00063C02801F2E04F0E511CF801C080D180A0
:101ED000692D70E036FC02C06FEF7FEFC6010E94F3
:101EE000B9104C01689437F882010AC00C5F1F4F8B
:101EF000FFE3F98388248394912C6501E89437F8F3
:101F000033FE2DC0522C8114910471F5552009F433
:101F100068CFB70180E290E00E94CF105A94F6CFCC
:101F2000F801808189830E5F1F4FE4CF2801F2E022
:101F30004F0E511CF801C080D180692D70E036FC35
:101F400002C06FEF7FEFC6010E94C4104C018201F6
:101F5000D5CFB70180E290E00E94CF102A942814D8
:101F6000190409F0B0F7CECFF60137FC859137FEA2
:101F700081916F01B70190E00E94CF1051105A94E7
:101F8000F1E08F1A9108BFCF843619F0893609F035
:101F900077C0F80137FE6BC06081718182819381C7
:101FA0000C5F1F4FF32DFF763F2E97FF09C09095D2
:101FB0008095709561957F4F8F4F9F4F689437F84C
:101FC0002AE030E0A5010E94FF10C82ECA188C2C10
:101FD000432C36FE0CC0E89440F8C91440F434FE9B
:101FE00005C032FC03C0F32DFE7E4F2E892C44FE2B
:101FF00095C0FE01EC0DF11D8081803309F087C092
:10200000242D297E422E842D8870582E43FC95C0A5
:1020100040FE8FC09C2C821418F42C0C922C981823
:1020200044FE91C0B70180E390E00E94CF1042FED1
:1020300009C088E790E041FE02C088E590E0B70162
:102040000E94CF10C91408F48AC0CA94D12C9FEF03
:10205000C91AD90ACA0CDB1CF60182916F01B701BB
:1020600090E00E94CF10AC14BD04B1F74FCF608157
:102070007181072E000C880B990B0E5F1F4F92CFBA
:10208000D32CE894D4F82AE030E0853739F1232DB9
:10209000297FD22E8F3601F148F48835A9F0F70157
:1020A000868197812B96E2E10C94D10C803749F020
:1020B0008837A9F7D4FE02C06894D2F820E130E056
:1020C0000DC06894D4F8F6CF34FE03C0822F86602A
:1020D000D82E20E132E002C028E030E0F801D7FE3F
:1020E0000FC060817181828193810C5F1F4FA501B8
:1020F0000E94FF10C82ECA183D2CE89437F867CF0D
:102100006081718190E080E00E5F1F4FF0CF42FC54
:1021100002C0839478CF8394839475CF842D86787E
:1021200009F471CFF6CFB70180E290E00E94CF10A2
:1021300083948214C0F3512C73CF522C58188214FC
:1021400008F46ECFF8CF842D867809F47BCF8BE22C
:1021500041FE80E247FC8DE2B70190E071CFB7010C
:1021600080E390E00E94CF109A946CCF8FEF9FEFA6
:1021700099CFFC010590615070400110D8F780950F
:1021800090958E0F9F1F0895FC0161507040019043
:102190000110D8F7809590958E0F9F1F08950F938B
:1021A0001F93CF93DF93182F092FEB018B8181FDB4
:1021B00009C01FEF0FEF812F902FDF91CF911F915B
:1021C0000F91089582FF14C02E813F818C819D81E3
:1021D000281739073CF4E881F981CF0101969983EA
:1021E000888310838E819F8101969F838E83E3CFA6
:1021F000E885F985812F0995892BA1F3DACFFA01BA
:10220000AA27283051F1203181F1E8946F936E7F35
:102210006E5F7F4F8F4F9F4FAF4FB1E03ED0B4E026
:102220003CD0670F781F891F9A1FA11D680F791F67
:102230008A1F911DA11D6A0F711D811D911DA11D78
:1022400020D009F468943F912AE0269F1124301988
:10225000305D3193DEF6CF010895462F4770405D23
:102260004193B3E00FD0C9F7F6CF462F4F70405DD2
:102270004A3318F0495D31FD4052419302D0A9F72D
:10228000EACFB4E0A6959795879577956795BA9527
:10229000C9F700976105710508959B01AC010A2EED
:1022A00006945795479537952795BA95C9F7620FC4
:0E22B000731F841F951FA01D0895F894FFCF83
:1022BE000000910480000000000076087608760881
:1022CE00B007DA07DE07000000002206DE05DC0597
:1022DE00B007DA07D90586030000000002080F0ACE
:1022EE00000000003F0A46034403470300000000BD
:1022FE0067066E096506010B0D0B000000007808DD
:10230E0000000000D40700000000D7023D026A0260
:10231E0024039A0279028C02496E697469616C69B0
:10232E007A696E6720466173744C45442E2E2E00DA
:10233E000D0A004C6F6767657220696E697469617A
:10234E006C697A65642100537461727465642072DD
:10235E00756E6E696E67005469636B00476F74200B
:10236E006E6F74652E204B6579203D2025752C20CF
:10237E004F6E203D2025750053657474696E67207D
:10238E004C454420257520746F20636F6C6F72204E
:10239E002825752C2025752C2025752C2025752992
:1023AE002E005475726E696E67206F6666204C45FE
:1023BE00442025752E005B25755D3A20257300544B
:1023CE007275650046616C736500417661696C617A
:1023DE00626C652062797465733A20256400476FDC
:1023EE007420696E76616C696420636865636B2026
:1023FE00627974653A2025640052656164206461D7
:10240E0074613A206E6F74653D25642C206F6E3DAD
:04241E002573000022
:00000001FF
