:100000000C9435000C945D000C945D000C945D0024
:100010000C945D000C945D000C945D000C945D00EC
:100020000C945D000C945D000C945D000C945D00DC
:100030000C945D000C945D000C945D000C945D00CC
:100040000C94D7100C945D000C9447110C94211162
:100050000C945D000C945D000C945D000C945D00AC
:100060000C945D000C945D00791111241FBECFEF3C
:10007000D8E0DEBFCDBF23E0A0E7B2E001C01D9213
:10008000AD3DB207E1F712E0A0E0B1E0ECE9F2E348
:1000900002C005900D92A037B107D9F710E0C5E373
:1000A000D0E004C02197FE010E944114C433D1075F
:1000B000C9F70E94C6110C944C190C9400004F9281
:1000C0005F926F927F928F929F92AF92BF92DF92D8
:1000D000EF92FF920F931F93CF93DF93EC018B016D
:1000E00088818B32C1F18D32B9F52196EE24E394EB
:1000F000888190ED980F9A3010F08E32E1F560E033
:1001000070E0CB01FE012191A0ED8A2E820E39E034
:10011000381520F16A3929E97207820729E1920727
:10012000D0F5AAE0B0E09B01AC010E948F13912CA6
:10013000B12CA12C2401350140945094609470940A
:10014000461657066806790630F1680D791D8A1D36
:100150009B1DEF01D7CF2196E12CCACF21111BC0E7
:10016000F80160837183828393838AE0E11001C088
:1001700088E0F8018483DF91CF911F910F91FF9068
:10018000EF90DF90BF90AF909F908F907F906F9097
:100190005F904F900895F12CEAE08E2E912CA12CC7
:1001A000B12C61157105F0E88F07910540F0A501AC
:1001B00094010E940414CA01B901F394F2CFFE0124
:1001C000299130ED320F3A3010F4F394F8CF2E32FB
:1001D000F1F4EF012196FE012196208150EDD52EFC
:1001E000D20E29E02D1598F06C3C3CEC73073CE0F6
:1001F0008307910580F7AAE0B0E09B01AC010E9463
:100200008F136D0D711D811D911DFA94E4CF208116
:100210002F7DD0E0C0E0253409F04FC021812D3280
:10022000A9F53296BB24B394DF01D0E0C0E02F2DB6
:100230000F2C000C330B4AE0A42EFD01DD9040EDA5
:100240004D0D4A30A8F5AC9EA001AD9E500D112475
:10025000CD2DDD0CDD0BE097C40FD51FAE01420F95
:10026000531F473251054CF3BB20B9F080E090E0BA
:10027000A0E0B0E8E11003C080E090E0DC01F8010C
:1002800080839183A283B3838CE074CF2B3219F0E7
:100290003196B12CC9CF3296FCCF80E090E0A0E837
:1002A000BFEFE110ECCF80E090E0A0E8BFE7E7CF40
:1002B000BB2019F0D195C195D109208121115BCFC7
:1002C000CF0DD11DF7FCDA950E9470121C161D0689
:1002D000E4F4F12CC0FF0CC024E0F29EF0011124E4
:1002E000E459FE4F20813181428153810E94D11215
:1002F000D595C795F394209769F7E1109058F801C8
:100300006083718382839383BFCFD195C195D109D7
:10031000F12C209791F3C0FF0CC024E0F29EF00175
:100320001124EC5AFE4F20813181428153810E9479
:10033000D112D595C795F394ECCF3FB7F89480913F
:100340008E0290918F02A0919002B091910226B5F9
:10035000A89B05C02F3F19F00196A11DB11D3FBFFD
:10036000BA2FA92F982F8827BC01CD01620F711DCC
:10037000811D911D42E0660F771F881F991F4A95C6
:10038000D1F708954F925F926F927F929F92AF92B2
:10039000BF92CF92DF92EF92FF920F931F93CF9372
:1003A000DF9300D01F92CDB7DEB7F82E8091CF0338
:1003B0009091D003A091D103B091D203892B8A2BC5
:1003C0008B2BD9F00E949D0100919E0210919F02FB
:1003D0002091A0023091A102601B710B820B930B44
:1003E0000091CF031091D0032091D1033091D2031B
:1003F0006017710782079307C8F20E949D016093FE
:100400009E0270939F028093A0029093A102E091BC
:10041000D703F091D803309759F04091D30350910E
:10042000D4036091D5037091D6038F2D0995F82ED2
:1004300000919C0210919D024F2C512C712C612C2B
:100440000115110509F45EC0D8011C96EC901C97AB
:100450008091CD039091CE038436910510F41C96C3
:100460001C92D801ED91FC91A280B38019821A826E
:100470001B82FF2089F1F8013696D12CC12C2191E5
:10048000222319F19280992001F130E050E040E000
:100490002F5F3F4F4F4F5F4FC301B2010E94E013E8
:1004A0009B01AC01892D90E0B0E0A0E0BC01CD0142
:1004B0006F5F7F4F8F4F9F4F0E94E013A1E0B0E02E
:1004C000AC0FBD1FAC0DBD1D8C93BFEFCB1ADB0A6B
:1004D00083E0C816D10499F6D8011D964D915C9120
:1004E0001E9712966D917C919E012F5F3F4FC80120
:1004F000F5010995D8011C96EC921C9714960D9164
:100500001C919ECF80919A0290919B029C012F5F3B
:100510003F4F30939B0220939A0249970CF44AC0B4
:100520008FB7F894209192023091930240919402F7
:10053000509195028FBF8091960290919702A09161
:100540009802B0919902281B390B4A0B5B0B21F4DE
:1005500021E030E040E050E0E0919A02F0919B020F
:1005600088EE93E0E89FB001E99F700DF89F700D51
:100570001124072E000C880B990B0E940414309351
:10058000CE032093CD0310929B0210929A022FB7B4
:10059000F8948091920290919302A0919402B0916C
:1005A00095022FBF8093960290939702A093980292
:1005B000B09399020F900F900F90DF91CF911F9100
:1005C0000F91FF90EF90DF90CF90BF90AF909F90F2
:1005D0007F906F905F904F900895AF92BF92CF92AF
:1005E000DF92EF92FF920F931F93CF93DF936C01F3
:1005F0007B018B01040F151FEB015E01AE18BF08D4
:10060000C017D10759F06991D601ED91FC91019085
:10061000F081E02DC6010995892B79F7C501DF919D
:10062000CF911F910F91FF90EF90DF90CF90BF90EF
:10063000AF900895FC01538D448D252F30E0842F19
:1006400090E0821B930B541710F0CF9608950197FA
:100650000895FC01918D828D981761F0A28DAE0FE7
:10066000BF2FB11D5D968C91928D9F5F9F73928F6E
:1006700090E008958FEF9FEF08952FB7F894809141
:10068000920290919302A0919402B09195022FBF93
:100690008093AA029093AB02A093AC02B093AD02F8
:1006A00082EA92E00E94290397FF26C02FB7F894B0
:1006B0008091920290919302A0919402B091950240
:1006C0002FBF4091AA025091AB026091AC02709191
:1006D000AD02841B950BA60BB70B4091A60250915F
:1006E000A7026091A8027091A90284179507A60736
:1006F000B707B0F28FEF9FEF0895FC01918D828DC7
:10070000981731F0828DE80FF11D858D90E00895E6
:100710008FEF9FEF0895FC01918D228D892F90E03E
:10072000805C9F4F821B91098F739927089582EAFD
:1007300092E00E948B0321E0892B09F420E0822FB4
:10074000089580E090E0892B29F00E9497038111A1
:100750000C9400000895FC01A48DA80FB92FB11DC1
:10076000A35ABF4F2C91848D90E001968F739927E7
:10077000848FA689B7892C93A089B1898C918370C5
:1007800080648C93938D848D981306C00288F389BE
:10079000E02D80818F7D80830895EF92FF920F93EB
:1007A0001F93CF93DF93EC0181E0888F9B8D8C8D1D
:1007B00098131AC0E889F989808185FF15C09FB711
:1007C000F894EE89FF896083E889F98980818370D4
:1007D000806480839FBF81E090E0DF91CF911F9183
:1007E0000F91FF90EF900895F62E0B8D10E00F5FA4
:1007F0001F4F0F731127E02E8C8D8E110CC00FB67A
:1008000007FCFACFE889F989808185FFF5CFCE0111
:100810000E94AB03F1CFEB8DEC0FFD2FF11DE35ADE
:10082000FF4FF0829FB7F8940B8FEA89FB89808194
:100830008062CFCFCF93DF93EC01888D8823B9F00E
:10084000AA89BB89E889F9898C9185FD03C08081DB
:1008500086FD0DC00FB607FCF7CF8C9185FFF2CF58
:10086000808185FFEDCFCE010E94AB03E9CFDF9100
:10087000CF91089580339CF08A3324F08F3524F093
:100880008B3724F481E0089581344CF08B35D4F318
:1008900093ED980F81E09230B0F380E008958B32B1
:1008A000B9F7F0CFCF92DF92EF92FF92CF93DF9321
:1008B00000D000D01F92CDB7DEB7FC0194819F77A6
:1008C000963071F020F4943008F580E013C0983031
:1008D00039F09C30D1F7C080D180E280F38027C00E
:1008E00080819181A281B3818F3F9105A105B105DE
:1008F00009F058F70F900F900F900F900F90DF9125
:10090000CF91FF90EF90DF90CF90089580819181FB
:100910001D82BE016F5F7F4F0E945F008D81883016
:1009200001F18C3091F6C980DA80EB80FC8020E008
:1009300030E0A901C701B6010E94761487FDC5CF3A
:1009400020E030E04FE753E4C701B6010E946B128C
:1009500018160CF4BACFC701B6010E944714862FAF
:10096000C9CF89819A81AB81BC81BECFFC018385CF
:10097000811114C0A681B781808591852FEF3FEF4B
:10098000A817B90730F4CD010196978386832C917F
:1009900030E037FD20E0228781E08387828508955B
:1009A0001F93CF93DF93EC01162F0E94B60481139F
:1009B00006C01B8681E0DF91CF911F91089580E0F2
:1009C000FACFCF93DF93EC01CE010E94B6048B30B7
:1009D00034F4893044F4882341F081E00DC08D3037
:1009E00011F08032D1F71B86EFCFC25BDF4F81E081
:1009F00090E09983888380E0DF91CF910895CF9331
:100A0000DF93DC01ED91FC91119712962D913C91B1
:100A1000E217F307B8F4C62FD72FDF018991AD0194
:100A20004F5F5F4F9C91891307C0DA018111F6CFA8
:100A3000CF01DF91CF910895FD018191DF018111F7
:100A4000FBCFE6CFF0E0E0E0F3CF80E0089508953B
:100A5000089581E00895FC0180819181009799F0CB
:100A600022813381448155812417350718F0118282
:100A700010820895A9014F5F5F4F53834283820F15
:100A8000931FFC01608308959F92AF92BF92CF9213
:100A9000DF92EF92FF920F931F93CF93DF9300D0DB
:100AA00000D01F92CDB7DEB78C010E94B604D82EBD
:100AB000F8011386F12CE12C70EFC72EC8010E94BB
:100AC000B604F8011386D81609F4C1C0811119C003
:100AD000F801E25BFF4F81E090E09183808380E04A
:100AE0000F900F900F900F900F90DF91CF911F916B
:100AF0000F91FF90EF90DF90CF90BF90AF909F90BD
:100B000008958C3509F09EC0C8010E94B604882360
:100B1000F9F2E6E9F1E0853709F088C0F8011386BB
:100B200064E0962EB12CA12CC8010E94B604882343
:100B300079F281344CF48053803148F0F801E25B63
:100B4000FF4F82E090E0C9CF8F7D8753F5CF54E00F
:100B5000AA0CBB1C5A95E1F7A82AF80113869A94AF
:100B60009110E2CFC501985D8115944020F4750184
:100B700023E0F222A3CFC5019C5D8115944008F5C6
:100B8000F3E0BF22C701982F8827990F990F8A2970
:100B90009B29B0E0A0E01196198280389105A1054B
:100BA000B10598F48A835E0123E0A20EB11CF50121
:100BB00062915F01662309F481CFC8010E942B0571
:100BC000F6CFC501B0E0A0E0E7CF282F2F73206853
:100BD0002A8336E0B695A795979587953A95D1F7EC
:100BE0008032910538F4806C8B835E0184E0A80E1E
:100BF000B11CDDCF282F2F7320682B8326E096951C
:100C000087952A95E1F78031910538F4806E8C83C1
:100C10005E01E5E0AE0EB11CCACF80688C83CD8248
:100C20005E01F6E0AF0EB11CC2CF329690819923DF
:100C300009F484CF8913F9CF8181882309F47ECF09
:100C4000F8011386682FC8010E942B0537CF60E09A
:100C5000C8010E942B05F80180819181892B29F41C
:100C6000E25BFF4F83E090E038CF81E039CFCF9354
:100C7000DF93DC01EB01EC81FD818A819B81089689
:100C8000E817F90730F4F0E0E0E0CF01DF91CF9111
:100C900008953897FD83EC833097A9F31296CD9190
:100CA000DC911397209791F0CF018C1B9D0B23E0D3
:100CB000959587952A95E1F78D831396FC93EE938E
:100CC00012971582148217821682DFCF1196FC9339
:100CD000EE93F3CF0F931F93CF93DF9320918C026A
:100CE0002F5F322F377030938C0220FF2BC020E80B
:100CF00031FD2064347009F02062205FFC01EC01BA
:100D0000239600E011E06485662329F070E0C801B5
:100D10000E94F0136F5F6187322F369F030E30E021
:100D2000311D1124311110C01682662311F061505B
:100D300061873196EC17FD0731F7DF91CF911F9155
:100D40000F91089520E0D4CF31503683EECF4F92EB
:100D50005F926F927F928F92AF92BF92CF92DF920B
:100D6000EF920F931F93CF93DF933C01EB010E940F
:100D70009D01F30127853089621B730B6A30710571
:100D8000B0F3F894E881F98175B1716065B16E7F57
:100D900065B9CA848F812C2D281B822F2F83BF8495
:100DA0004A805B801D850C85DE841F5F0F5FD394B6
:100DB0009E813885A984EB844181D20120E0C32F34
:100DC000522F322F3181442788943111380F08F483
:100DD0003FEF8195889410FD430F4795889411FD4E
:100DE000430F4795889412FD430F4795889413FD50
:100DF000430F4795889414FD430F4795889415FD3C
:100E0000430F4795889416FD430F4795889417FD27
:100E1000430F47958894232F1111242F8C0D422FB7
:100E2000002C75B900C047FF65B93081222788942E
:100E300000C000C0002C65B93111390F00C0002C72
:100E400075B900C046FF65B908F43FEF91958894E5
:100E500000C000C0002C65B900FD230F00C0002CAD
:100E600075B900C045FF65B92795889401FD230F2A
:100E700000C000C0002C65B92795889400C0002CE4
:100E800075B900C044FF65B902FD230F279588940A
:100E900000C000C0002C65B903FD230F00C0002C6A
:100EA00075B900C043FF65B92795889404FD230FE9
:100EB00000C000C0002C65B92795889400C0002CA4
:100EC00075B900C042FF65B905FD230F27958894C9
:100ED00000C000C0002C65B906FD230F00C0002C27
:100EE00075B900C041FF65B92795889407FD230FA8
:100EF00000C000C0002C65B92795889400C0002C64
:100F000075B900C040FF65B9432F0111422F9A0DFA
:100F100000C000C0002C65B900C000C0002C75B92D
:100F200000C047FF65B932812227889400C000C005
:100F3000002C65B931113C0F00C0002C75B900C000
:100F400046FF65B908F43FEFEB0DF11D00C000C08E
:100F5000002C65B9D0FC230F00C0002C75B900C06F
:100F600045FF65B927958894D1FC230F00C000C0C8
:100F7000002C65B92795889400C0002C75B900C075
:100F800044FF65B9D2FC230F2795889400C000C0A8
:100F9000002C65B9D3FC230F00C0002C75B900C02C
:100FA00043FF65B927958894D4FC230F00C000C087
:100FB000002C65B92795889400C0002C75B900C035
:100FC00042FF65B9D5FC230F2795889400C000C067
:100FD000002C65B9D6FC230F00C0002C75B900C0E9
:100FE00041FF65B927958894D7FC230F00C000C046
:100FF000002C65B92795889400C0002C75B900C0F5
:1010000040FF65B9432FD110422FC19500C000C0E9
:10101000002C65B9CE0D00C000C075B900C047FFF7
:1010200065B931812227889400C000C0002C65B9C1
:101030003111380F00C0002C75B900C046FF65B9EA
:1010400008F43FEF8195889400C000C0002C65B97A
:1010500010FD230F00C0002C75B900C045FF65B915
:101060002795889411FD230F00C000C0002C65B99E
:101070002795889400C0002C75B900C044FF65B95D
:1010800012FD230F2795889400C000C0002C65B97D
:1010900013FD230F00C0002C75B900C043FF65B9D4
:1010A0002795889414FD230F00C000C0002C65B95B
:1010B0002795889400C0002C75B900C042FF65B91F
:1010C00015FD230F2795889400C000C0002C65B93A
:1010D00016FD230F00C0002C75B900C041FF65B993
:1010E0002795889417FD230F00C000C0002C65B918
:1010F0002795889400C0002C75B900C040FF65B9E1
:10110000432F1111422F8C0D00C000C0002C65B977
:10111000119709F086CE20EE31E0D2010E9426140C
:10112000DC01CB01F4E0B695A79597958795FA95E4
:10113000D1F730E020E0B901EAE94E9E040C611DD0
:101140005E9E600D711D1124650D711D860F971F28
:10115000A11DB11D893E43E09407A105B10508F426
:1011600034C0885E9340A109B10942E0B695A795C5
:10117000979587954A95D1F747E0849F080E211DE2
:10118000949F200D311D1124290F311D60918B0278
:1011900070E0860F971F820F931F4091920250912B
:1011A00093026091940270919502292F3327420F88
:1011B000531F611D711D40939202509393026093DF
:1011C00094027093950280938B0278940E949D0103
:1011D000F301708B6787DF91CF911F910F91EF9093
:1011E000DF90CF90BF90AF908F907F906F905F9087
:1011F0004F90089580E991E00895209A08950F9303
:101200001F93CF93DF93CDB7DEB762970FB6F894F5
:10121000DEBF0FBECDBF8C01F901DC011C968C91A5
:101220007A8369835C834B835E834D8390819D8742
:1012300091819E8792819F878130F1F4CE01019642
:101240000E946A0683E0888B1A8A198AD801ED9178
:10125000FC910484F585E02DBE016F5F7F4FC801CE
:10126000099562960FB6F894DEBF0FBECDBFDF9131
:10127000CF911F910F9108951C861B861A8619869F
:1012800018861F82DFCF0F931F93CF93DF93CDB7C5
:10129000DEB762970FB6F894DEBF0FBECDBF8C01EC
:1012A000F901DC011C968C917A8369835C834B8302
:1012B0005E834D8390819D8791819E8792819F87D8
:1012C0008130E9F4CE0101960E946A06188A1A8AD2
:1012D000198AD801ED91FC910484F585E02DBE01B9
:1012E0006F5F7F4FC801099562960FB6F894DEBF15
:1012F0000FBECDBFDF91CF911F910F9108951C8636
:101300001B861A86198618861F82E0CFCF93DF933B
:10131000EC01EE81FF81A081B18187EA91E09F938A
:101320008F9384E08F93FF93EF931296ED91FC914E
:1013300009952C8130E04A815B810F900F900F90CE
:101340000F900F9080918302811145C01092750219
:10135000109274028FEF80937802809379028093C9
:101360007A0280937B0280937C0280937D0281E0ED
:1013700080937E021092800210927F021092770278
:101380001092760280919C0290919D02892B31F4FB
:1013900082E792E090939D0280939C02E09170021C
:1013A000F0917102309721F082E792E09583848377
:1013B00082E792E090937102809370021092820211
:1013C000109281028AE191E09093730280937202FD
:1013D00081E080938302209A5093750240937402B7
:1013E0003093800220937F028091CF039091D003AD
:1013F000A091D103B091D203843C29E09207A105CA
:10140000B10520F484EC99E0A0E0B0E08093CF0334
:101410009093D003A093D103B093D20390E080E0E7
:101420002C812817190679F070F09C01220F331FC8
:10143000280F391FEA81FB81E20FF31F108211820E
:1014400012820196EDCF8091CC030E94C20181E00F
:10145000DF91CF910895CF93DF9300D000D000D0DB
:10146000CDB7DEB7AB011C821D821E82DC01ED917F
:10147000FC910190F081E02D19821A821B829E015D
:101480002F5F3F4FBE016C5F7F4F099526960FB6C9
:10149000F894DEBF0FBECDBFDF91CF9108958F923C
:1014A0009F92AF92BF92CF92DF92EF92FF926B0129
:1014B000770FEE08FF080E949D014B015C01C114EB
:1014C000D104E104F104B9F00E949D016819790981
:1014D0008A099B09683E73408105910580F321E0EC
:1014E000C21AD108E108F10888EE880E83E0981E40
:1014F000A11CB11CE4CFFF90EF90DF90CF90BF9084
:10150000AF909F908F900895FC01858596850895F2
:1015100090E080E00895CF93DF93D0E0C0E00097A3
:1015200071F0FC0101900020E9F73197AF01481BF1
:10153000590BBC0182EA92E00E94ED02EC0142E00C
:1015400050E06FEB71E082EA92E00E94ED028C0FB6
:101550009D1FDF91CF910895CF92DF92EF92FF927E
:10156000FC01C280D380E480F580E091B202F0916A
:10157000B30282E08083C114F1EEDF06E104F104DE
:10158000A1F060E079E08DE390E0A70196010E9470
:101590000414215031094109510956954795379551
:1015A0002795211580E13807A8F0E091B202F0916B
:1015B000B302108260E874E88EE190E0A701960122
:1015C0000E9404142150310941095109569547954B
:1015D00037952795E091AE02F091AF023083E0910C
:1015E000B002F091B10220831092BA02E091B602EB
:1015F000F091B70286E08083E091B402F091B502E9
:10160000808180618083E091B402F091B502808195
:1016100088608083E091B402F091B5028081806897
:101620008083E091B402F091B50280818F7D808348
:1016300082EC91E0FF90EF90DF90CF900C948B0ABA
:101640000E945D160F931F93CF93DF93EC01888167
:101650009981009759F02A813B812617370730F08E
:1016600081E0DF91CF911F910F9108958B016F5F02
:101670007F4F0E94A015009759F0998388831B83A0
:101680000A832C813D81232B59F7FC011082E8CF7E
:1016900080E0E7CF8F929F92AF92BF92CF92DF927E
:1016A000EF92FF920F931F93CF93DF93CDB7DEB7E7
:1016B000C558D1090FB6F894DEBF0FBECDBF8C015F
:1016C000DC011896ED91FC91A081B18186ED91E04D
:1016D0009F938F9384E08F93FF93EF931296ED91F6
:1016E000FC9109950F900F900F900F900F9086EE40
:1016F000E82E81E0F82E90E1992E2BEEC22E21E00B
:10170000D22EFE0131965F0134E0832ED80112966D
:101710008D919C91DC01ED91FC910480F581E02D8F
:101720000995811186C0D8011896ED91FC91A08190
:10173000B181FF92EF929F92FF93EF931296ED91FA
:10174000FC9109950F900F900F900F900F90F8015A
:1017500082819381DC01ED91FC910190F081E02D7B
:10176000BE016F577F4F0995882309F448C0CE57B3
:10177000DF4F8881C258D040CD57DF4F9881C35882
:10178000D040892BCC57DF4F9881C458D040892B4B
:10179000CB57DF4F9881C558D040892B1F928F932C
:1017A000CF57DF4F8881C158D0401F928F93DF926F
:1017B000CF92BF92AF920E94AB16D8011896ED91CE
:1017C000FC91A081B181BF92AF928F92FF93EF9372
:1017D0001296ED91FC910995F80184819581DC01C7
:1017E000ED91FC910280F381E02DBE016F577F4F98
:1017F00009950FB6F894DEBF0FBECDBFA8CFD801B4
:1018000016968D919C91DC01ED91FC910190F081F7
:10181000E02D6AE070E00995F80182819381DC0196
:10182000ED91FC910280F381E02D6AE070E0099572
:101830006DCFCB57DF4F0FB6F894DEBF0FBECDBFD5
:10184000DF91CF911F910F91FF90EF90DF90CF909C
:10185000BF90AF909F908F900895CF92DF92EF92BC
:10186000FF920F931F93CF93DF93CDB7DEB7C0588E
:10187000D1090FB6F894DEBF0FBECDBFFC01DB016E
:101880009C918481981708F053C08B017F01FB0164
:101890002181328143815481822F832B842B852B9C
:1018A000BE016F5F7F4F6B01882309F451C01F9207
:1018B0005F931F924F931F923F931F922F931F92FC
:1018C0009F9387E092E09F938F937F936F930E9403
:1018D000AB160FB6F894DEBF0FBECDBFD70116967C
:1018E000ED91FC91A081B181DF92CF9288E08F933E
:1018F000FF93EF931296ED91FC910995F8012181E8
:10190000928183813081D7011296ED91FC91B3E0F1
:101910003B9FE00DF11D11242083918382838091F0
:10192000CC030E94C2010F900F900F900F900F9068
:10193000C058DF4F0FB6F894DEBF0FBECDBFDF91AA
:10194000CF911F910F91FF90EF90DF90CF9008956E
:101950001F929F9381E392E09F938F937F936F9366
:101960000E94AB160F900F900F900F900F900F905A
:10197000B5CF0F931F93CF93DF93CDB7DEB70F8112
:10198000188599852A853B85F80182858923E1F0B0
:101990003F932F931F929F9385E492E09F938F93A1
:1019A00087818F9386818F9381858F9380858F9395
:1019B0000E947B16F801808591850E948B0A0FB6E4
:1019C000F894DEBF0FBECDBFDF91CF911F910F9175
:1019D00008950F931F93CF93DF938B01EC01209712
:1019E000E1F06E817F8160177107B9F00115110573
:1019F00041F06115710529F0C8010E946B16892B11
:101A000061F08D81882339F028E08202C001112421
:101A1000C80FD91FE4CFD0E0C0E0CE01DF91CF9155
:101A20001F910F9108956F927F928F929F92AF9224
:101A3000BF92CF92DF92EF92FF920F931F93CF93BB
:101A4000DF9300D000D01F92CDB7DEB78C017B01B1
:101A5000C42E0E94E104D82E811102C0D12C8CC169
:101A6000C8010E94B604873209F447C124F58232C6
:101A700009F443C1C8010E94B604982E5801FEE043
:101A8000AF0EB11CC12C7A2C8B2C892D0E943A04EC
:101A9000882309F486C18FE3C81609F482C1D801EE
:101AA0001B961C92C394F50191925F01C8010E949C
:101AB000B604982EEACF8B3509F461C08B37D1F686
:101AC000F70184818078806284831182108213827E
:101AD0001282CC2009F465C0D8011B961C92C80163
:101AE0000E94E104882309F4B9CF6DE7C8010E9480
:101AF000D004811141C1CA94D8011C96ED91FC918A
:101B00001D978281938111969C938E9384819581F8
:101B100022813381821B930B15969C938E9314978D
:101B200013961C921E921297C8010E94B604873227
:101B300009F47DC0823209F47AC0C8010E94B6045B
:101B4000B82E0E943A04882309F46BC0F80113866A
:101B50006B2DC8010E942B05C8010E94B604B82E47
:101B60000E943A048111F2CF60E0C8010E942B0567
:101B7000D8018D919C91892B09F05FC032C0D701AB
:101B800014968C9114978078806414968C93149793
:101B900011961C921E9213961C921E921297C110BF
:101BA00008C0F801E25BFF4F85E090E091838083FD
:101BB00055CFF8011386C8010E94E104882309F477
:101BC0004DCF6DE5C8010E94D0048111D5C0CA94E3
:101BD000D8011C966D917C91C7010E943706009731
:101BE00031F4F801E25BFF4F83E090E0DFCF4C2D52
:101BF000BC01C8010E94130D882309F42FCFC8012E
:101C00000E94E104882309F429CF6DE5C8010E94F0
:101C1000D0048111B1C06CE2C8010E94D0048111CE
:101C2000D7CFF801E25BFF4F82E090E0BFCFC80161
:101C30000E944405882309F411CFC8010E94E104E1
:101C4000882309F40BCF6AE3C8010E94D0048823DB
:101C500041F3F80160817181D7018D919C910E94BF
:101C6000E90CBC01892B49F5F80164847584D30122
:101C700012968D909C90B401C3010E94FF045C01F8
:101C8000892B59F4F80182819381880D991DD30124
:101C900013969C938E9312975401F8016485758571
:101CA000C7010E943706FC01892B09F49ACF848171
:101CB00080688483B782A682BF014C2DC8010E9430
:101CC000130D882309F4CACEC8010E94E1048823B9
:101CD00009F4C4CE6DE7C8010E94D00481114CC044
:101CE0006CE2C8010E94D004882309F49ACFC8018D
:101CF0000E94E104811100CFB1CED8011C96ED9174
:101D0000FC911D978281938111969C938E9384817F
:101D1000958122813381821B930B15969C938E9320
:101D2000149713961C921E921297C8010E944405A4
:101D3000D82E882309F492CEF80184849584D401A6
:101D40001296AD90BC90B501C4010E94FF049C01A5
:101D5000892B59F4F801828193818A0D9B1DD4014E
:101D600013969C938E9312979501F7019481907826
:101D700095609483318320838D2D0F900F900F9069
:101D80000F900F90DF91CF911F910F91FF90EF90E7
:101D9000DF90CF90BF90AF909F908F907F906F908B
:101DA0000895F801EC0DF11D1686D8011E968C9150
:101DB0008437B1F4F701848180788660848381E080
:101DC00090E0A0E0B0E080839183A283B383F4E04D
:101DD000CF1691F2F801E25BFF4F81E090E0E6CE92
:101DE000863679F4D70114968C91149780788660A2
:101DF00014968C93F7011082118212821382F5E0FF
:101E0000E7CF8E3621F484E0C812E4CFB5CF1D822F
:101E1000BE016F5F7F4F872D982D0E945F008D81DF
:101E20008A3081F08C3001F1883009F0FACE498196
:101E30005A816B817C81D70114968C91149780789C
:101E400088600AC049815A816B817C81D7011496D0
:101E50008C91149780788A6014968C93F701408354
:101E600051836283738388CF49815A816B817C81DE
:101E7000D70114968C91149780788C6014968C936B
:101E8000F701408351836283738376CFCF92DF92D1
:101E9000EF92FF920F931F93CF93DF93CDB7DEB7EF
:101EA000C655D1090FB6F894DEBF0FBECDBF6C0189
:101EB0008B0182EA92E00E948B03892B09F45FC1B7
:101EC00063961FAE1EAE639765961FAE1EAE6597F6
:101ED00067961FAE1EAE679770E060E0CE018F5A26
:101EE0009F4F0E94220B63962EAD3FAD63978111E9
:101EF0003EC02115310519F0C9010E9417156396DE
:101F00001FAE1EAE639767961FAE1EAE67976596AF
:101F10001FAE1EAE65970E943D0397FD32C08A300A
:101F2000910579F189831A826796EEACFFAC6797C9
:101F30008FEFE81AF80AB701CE018F5A9F4F0E941F
:101F4000220B882341F363962EAD3FAD63976796CE
:101F50008EAD9FAD6797BE016F5F7F4F820F931F5E
:101F60000E9474166796FFAEEEAE6797D4CF679661
:101F70001FAE1EAE679766EA71E0C9010E94741633
:101F8000CACFD6011296ED91FC91A081B1816396E2
:101F90008FAD63978F9362968FAD62978F9380E238
:101FA0008F93FF93EF931296ED91FC9109956396B1
:101FB0004EAD5FAD639767968EAD9FAD6797840F0B
:101FC000951F20913F0330914003309342032093AB
:101FD00041032091450330914603309344032093FD
:101FE000430320914B03207820934B031A821982DC
:101FF0001C821B821E821D8258874F839A87898785
:102000001C868FE393E09E878D8761961FAE1EAE80
:1020100061974AE067E473E0FE0131967F01CF01EA
:102020000E94130D0F900F900F900F900F906196DC
:102030008EAD9FAD6197892B91F48B85882379F0C4
:1020400080914B03982F9F779C3019F08D778830C3
:1020500031F482E090E061969FAF8EAF6197619618
:102060008EAD9FAD61970097D1F19F938F938EE4D2
:1020700092E09F938F931F9282E38F93FF92EF9250
:102080000E947B16D6011296ED91FC91A081B18140
:10209000FF92EF9282E08F93FF93EF931296ED9170
:1020A000FC9109950FB6F894DEBF0FBECDBF10E0CE
:1020B00063968EAD9FAD63970E941715812FCA5A04
:1020C000DF4F0FB6F894DEBF0FBECDBFDF91CF91CB
:1020D0001F910F91FF90EF90DF90CF900895809126
:1020E0004B03F82FF072FF2E85FF11C068E672E0F7
:1020F00080914703909148030E94E90C009751F0AA
:102100000E945204F82E80914B0385FD04C0F80113
:10211000F08211C0F12C6CE672E08091470390913F
:1021200048030E94E90C009791F30E945204D801E1
:10213000FC9281110DC0D80111961C921197129634
:102140001C92129713961C92139714961C9209C016
:10215000BBE3BF1540F48FEFF80181831282138235
:10216000148211E0A5CFD80111961C9211971296F6
:102170001C9212978FEF13968C931397E6CF10E073
:102180009DCF20E431E0FC01318320838281938163
:10219000009711F00C9417150895CF93DF93EC017D
:1021A0000E94C110CE01DF91CF910C9417151F92A0
:1021B0000F920FB60F9211242F933F938F939F93FB
:1021C000AF93BF938091920290919302A091940259
:1021D000B091950230918D0223E0230F2D3758F5F1
:1021E0000196A11DB11D20938D02809392029093C0
:1021F0009302A0939402B093950280918E029091E5
:102200008F02A0919002B09191020196A11DB11D83
:1022100080938E0290938F02A0939002B0939102CC
:10222000BF91AF919F918F913F912F910F900FBED2
:102230000F901F90189526E8230F0296A11DB11D3F
:10224000D2CF1F920F920FB60F9211242F933F936C
:102250004F935F936F937F938F939F93AF93BF93AE
:10226000EF93FF9382EA92E00E94AB03FF91EF911C
:10227000BF91AF919F918F917F916F915F914F919E
:102280003F912F910F900FBE0F901F9018951F92A6
:102290000F920FB60F9211242F938F939F93EF936A
:1022A000FF93E091B202F091B3028081E091B80215
:1022B000F091B90282FD1BC090818091BB028F5FBB
:1022C0008F732091BC02821741F0E091BB02F0E0D5
:1022D000EE55FD4F958F8093BB02FF91EF919F913B
:1022E0008F912F910F900FBE0F901F9018958081A6
:1022F000F4CFE2EAF2E01382128288EE93E0A0E0EB
:10230000B0E084839583A683B78388E891E09183C6
:10231000808385EC90E09587848784EC90E09787B4
:10232000868780EC90E0918B808B81EC90E0938BA2
:10233000828B82EC90E0958B848B86EC90E0978B7F
:10234000868B118E128E138E148EEFE3F3E08CE4E5
:1023500093E091838083938382838CEC93E09583D5
:10236000848397838683848580788487ECECF3E08C
:102370008FEF808312821182148613868FEF9FEF76
:10238000DC0187839087A187B2870895CF93DF937D
:10239000CDB7DEB7A3970FB6F894DEBF0FBECDBFA3
:1023A000789484B5826084BD84B5816084BD85B530
:1023B000826085BD85B5816085BD80916E0081603C
:1023C00080936E00109281008091810082608093E2
:1023D00081008091810081608093810080918000E4
:1023E0008160809380008091B10084608093B1000F
:1023F0008091B00081608093B00080917A00846009
:1024000080937A0080917A00826080937A00809134
:102410007A00816080937A0080917A00806880934E
:102420007A001092C1008CE291E09A83898380E067
:1024300092ECA1E0B0E08B839C83AD83BE8380E00F
:1024400091E098878F838FE28B8780E091E00E94F4
:102450007B149A8789878E010F5F1F4FC8010E94E6
:10246000AC0A84E391E09F8F8E8F19A308A380E4C8
:1024700091E09F8B8E8B80E98A8F1D8F0C8F80EB74
:1024800091E00E947B14998F888F7E0186E1E80E8F
:10249000F11CC7010E94860982E591E09BA38AA3F3
:1024A0008CE4882E81E0982E5E018EE1A80EB11C8E
:1024B0006E0182E2C80ED11C9D868C86BF86AE86D8
:1024C000F98AE88ADB8ACA8A1D8B0C8BCE010C96AE
:1024D0000E944A0BF1CF0E94AD1208F481E00895EA
:1024E000E89409C097FB3EF49095809570956195AE
:1024F0007F4F8F4F9F4F9923A9F0F92F96E9BB2764
:102500009395F695879577956795B795F111F8CFDF
:10251000FAF4BB0F11F460FF1BC06F5F7F4F8F4F4A
:102520009F4F16C0882311F096E911C0772321F040
:102530009EE8872F762F05C0662371F096E8862FD8
:1025400070E060E02AF09A95660F771F881FDAF72F
:10255000880F9695879597F90895990F0008550F5C
:10256000AA0BE0E8FEEF16161706E807F907C0F019
:1025700012161306E407F50798F0621B730B840B21
:10258000950B39F40A2661F0232B242B252B21F4FB
:1025900008950A2609F4A140A6958FEF811D811D9B
:1025A00008950E94E4120C9455130E94471338F0CA
:1025B0000E944E1320F0952311F00C943E130C94BE
:1025C000441311240C9489130E94661370F3959F91
:1025D000C1F3950F50E0551F629FF001729FBB271A
:1025E000F00DB11D639FAA27F00DB11DAA1F649FB6
:1025F0006627B00DA11D661F829F2227B00DA11D69
:10260000621F739FB00DA11D621F839FA00D611DEE
:10261000221F749F3327A00D611D231F849F600D0F
:10262000211D822F762F6A2F11249F5750409AF038
:10263000F1F088234AF0EE0FFF1FBB1F661F771FC4
:10264000881F91505040A9F79E3F510580F00C948F
:102650003E130C9489135F3FE4F3983ED4F38695C0
:1026600077956795B795F795E7959F5FC1F7FE2B2F
:10267000880F911D9695879597F9089597F99F670B
:1026800080E870E060E008959FEF80EC08950024FA
:102690000A941616170618060906089500240A94C7
:1026A00012161306140605060895092E0394000C4D
:1026B00011F4882352F0BB0F40F4BF2B11F460FFDC
:1026C00004C06F5F7F4F8F4F9F4F089557FD905805
:1026D000440F551F59F05F3F71F04795880F97FBE6
:1026E000991F61F09F3F79F08795089512161306A0
:1026F0001406551FF2CF4695F1DF08C016161706CF
:102700001806991FF1CF8695710561050894089503
:10271000E894BB2766277727CB0197F908950E9495
:10272000D113A59F900DB49F900DA49F800D911D76
:10273000112408952F923F924F925F926F927F9251
:102740008F929F92AF92BF92CF92DF92EF92FF92C1
:102750000F931F93CF93DF93CDB7DEB7CA1BDB0B6D
:102760000FB6F894DEBF0FBECDBF09942A88398812
:1027700048885F846E847D848C849B84AA84B98419
:10278000C884DF80EE80FD800C811B81AA81B98125
:10279000CE0FD11D0FB6F894DEBF0FBECDBFED0139
:1027A0000895A29FB001B39FC001A39F700D811D2A
:1027B0001124911DB29F700D811D1124911D08954A
:1027C000DB018F939F930E948F13BF91AF91A29FC4
:1027D000800D911DA39F900DB29F900D112408951F
:1027E00097FB072E16F4009407D077FD09D00E94BE
:1027F0002D1407FC05D03EF4909581959F4F0895C8
:10280000709561957F4F0895A1E21A2EAA1BBB1BFC
:10281000FD010DC0AA1FBB1FEE1FFF1FA217B307AC
:10282000E407F50720F0A21BB30BE40BF50B661FC2
:10283000771F881F991F1A9469F760957095809586
:1028400090959B01AC01BD01CF0108950E94D11369
:10285000B7FF0895821B930B0895AA1BBB1B51E180
:1028600007C0AA1FBB1FA617B70710F0A61BB70B00
:10287000881F991F5A95A9F780959095BC01CD01A5
:102880000895EE0FFF1F0590F491E02D09940E942A
:102890006E1388F09F5798F0B92F9927B751B0F071
:1028A000E1F0660F771F881F991F1AF0BA95C9F7D4
:1028B00014C0B13091F00E948813B1E008950C94D7
:1028C0008813672F782F8827B85F39F0B93FCCF38A
:1028D000869577956795B395D9F73EF49095809551
:1028E000709561957F4F8F4F9F4F08950E94AD1255
:1028F00008F48FEF08950F931F93CF93DF938230E7
:10290000910510F482E090E0E091DB03F091DC03AC
:1029100030E020E0B0E0A0E0309799F421153105D7
:1029200009F44AC0281B390B24303105D8F58A81B7
:102930009B816115710589F1FB0193838283FE01FF
:1029400011C0408151810281138148175907E0F07D
:102950004817590799F4109761F012960C93129743
:1029600013961C933296CF01DF91CF911F910F9157
:1029700008950093DB031093DC03F4CF2115310598
:1029800051F04217530738F0A901DB019A01BD014C
:10299000DF01F801C1CFEF01F9CF9093DC03809301
:1029A000DB03CDCFFE01E20FF31F81939193225001
:1029B000310939832883D7CF2091D9033091DA03A5
:1029C000232B41F420910201309103013093DA036B
:1029D0002093D90320910001309101012115310587
:1029E00041F42DB73EB74091040150910501241BDD
:1029F000350BE091D903F091DA03E217F307A0F465
:102A00002E1B3F0B2817390778F0AC014E5F5F4F44
:102A10002417350748F04E0F5F1F5093DA03409399
:102A2000D903819391939FCFF0E0E0E09CCFCF93C7
:102A3000DF930097E9F0FC01329713821282A09194
:102A4000DB03B091DC03ED0130E020E01097A1F44E
:102A500020813181820F931F2091D9033091DA03B5
:102A60002817390709F061C0F093DA03E093D9031E
:102A7000DF91CF910895EA01CE17DF07E8F54A818B
:102A80005B819E0141155105B1F7E901FB83EA83A2
:102A900049915991C40FD51FEC17FD0761F480814E
:102AA00091810296840F951FE90199838883828121
:102AB00093819B838A83F0E0E0E012968D919C9154
:102AC00013970097B9F52D913C911197CD0102967E
:102AD000820F931F2091D9033091DA032817390709
:102AE00039F6309751F51092DC031092DB03B09366
:102AF000DA03A093D903BCCFD383C2834081518131
:102B0000840F951FC817D90761F44E5F5F4F888106
:102B10009981480F591F518340838A819B819383F8
:102B200082832115310509F0B0CFF093DC03E093E7
:102B3000DB039ECFFD01DC01C0CF13821282D7CF11
:102B4000B0E0A0E0E6EAF5E10C949C138C0100975C
:102B500051F4CB010E947B148C01C801CDB7DEB7C4
:102B6000E0E10C94B813FC01E60FF71F9C01225022
:102B70003109E217F30708F49DC0D901CD91DC912A
:102B80001197C617D70798F0C530D10530F3CE019D
:102B900004978617970708F3C61BD70B2297C19394
:102BA000D1936D937C93CF010E941715D6CF5B0113
:102BB000AC1ABD0A4C018C0E9D1EA091DB03B09196
:102BC000DC03512C412CF12CE12C109731F5809134
:102BD000D9039091DA038815990509F05CC046166F
:102BE000570608F058C080910001909101010097AC
:102BF00041F48DB79EB74091040150910501841BAB
:102C0000950BE817F90708F055C0F093DA03E09345
:102C1000D903F90171836083A0CF8D919C911197A5
:102C200012966C90129713967C901397A815B9057D
:102C300059F56C0142E0C40ED11CCA14DB0420F12A
:102C4000AC014A195B09DA011296159780F062828D
:102C5000738251834083D9016D937C93E114F10415
:102C600071F0D7011396FC93EE93129776CF2296CC
:102C70008C0F9D1FF90191838083F301EFCFF093B7
:102C8000DC03E093DB0369CF4816590608F42C01F6
:102C90007D01D3019ACFCB010E947B147C01009768
:102CA00049F0AE01B8010E946216C8010E941715D2
:102CB000870153CF10E000E050CF81E090E0F8941E
:102CC0000C944C19FB01DC0102C001900D924150A3
:102CD0005040D8F70895FB01DC018D9101908019D7
:102CE0000110D9F3990B0895FB01DC0101900D92BD
:102CF0000020E1F70895AEE0B0E0E1E8F6E10C94E1
:102D0000A8130D891E898F89988D26E02C831A833C
:102D1000098397FF02C080E090E801979E838D832E
:102D2000AE01455E5F4F698D7A8DCE0101960E949E
:102D3000CE164D815E8157FD0AC02F81388542171E
:102D400053070CF49A01020F131FF80110822E96FC
:102D5000E4E00C94C413AEE0B0E0E1EBF6E10C94D7
:102D6000A8130D891E8986E08C831A8309838FEF4F
:102D70009FE79E838D83AE01475E5F4F6F89788D9D
:102D8000CE0101960E94CE162F813885020F131FA7
:102D9000F80110822E96E4E00C94C413ABE0B0E08E
:102DA000E4EDF6E10C949A137C013B018A01FC01ED
:102DB00017821682838181FFC8C1CE0101965C0112
:102DC000F7019381F30193FD859193FF81913F0179
:102DD000882309F453C1853239F493FD859193FF1B
:102DE00081913F01853229F4B70190E00E94BE181D
:102DF000E7CF912C212C312CFFE1F31538F08B32E9
:102E000011F190F4803209F1833229F137FC3CC092
:102E100020ED280F2A3050F536FE20C08AE0989E1B
:102E2000200D1124922E06C08D3291F0803371F75F
:102E3000689430F8F30193FD859193FF81913F01F0
:102E40008111DACF21C0689431F8689432F8F2CF5A
:102E5000689433F8EFCF689434F8ECCFEAE02E9E14
:102E6000200D1124222E689435F8E4CF8E3229F4F7
:102E700036FC04C1689436F8DDCF8C3619F46894BA
:102E800037F8D8CF8836B1F2982F9F7D955493307C
:102E9000E0F08336A1F18337C1F1833509F063C0D7
:102EA0002801F2E04F0E511CF801C080D180692D3D
:102EB00070E036FC02C06FEF7FEFC6010E94A818D9
:102EC0004C01689437F882010AC00C5F1F4FFFE382
:102ED000F98388248394912C6501E89437F833FEB4
:102EE0002DC0522C8114910471F5552009F468CF3E
:102EF000B70180E290E00E94BE185A94F6CFF80124
:102F0000808189830E5F1F4FE4CF2801F2E04F0ECE
:102F1000511CF801C080D180692D70E036FC02C0E0
:102F20006FEF7FEFC6010E94B3184C018201D5CF2D
:102F3000B70180E290E00E94BE182A942814190478
:102F400009F0B0F7CECFF60137FC859137FE8191BD
:102F50006F01B70190E00E94BE1851105A94F1E041
:102F60008F1A9108BFCF843619F0893609F077C0DF
:102F7000F80137FE6BC060817181828193810C5FA3
:102F80001F4FF32DFF763F2E97FF09C09095809538
:102F9000709561957F4F8F4F9F4F689437F82AE067
:102FA00030E0A5010E94EE18C82ECA188C2C432CC4
:102FB00036FE0CC0E89440F8C91440F434FE05C055
:102FC00032FC03C0F32DFE7E4F2E892C44FE95C0AB
:102FD000FE01EC0DF11D8081803309F087C0242DA6
:102FE000297E422E842D8870582E43FC95C040FEC9
:102FF0008FC09C2C821418F42C0C922C981844FE30
:1030000091C0B70180E390E00E94BE1842FE09C063
:1030100088E790E041FE02C088E590E0B7010E9499
:10302000BE18C91408F48AC0CA94D12C9FEFC91ADB
:10303000D90ACA0CDB1CF60182916F01B70190E03E
:103040000E94BE18AC14BD04B1F74FCF60817181EE
:10305000072E000C880B990B0E5F1F4F92CFD32CBD
:10306000E894D4F82AE030E0853739F1232D297F20
:10307000D22E8F3601F148F48835A9F0F701868108
:1030800097812B96E2E10C94B613803749F088378C
:10309000A9F7D4FE02C06894D2F820E130E00DC058
:1030A0006894D4F8F6CF34FE03C0822F8660D82E01
:1030B00020E132E002C028E030E0F801D7FE0FC086
:1030C00060817181828193810C5F1F4FA5010E94F5
:1030D000EE18C82ECA183D2CE89437F867CF6081E7
:1030E000718190E080E00E5F1F4FF0CF42FC02C084
:1030F000839478CF8394839475CF842D867809F454
:1031000071CFF6CFB70180E290E00E94BE188394A1
:103110008214C0F3512C73CF522C5818821408F427
:103120006ECFF8CF842D867809F47BCF8BE241FEF9
:1031300080E247FC8DE2B70190E071CFB70180E3F8
:1031400090E00E94BE189A946CCF8FEF9FEF99CFBA
:10315000FC010590615070400110D8F78095909562
:103160008E0F9F1F0895FC01615070400190011067
:10317000D8F7809590958E0F9F1F08950F931F93FA
:10318000CF93DF93182F092FEB018B8181FD09C0AD
:103190001FEF0FEF812F902FDF91CF911F910F9194
:1031A000089582FF14C02E813F818C819D81281754
:1031B00039073CF4E881F981CF010196998388832E
:1031C00010838E819F8101969F838E83E3CFE88554
:1031D000F985812F0995892BA1F3DACFFA01AA2766
:1031E000283051F1203181F1E8946F936E7F6E5F4A
:1031F0007F4F8F4F9F4FAF4FB1E03ED0B4E03CD0F8
:10320000670F781F891F9A1FA11D680F791F8A1FDA
:10321000911DA11D6A0F711D811D911DA11D20D041
:1032200009F468943F912AE0269F11243019305DFB
:103230003193DEF6CF010895462F4770405D4193EC
:10324000B3E00FD0C9F7F6CF462F4F70405D4A3339
:1032500018F0495D31FD4052419302D0A9F7EACF01
:10326000B4E0A6959795879577956795BA95C9F730
:1032700000976105710508959B01AC010A2E069423
:103280005795479537952795BA95C9F7620F731FDC
:0C329000841F951FA01D0895F894FFCF27
:10329C000000DD03800000000000200B200B200B41
:1032AC002B0A840A880A000000004309FF08FD0865
:1032BC002B0A840AFA08A70600000000AC0AB90C15
:1032CC0000000000460F2705250529050000000019
:1032DC0086092D0CC110CD10000000004A0B000017
:1032EC0000004F0ACDCCCC3D0AD7233C17B7D138C0
:1032FC0077CC2B329595E6241FB14F0A0000204164
:10330C000000C84200401C4620BCBE4CCA1B0E5AD2
:10331C00AEC59D7400000000CD03ED021A031A0423
:10332C008B0329037D032F2F22225C5C6208660C21
:10333C006E0A720D740900496E697469616C697A60
:10334C00696E6720466173744C45442E2E2E000D19
:10335C000A004C6F6767657220696E697469616CED
:10336C00697A6564210053746172746564207275A6
:10337C006E6E696E67005469636B00476F74206EE4
:10338C006F74652E204B6579203D2025752C204FC0
:10339C006E203D2025750053657474696E67204C52
:1033AC00454420257520746F20636F6C6F72202844
:1033BC0025752C2025752C2025752C202575292E5E
:1033CC00005475726E696E67206F6666204C4544BA
:1033DC002025752E005B25755D3A2025730044650C
:1033EC0073657269616C697A6174696F6E2065725C
:1033FC00726F723A202575006B6579006F6E000054
:00000001FF
