:100000000C9435000C945D000C945D000C945D0024
:100010000C945D000C945D000C945D000C945D00EC
:100020000C945D000C945D000C945D000C945D00DC
:100030000C945D000C945D000C945D000C945D00CC
:100040000C94F1040C945D000C9461050C943B0538
:100050000C945D000C945D000C945D000C945D00AC
:100060000C945D000C945D00920511241FBECFEF2F
:10007000D8E0DEBFCDBF23E0AAE9B1E001C01D9208
:10008000AA33B207E1F711E0A0E0B1E0EEEFF9E149
:1000900002C005900D92AA39B107D9F710E0C5E367
:1000A000D0E004C02197FE010E941F09C433D1078C
:1000B000C9F70E94CE050C94FD0C0C9400003FB7CC
:1000C000F8948091C8019091C901A091CA01B091A2
:1000D000CB0126B5A89B05C02F3F19F00196A11DA5
:1000E000B11D3FBFBA2FA92F982F8827BC01CD0182
:1000F000620F711D811D911D42E0660F771F881FE1
:10010000991F4A95D1F7089580E991E00895AF923B
:10011000BF92CF92DF92EF92FF920F931F93CF93F4
:10012000DF936C017B018B01040F151FEB015E0156
:10013000AE18BF08C017D10759F06991D601ED91EB
:10014000FC910190F081E02DC6010995892B79F78A
:10015000C501DF91CF911F910F91FF90EF90DF903C
:10016000CF90BF90AF900895FC01538D448D252F03
:1001700030E0842F90E0821B930B541710F0CF9641
:10018000089501970895FC01918D828D981759F07B
:10019000A28DAE0FBF2FB11D5D968C91928D9F5F8A
:1001A000928F90E008958FEF9FEF0895FC01918D5D
:1001B000828D981731F0828DE80FF11D858D90E0CA
:1001C00008958FEF9FEF0895FC01918D828D981B0C
:1001D000892F90E008958CEC91E00E94E40021E0EA
:1001E000892B09F420E0822F089580E090E0892B8C
:1001F00029F00E94EB0081110C9400000895FC018D
:10020000A48DA80FB92FB11DA35EBE4F2C91848D74
:1002100090E001968F739927848FA689B7892C93D4
:10022000A089B1898C91837080648C93938D848D27
:10023000981306C00288F389E02D80818F7D80832A
:100240000895EF92FF920F931F93CF93DF93EC01EA
:1002500081E0888F9B8D8C8D98131AC0E889F9896D
:10026000808185FF15C09FB7F894EE89FF89608370
:10027000E889F98980818370806480839FBF81E0F1
:1002800090E0DF91CF911F910F91FF90EF90089533
:10029000F62E0B8D10E00F5F1F4F0F731127E02E0E
:1002A0008C8D8E110CC00FB607FCFACFE889F98946
:1002B000808185FFF5CFCE010E94FF00F1CFEB8D4D
:1002C000EC0FFD2FF11DE35EFE4FF0829FB7F89417
:1002D0000B8FEA89FB8980818062CFCFCF93DF9338
:1002E000EC01888D8823B9F0AA89BB89E889F9894E
:1002F0008C9185FD03C0808186FD0DC00FB607FC83
:10030000F7CF8C9185FFF2CF808185FFEDCFCE01B5
:100310000E94FF00E9CFDF91CF9108950F931F93C3
:10032000CF93DF9320919B012F5F322F3770309353
:100330009B0120FF2BC020E831FD2064347009F0C0
:100340002062205FFC01EC01239600E011E064854F
:10035000662329F070E0C8010E94CE086F5F6187B4
:10036000322F369F030E30E0311D1124311110C0A1
:100370001682662311F0615061873196EC17FD07F4
:1003800031F7DF91CF911F910F91089520E0D4CFE5
:1003900031503683EECF4F925F926F927F928F9261
:1003A000AF92BF92CF92DF92EF920F931F93CF93B2
:1003B000DF933C01EB010E945F00F3012785308948
:1003C000621B730B6A307105B0F3F894E881F98110
:1003D00075B1716065B16E7F65B9CA848F812C2D4E
:1003E000281B822F2F83BF844A805B801D850C854C
:1003F000DE841F5F0F5FD3949E813885A984EB84D0
:100400004181D20120E0C32F522F322F3181442766
:1004100088943111380F08F43FEF8195889410FDCE
:10042000430F4795889411FD430F4795889412FD1B
:10043000430F4795889413FD430F4795889414FD07
:10044000430F4795889415FD430F4795889416FDF3
:10045000430F4795889417FD430F47958894232FA2
:100460001111242F8C0D422F002C75B900C047FFAD
:1004700065B930812227889400C000C0002C65B97E
:100480003111390F00C0002C75B900C046FF65B9A5
:1004900008F43FEF9195889400C000C0002C65B926
:1004A00000FD230F00C0002C75B900C045FF65B9E1
:1004B0002795889401FD230F00C000C0002C65B96A
:1004C0002795889400C0002C75B900C044FF65B919
:1004D00002FD230F2795889400C000C0002C65B949
:1004E00003FD230F00C0002C75B900C043FF65B9A0
:1004F0002795889404FD230F00C000C0002C65B927
:100500002795889400C0002C75B900C042FF65B9DA
:1005100005FD230F2795889400C000C0002C65B905
:1005200006FD230F00C0002C75B900C041FF65B95E
:100530002795889407FD230F00C000C0002C65B9E3
:100540002795889400C0002C75B900C040FF65B99C
:10055000432F0111422F9A0D00C000C0002C65B935
:1005600000C000C0002C75B900C047FF65B93281DA
:100570002227889400C000C0002C65B931113C0FBF
:1005800000C0002C75B900C046FF65B908F43FEF04
:10059000EB0DF11D00C000C0002C65B9D0FC230F8D
:1005A00000C0002C75B900C045FF65B92795889437
:1005B000D1FC230F00C000C0002C65B9279588949A
:1005C00000C0002C75B900C044FF65B9D2FC230FF0
:1005D0002795889400C000C0002C65B9D3FC230F78
:1005E00000C0002C75B900C043FF65B927958894F9
:1005F000D4FC230F00C000C0002C65B92795889457
:1006000000C0002C75B900C042FF65B9D5FC230FAE
:100610002795889400C000C0002C65B9D6FC230F34
:1006200000C0002C75B900C041FF65B927958894BA
:10063000D7FC230F00C000C0002C65B92795889413
:1006400000C0002C75B900C040FF65B9432FD11020
:10065000422FC19500C000C0002C65B9CE0D00C06E
:1006600000C075B900C047FF65B931812227889461
:1006700000C000C0002C65B93111380F00C0002C3B
:1006800075B900C046FF65B908F43FEF81958894BD
:1006900000C000C0002C65B910FD230F00C0002C65
:1006A00075B900C045FF65B92795889411FD230FE2
:1006B00000C000C0002C65B92795889400C0002CAC
:1006C00075B900C044FF65B912FD230F27958894C2
:1006D00000C000C0002C65B913FD230F00C0002C22
:1006E00075B900C043FF65B92795889414FD230FA1
:1006F00000C000C0002C65B92795889400C0002C6C
:1007000075B900C042FF65B915FD230F2795889480
:1007100000C000C0002C65B916FD230F00C0002CDE
:1007200075B900C041FF65B92795889417FD230F5F
:1007300000C000C0002C65B92795889400C0002C2B
:1007400075B900C040FF65B9432F1111422F8C0DC0
:1007500000C000C0002C65B9119709F086CE20EECC
:1007600031E0D2010E940409DC01CB01F4E0B6952E
:10077000A79597958795FA95D1F730E020E0B901D4
:10078000EAE94E9E040C611D5E9E600D711D1124F0
:10079000650D711D860F971FA11DB11D893E43E098
:1007A0009407A105B10508F434C0885E9340A109FF
:1007B000B10942E0B695A795979587954A95D1F7E7
:1007C00047E0849F080E211D949F200D311D1124A8
:1007D000290F311D60919A0170E0860F971F820FDB
:1007E000931F4091C4015091C5016091C601709161
:1007F000C701292F3327420F531F611D711D4093DD
:10080000C4015093C5016093C6017093C7018093E2
:100810009A0178940E945F00F301708B6787DF91E3
:10082000CF911F910F91EF90DF90CF90BF90AF903D
:100830008F907F906F905F904F900895209A0895C9
:100840000F931F93CF93DF93CDB7DEB762970FB6A9
:10085000F894DEBF0FBECDBF8C01F901DC011C9600
:100860008C917A8369835C834B835E834D83908113
:100870009D8791819E8792819F878130F1F4CE017F
:1008800001960E948E0183E0888B1A8A198AD8010A
:10089000ED91FC910484F585E02DBE016F5F7F4FE3
:1008A000C801099562960FB6F894DEBF0FBECDBFA2
:1008B000DF91CF911F910F9108951C861B861A8698
:1008C000198618861F82DFCF0F931F93CF93DF9374
:1008D000CDB7DEB762970FB6F894DEBF0FBECDBFBF
:1008E0008C01F901DC011C968C917A8369835C830D
:1008F0004B835E834D8390819D8791819E879281FA
:100900009F878130E9F4CE0101960E948E01188AFA
:100910001A8A198AD801ED91FC910484F585E02D9D
:10092000BE016F5F7F4FC801099562960FB6F894BC
:10093000DEBF0FBECDBFDF91CF911F910F91089504
:100940001C861B861A86198618861F82E0CFCF93D5
:10095000DF9300D000D000D0CDB7DEB7AB011C8252
:100960001D821E82DC01ED91FC910190F081E02D51
:1009700019821A821B829E012F5F3F4FBE016C5F5E
:100980007F4F099526960FB6F894DEBF0FBECDBFF8
:10099000DF91CF910895FC0185859685089590E0BB
:1009A00080E00895CF93DF93FC0101900020E9F7E8
:1009B0003197AF01481B590BBC018CEC91E00E94B0
:1009C0008700EC0142E050E06AE371E08CEC91E0DA
:1009D0000E9487008C0F9D1FDF91CF9108950E9488
:1009E0004A0A1F920F920FB60F9211242F933F9332
:1009F0008F939F93AF93BF938091C4019091C50152
:100A0000A091C601B091C7013091C30123E0230F2B
:100A10002D3758F50196A11DB11D2093C301809378
:100A2000C4019093C501A093C601B093C701809102
:100A3000C8019091C901A091CA01B091CB01019662
:100A4000A11DB11D8093C8019093C901A093CA0153
:100A5000B093CB01BF91AF919F918F913F912F9117
:100A60000F900FBE0F901F90189526E8230F029647
:100A7000A11DB11DD2CF1F920F920FB60F9211245C
:100A80002F933F934F935F936F937F938F939F9396
:100A9000AF93BF93EF93FF938CEC91E00E94FF0024
:100AA000FF91EF91BF91AF919F918F917F916F9146
:100AB0005F914F913F912F910F900FBE0F901F901C
:100AC00018951F920F920FB60F9211242F938F93A8
:100AD0009F93EF93FF93E091DC01F091DD01808122
:100AE000E091E201F091E30182FD1AC090818091D2
:100AF000E5018F5F2091E601821741F0E091E50169
:100B0000F0E0E453FE4F958F8093E501FF91EF9164
:100B10009F918F912F910F900FBE0F901F9018955E
:100B20008081F4CFECECF1E01382128288EE93E046
:100B3000A0E0B0E084839583A683B7838CE291E044
:100B40009183808385EC90E09587848784EC90E0A6
:100B50009787868780EC90E0918B808B81EC90E08A
:100B6000938B828B82EC90E0958B848B86EC90E06B
:100B7000978B868B118E128E138E148EE9E2F3E022
:100B80008FEF808312821182148613868FEF9FEF7E
:100B9000DC0187839087A187B2870895CF93DF9385
:100BA000CDB7DEB7C558D1090FB6F894DEBF0FBE7A
:100BB000CDBF789484B5826084BD84B5816084BDE6
:100BC00085B5826085BD85B5816085BD80916E00EB
:100BD000816080936E00109281008091810082601C
:100BE0008093810080918100816080938100809159
:100BF00080008160809380008091B1008460809348
:100C0000B1008091B00081608093B00080917A0043
:100C1000846080937A0080917A00826080937A0069
:100C200080917A00816080937A0080917A00806858
:100C300080937A001092C10080EB91E00E94250918
:100C40004C018091AF01811145C01092A101109219
:100C5000A0018FEF8093A4018093A5018093A6014A
:100C60008093A7018093A8018093A90181E08093DC
:100C7000AA011092AC011092AB011092A301109244
:100C8000A2018091BD019091BE01892B31F48EE9C2
:100C900091E09093BE018093BD01E0919C01F091A1
:100CA0009D01309721F08EE991E0958384838EE950
:100CB00091E090939D0180939C011092AE0110925F
:100CC000AD018AE191E090939F0180939E0181E0C4
:100CD0008093AF01209A9092A1018092A00180E9B7
:100CE00090E09093AC018093AB0180912C039091A4
:100CF0002D03A0912E03B0912F03843C29E092078D
:100D0000A105B10520F484EC99E0A0E0B0E0809367
:100D10002C0390932D03A0932E03B0932F03E09107
:100D2000DC01F091DD0182E08083E091D801F09157
:100D3000D9011082E091DA01F091DB0180E180833A
:100D40001092E401E091E001F091E10186E08083FE
:100D5000E091DE01F091DF01808180618083E0918C
:100D6000DE01F091DF01808188608083E091DE0107
:100D7000F091DF01808180688083E091DE01F09155
:100D8000DF0180818F7D80838DE391E00E94D2041A
:100D900010E000E0CE0101967C018CEC91E00E9415
:100DA000E40083309105CCF30F5F1F4F9F938F9327
:100DB000A4E4B1E0BF93AF931F9240E8B42EBF927A
:100DC000FF92EF920E944F0AC7010E94D2048CEC5E
:100DD00091E00E94C3000FB6F894DEBF0FBECDBFF6
:100DE00082339105A9F09F938F9388E591E09F93BB
:100DF0008F931F92BF92FF92EF920E944F0AC701FA
:100E00000E94D2040FB6F894DEBF0FBECDBFC5CF8F
:100E10008CEC91E00E94C300A82E792E8CEC91E01E
:100E20000E94C3006C01DF928F937F92AF921F925A
:100E300082E38F932BE631E03F932F931F92BF9273
:100E4000FF92EF920E944F0AC7010E94D2048A2D9E
:100E5000972D0FB6F894DEBF0FBECDBF8039910538
:100E600038F07F92AF92EAE8F1E0FF93EF93C1CFC1
:100E700020E0CD2809F02FEFFC01EE0FFF1FE80F57
:100E8000F91FE80DF91D208311821282C8016AE062
:100E900070E00E94CE08892B09F07FCFD090290303
:100EA00080912C0390912D03A0912E03B0912F03DC
:100EB000892B8A2B8B2BD9F00E945F000091BF01F8
:100EC0001091C0012091C1013091C201601B710BD2
:100ED000820B930B00912C0310912D0320912E0374
:100EE00030912F036017710782079307C8F20E94A1
:100EF0005F006093BF017093C0018093C101909324
:100F0000C201E0913403F0913503309759F04091DC
:100F100030035091310360913203709133038D2D72
:100F20000995D82E0091BD011091BE014D2C512C78
:100F3000712C612C0115110509F474C0D8011C969F
:100F4000CC901C9780912A0390912B0384369105B5
:100F500010F41C961C92D801ED91FC9122813381F2
:100F6000CC57DF4F39832883C458D040CF57DF4F49
:100F70001882C158D040CE57DF4F1882C258D04097
:100F8000CD57DF4F1882C358D040DD2099F158016A
:100F900036E0A30EB11CF0E0E0E0D5012D915D013B
:100FA000222321F112963C90332001F130E050E0F1
:100FB00040E02F5F3F4F4F4F5F4FC301B2010E9490
:100FC000BE089B01AC01832D90E0B0E0A0E0BC0125
:100FD000CD016F5F7F4F8F4F9F4F0E94BE08A1E8EA
:100FE000B0E0AC0FBD1FAE0FBF1F8C933196E33046
:100FF000F10599F6F80145855685628173819E0158
:101000002F573F4FC801CC57DF4FE881F981C458B3
:10101000D0400995D8011C96CC921C9714960D913E
:101020001C9188CF8091BB019091BC019C012F5FE6
:101030003F4F3093BC012093BB0149970CF44AC049
:101040008FB7F8942091C4013091C5014091C60139
:101050005091C7018FBF8091B7019091B801A091C5
:10106000B901B091BA01281B390B4A0B5B0B21F473
:1010700021E030E040E050E08091BB019091BC0164
:10108000E8EEF3E08E9FB0018F9F700D9E9F700D74
:101090001124072E000C880B990B0E94E208309354
:1010A0002B0320932A031092BC011092BB012FB78F
:1010B000F8948091C4019091C501A091C601B091AE
:1010C000C7012FBF8093B7019093B801A093B901D6
:1010D000B093BA0110E000E060CE0E94AF08A59F77
:1010E000900DB49F900DA49F800D911D1124089523
:1010F0002F923F924F925F926F927F928F929F9228
:10110000AF92BF92CF92DF92EF92FF920F931F9315
:10111000CF93DF93CDB7DEB7CA1BDB0B0FB6F894C6
:10112000DEBF0FBECDBF09942A88398848885F8406
:101130006E847D848C849B84AA84B984C884DF8077
:10114000EE80FD800C811B81AA81B981CE0FD11D5B
:101150000FB6F894DEBF0FBECDBFED010895A29F7C
:10116000B001B39FC001A39F700D811D1124911D7B
:10117000B29F700D811D1124911D0895DB018F9385
:101180009F930E946D08BF91AF91A29F800D911D0A
:10119000A39F900DB29F900D1124089597FB072EE9
:1011A00016F4009407D077FD09D00E940B0907FCC4
:1011B00005D03EF4909581959F4F08957095619567
:1011C0007F4F0895A1E21A2EAA1BBB1BFD010DC083
:1011D000AA1FBB1FEE1FFF1FA217B307E407F507E7
:1011E00020F0A21BB30BE40BF50B661F771F881FC3
:1011F000991F1A9469F760957095809590959B0159
:10120000AC01BD01CF0108950E94AF08B7FF08955A
:10121000821B930B0895AA1BBB1B51E107C0AA1F99
:10122000BB1FA617B70710F0A61BB70B881F991F87
:101230005A95A9F780959095BC01CD010895EE0FC0
:10124000FF1F0590F491E02D09940F931F93CF9306
:10125000DF938230910510F482E090E0E091380352
:10126000F091390330E020E0B0E0A0E0309799F44D
:101270002115310509F44AC0281B390B24303105EA
:10128000D8F58A819B816115710589F1FB019383F2
:101290008283FE0111C04081518102811381481770
:1012A0005907E0F04817590799F4109761F0129622
:1012B0000C93129713961C933296CF01DF91CF9126
:1012C0001F910F9108950093380310933903F4CFC1
:1012D0002115310551F04217530738F0A901DB0100
:1012E0009A01BD01DF01F801C1CFEF01F9CF909361
:1012F000390380933803CDCFFE01E20FF31F8193B2
:1013000091932250310939832883D7CF2091360316
:1013100030913703232B41F42091020130910301D6
:10132000309337032093360320910001309101015F
:101330002115310541F42DB73EB74091040150917C
:101340000501241B350BE0913603F0913703E217BA
:10135000F307A0F42E1B3F0B2817390778F0AC01D8
:101360004E5F5F4F2417350748F04E0F5F1F5093B5
:10137000370340933603819391939FCFF0E0E0E0F1
:101380009CCFCF93DF930097E9F0FC013297138253
:101390001282A0913803B0913903ED0130E020E0D2
:1013A0001097A1F420813181820F931F2091360381
:1013B000309137032817390709F061C0F0933703DC
:1013C000E0933603DF91CF910895EA01CE17DF074E
:1013D000E8F54A815B819E0141155105B1F7E901AC
:1013E000FB83EA8349915991C40FD51FEC17FD0780
:1013F00061F4808191810296840F951FE9019983A0
:101400008883828193819B838A83F0E0E0E0129657
:101410008D919C9113970097B9F52D913C9111975F
:10142000CD010296820F931F20913603309137032E
:101430002817390739F6309751F510923903109271
:101440003803B0933703A0933603BCCFD383C28352
:1014500040815181840F951FC817D90761F44E5FF1
:101460005F4F88819981480F591F518340838A813A
:101470009B81938382832115310509F0B0CFF093CE
:101480003903E09338039ECFFD01DC01C0CF138206
:101490001282D7CF81E090E0F8940C94FD0CAEE07E
:1014A000B0E0E5E5FAE00C9486080D891E898F8985
:1014B000988D26E02C831A83098397FF02C080E071
:1014C00090E801979E838D83AE01455E5F4F698DE5
:1014D0007A8DCE0101960E947F0A4D815E8157FD73
:1014E0000AC02F813885421753070CF49A01020F66
:1014F000131FF80110822E96E4E00C94A208ABE0D2
:10150000B0E0E5E8FAE00C9478087C013B018A0140
:10151000FC0117821682838181FFC8C1CE0101962A
:101520005C01F7019381F30193FD859193FF819114
:101530003F01882309F453C1853239F493FD859125
:1015400093FF81913F01853229F4B70190E00E9419
:101550006F0CE7CF912C212C312CFFE1F31538F0E3
:101560008B3211F190F4803209F1833229F137FC8A
:101570003CC020ED280F2A3050F536FE20C08AE00E
:10158000989E200D1124922E06C08D3291F080334A
:1015900071F7689430F8F30193FD859193FF819181
:1015A0003F018111DACF21C0689431F8689432F894
:1015B000F2CF689433F8EFCF689434F8ECCFEAE0D8
:1015C0002E9E200D1124222E689435F8E4CF8E3201
:1015D00029F436FC04C1689436F8DDCF8C3619F452
:1015E000689437F8D8CF8836B1F2982F9F7D9554FC
:1015F0009330E0F08336A1F18337C1F1833509F0F0
:1016000063C02801F2E04F0E511CF801C080D18068
:10161000692D70E036FC02C06FEF7FEFC6010E94BB
:10162000590C4C01689437F882010AC00C5F1F4FB7
:10163000FFE3F98388248394912C6501E89437F8BB
:1016400033FE2DC0522C8114910471F5552009F4FC
:1016500068CFB70180E290E00E946F0C5A94F6CFF9
:10166000F801808189830E5F1F4FE4CF2801F2E0EB
:101670004F0E511CF801C080D180692D70E036FCFE
:1016800002C06FEF7FEFC6010E94640C4C01820123
:10169000D5CFB70180E290E00E946F0C2A94281405
:1016A000190409F0B0F7CECFF60137FC859137FE6B
:1016B00081916F01B70190E00E946F0C51105A9414
:1016C000F1E08F1A9108BFCF843619F0893609F0FE
:1016D00077C0F80137FE6BC0608171818281938190
:1016E0000C5F1F4FF32DFF763F2E97FF09C090959B
:1016F0008095709561957F4F8F4F9F4F689437F815
:101700002AE030E0A5010E949F0CC82ECA188C2C3C
:10171000432C36FE0CC0E89440F8C91440F434FE63
:1017200005C032FC03C0F32DFE7E4F2E892C44FEF3
:1017300095C0FE01EC0DF11D8081803309F087C05A
:10174000242D297E422E842D8870582E43FC95C06E
:1017500040FE8FC09C2C821418F42C0C922C9818EC
:1017600044FE91C0B70180E390E00E946F0C42FEFE
:1017700009C088E790E041FE02C088E590E0B7012B
:101780000E946F0CC91408F48AC0CA94D12C9FEF30
:10179000C91AD90ACA0CDB1CF60182916F01B70184
:1017A00090E00E946F0CAC14BD04B1F74FCF608184
:1017B0007181072E000C880B990B0E5F1F4F92CF83
:1017C000D32CE894D4F82AE030E0853739F1232D82
:1017D000297FD22E8F3601F148F48835A9F0F70120
:1017E000868197812B96E2E10C949408803749F02A
:1017F0008837A9F7D4FE02C06894D2F820E130E01F
:101800000DC06894D4F8F6CF34FE03C0822F8660F2
:10181000D82E20E132E002C028E030E0F801D7FE07
:101820000FC060817181828193810C5F1F4FA50180
:101830000E949F0CC82ECA183D2CE89437F867CF39
:101840006081718190E080E00E5F1F4FF0CF42FC1D
:1018500002C0839478CF8394839475CF842D867847
:1018600009F471CFF6CFB70180E290E00E946F0CCF
:1018700083948214C0F3512C73CF522C58188214C5
:1018800008F46ECFF8CF842D867809F47BCF8BE2F5
:1018900041FE80E247FC8DE2B70190E071CFB701D5
:1018A00080E390E00E946F0C9A946CCF8FEF9FEFD3
:1018B00099CFFC010590615070400110D8F78095D8
:1018C00090958E0F9F1F0895FC016150704001900C
:1018D0000110D8F7809590958E0F9F1F08950F9354
:1018E0001F93CF93DF93182F092FEB018B8181FD7D
:1018F00009C01FEF0FEF812F902FDF91CF911F9124
:101900000F91089582FF14C02E813F818C819D81AB
:10191000281739073CF4E881F981CF0101969983B2
:10192000888310838E819F8101969F838E83E3CF6E
:10193000E885F985812F0995892BA1F3DACFFA0182
:10194000AA27283051F1203181F1E8946F936E7FFE
:101950006E5F7F4F8F4F9F4FAF4FB1E03ED0B4E0EF
:101960003CD0670F781F891F9A1FA11D680F791F30
:101970008A1F911DA11D6A0F711D811D911DA11D41
:1019800020D009F468943F912AE0269F1124301951
:10199000305D3193DEF6CF010895462F4770405DEC
:1019A0004193B3E00FD0C9F7F6CF462F4F70405D9B
:1019B0004A3318F0495D31FD4052419302D0A9F7F6
:1019C000EACFB4E0A6959795879577956795BA95F0
:1019D000C9F700976105710508959B01AC010A2EB6
:1019E00006945795479537952795BA95C9F7620F8D
:0E19F000731F841F951FA01D0895F894FFCF4C
:1019FE0000003A03800000000000EF04EF04EF0443
:101A0E00A704CB04CF0400000000640420041E04CD
:101A1E00A704CB048400CB01000000002101870045
:101A2E00B4006E01E400C300D6000D0A00526561D9
:101A3E0064792100417661696C61626C652062791E
:101A4E007465733A20256400496E76616C69642072
:101A5E00686561646572202564210048656164656E
:101A6E0072203D2025642C204B6579203D20256475
:101A7E002C204F6E203D20256400496E76616C69E6
:0A1A8E0064206B65792025642100B7
:00000001FF
