:100000000C9435000C945D000C945D000C945D0024
:100010000C945D000C945D000C945D000C945D00EC
:100020000C945D000C945D000C945D000C945D00DC
:100030000C945D000C945D000C945D000C945D00CC
:100040000C94F1040C945D000C9461050C943B0538
:100050000C945D000C945D000C945D000C945D00AC
:100060000C945D000C945D00920511241FBECFEF2F
:10007000D8E0DEBFCDBF23E0A6E8B1E001C01D920D
:10008000A632B207E1F711E0A0E0B1E0E6EDF9E158
:1000900002C005900D92A638B107D9F710E0C5E36C
:1000A000D0E004C02197FE010E940B09C433D107A0
:1000B000C9F70E94CE050C94E90C0C9400003FB7E0
:1000C000F8948091B4019091B501A091B601B091DE
:1000D000B70126B5A89B05C02F3F19F00196A11DB9
:1000E000B11D3FBFBA2FA92F982F8827BC01CD0182
:1000F000620F711D811D911D42E0660F771F881FE1
:10010000991F4A95D1F7089580E991E00895AF923B
:10011000BF92CF92DF92EF92FF920F931F93CF93F4
:10012000DF936C017B018B01040F151FEB015E0156
:10013000AE18BF08C017D10759F06991D601ED91EB
:10014000FC910190F081E02DC6010995892B79F78A
:10015000C501DF91CF911F910F91FF90EF90DF903C
:10016000CF90BF90AF900895FC01538D448D252F03
:1001700030E0842F90E0821B930B541710F0CF9641
:10018000089501970895FC01918D828D981759F07B
:10019000A28DAE0FBF2FB11D5D968C91928D9F5F8A
:1001A000928F90E008958FEF9FEF0895FC01918D5D
:1001B000828D981731F0828DE80FF11D858D90E0CA
:1001C00008958FEF9FEF0895FC01918D828D981B0C
:1001D000892F90E0089588EB91E00E94E40021E0EF
:1001E000892B09F420E0822F089580E090E0892B8C
:1001F00029F00E94EB0081110C9400000895FC018D
:10020000A48DA80FB92FB11DA35EBE4F2C91848D74
:1002100090E001968F739927848FA689B7892C93D4
:10022000A089B1898C91837080648C93938D848D27
:10023000981306C00288F389E02D80818F7D80832A
:100240000895EF92FF920F931F93CF93DF93EC01EA
:1002500081E0888F9B8D8C8D98131AC0E889F9896D
:10026000808185FF15C09FB7F894EE89FF89608370
:10027000E889F98980818370806480839FBF81E0F1
:1002800090E0DF91CF911F910F91FF90EF90089533
:10029000F62E0B8D10E00F5F1F4F0F731127E02E0E
:1002A0008C8D8E110CC00FB607FCFACFE889F98946
:1002B000808185FFF5CFCE010E94FF00F1CFEB8D4D
:1002C000EC0FFD2FF11DE35EFE4FF0829FB7F89417
:1002D0000B8FEA89FB8980818062CFCFCF93DF9338
:1002E000EC01888D8823B9F0AA89BB89E889F9894E
:1002F0008C9185FD03C0808186FD0DC00FB607FC83
:10030000F7CF8C9185FFF2CF808185FFEDCFCE01B5
:100310000E94FF00E9CFDF91CF9108950F931F93C3
:10032000CF93DF93209187012F5F322F3770309367
:10033000870120FF2BC020E831FD2064347009F0D4
:100340002062205FFC01EC01239600E011E064854F
:10035000662329F070E0C8010E94BA086F5F6187C8
:10036000322F369F030E30E0311D1124311110C0A1
:100370001682662311F0615061873196EC17FD07F4
:1003800031F7DF91CF911F910F91089520E0D4CFE5
:1003900031503683EECF4F925F926F927F928F9261
:1003A000AF92BF92CF92DF92EF920F931F93CF93B2
:1003B000DF933C01EB010E945F00F3012785308948
:1003C000621B730B6A307105B0F3F894E881F98110
:1003D00075B1716065B16E7F65B9CA848F812C2D4E
:1003E000281B822F2F83BF844A805B801D850C854C
:1003F000DE841F5F0F5FD3949E813885A984EB84D0
:100400004181D20120E0C32F522F322F3181442766
:1004100088943111380F08F43FEF8195889410FDCE
:10042000430F4795889411FD430F4795889412FD1B
:10043000430F4795889413FD430F4795889414FD07
:10044000430F4795889415FD430F4795889416FDF3
:10045000430F4795889417FD430F47958894232FA2
:100460001111242F8C0D422F002C75B900C047FFAD
:1004700065B930812227889400C000C0002C65B97E
:100480003111390F00C0002C75B900C046FF65B9A5
:1004900008F43FEF9195889400C000C0002C65B926
:1004A00000FD230F00C0002C75B900C045FF65B9E1
:1004B0002795889401FD230F00C000C0002C65B96A
:1004C0002795889400C0002C75B900C044FF65B919
:1004D00002FD230F2795889400C000C0002C65B949
:1004E00003FD230F00C0002C75B900C043FF65B9A0
:1004F0002795889404FD230F00C000C0002C65B927
:100500002795889400C0002C75B900C042FF65B9DA
:1005100005FD230F2795889400C000C0002C65B905
:1005200006FD230F00C0002C75B900C041FF65B95E
:100530002795889407FD230F00C000C0002C65B9E3
:100540002795889400C0002C75B900C040FF65B99C
:10055000432F0111422F9A0D00C000C0002C65B935
:1005600000C000C0002C75B900C047FF65B93281DA
:100570002227889400C000C0002C65B931113C0FBF
:1005800000C0002C75B900C046FF65B908F43FEF04
:10059000EB0DF11D00C000C0002C65B9D0FC230F8D
:1005A00000C0002C75B900C045FF65B92795889437
:1005B000D1FC230F00C000C0002C65B9279588949A
:1005C00000C0002C75B900C044FF65B9D2FC230FF0
:1005D0002795889400C000C0002C65B9D3FC230F78
:1005E00000C0002C75B900C043FF65B927958894F9
:1005F000D4FC230F00C000C0002C65B92795889457
:1006000000C0002C75B900C042FF65B9D5FC230FAE
:100610002795889400C000C0002C65B9D6FC230F34
:1006200000C0002C75B900C041FF65B927958894BA
:10063000D7FC230F00C000C0002C65B92795889413
:1006400000C0002C75B900C040FF65B9432FD11020
:10065000422FC19500C000C0002C65B9CE0D00C06E
:1006600000C075B900C047FF65B931812227889461
:1006700000C000C0002C65B93111380F00C0002C3B
:1006800075B900C046FF65B908F43FEF81958894BD
:1006900000C000C0002C65B910FD230F00C0002C65
:1006A00075B900C045FF65B92795889411FD230FE2
:1006B00000C000C0002C65B92795889400C0002CAC
:1006C00075B900C044FF65B912FD230F27958894C2
:1006D00000C000C0002C65B913FD230F00C0002C22
:1006E00075B900C043FF65B92795889414FD230FA1
:1006F00000C000C0002C65B92795889400C0002C6C
:1007000075B900C042FF65B915FD230F2795889480
:1007100000C000C0002C65B916FD230F00C0002CDE
:1007200075B900C041FF65B92795889417FD230F5F
:1007300000C000C0002C65B92795889400C0002C2B
:1007400075B900C040FF65B9432F1111422F8C0DC0
:1007500000C000C0002C65B9119709F086CE20EECC
:1007600031E0D2010E94F008DC01CB01F4E0B69543
:10077000A79597958795FA95D1F730E020E0B901D4
:10078000EAE94E9E040C611D5E9E600D711D1124F0
:10079000650D711D860F971FA11DB11D893E43E098
:1007A0009407A105B10508F434C0885E9340A109FF
:1007B000B10942E0B695A795979587954A95D1F7E7
:1007C00047E0849F080E211D949F200D311D1124A8
:1007D000290F311D6091860170E0860F971F820FEF
:1007E000931F4091B0015091B1016091B20170919D
:1007F000B301292F3327420F531F611D711D4093F1
:10080000B0015093B1016093B2017093B301809332
:10081000860178940E945F00F301708B6787DF91F7
:10082000CF911F910F91EF90DF90CF90BF90AF903D
:100830008F907F906F905F904F900895209A0895C9
:100840000F931F93CF93DF93CDB7DEB762970FB6A9
:10085000F894DEBF0FBECDBF8C01F901DC011C9600
:100860008C917A8369835C834B835E834D83908113
:100870009D8791819E8792819F878130F1F4CE017F
:1008800001960E948E0183E0888B1A8A198AD8010A
:10089000ED91FC910484F585E02DBE016F5F7F4FE3
:1008A000C801099562960FB6F894DEBF0FBECDBFA2
:1008B000DF91CF911F910F9108951C861B861A8698
:1008C000198618861F82DFCF0F931F93CF93DF9374
:1008D000CDB7DEB762970FB6F894DEBF0FBECDBFBF
:1008E0008C01F901DC011C968C917A8369835C830D
:1008F0004B835E834D8390819D8791819E879281FA
:100900009F878130E9F4CE0101960E948E01188AFA
:100910001A8A198AD801ED91FC910484F585E02D9D
:10092000BE016F5F7F4FC801099562960FB6F894BC
:10093000DEBF0FBECDBFDF91CF911F910F91089504
:100940001C861B861A86198618861F82E0CFCF93D5
:10095000DF9300D000D000D0CDB7DEB7AB011C8252
:100960001D821E82DC01ED91FC910190F081E02D51
:1009700019821A821B829E012F5F3F4FBE016C5F5E
:100980007F4F099526960FB6F894DEBF0FBECDBFF8
:10099000DF91CF910895FC0185859685089590E0BB
:1009A00080E00895CF93DF93FC0101900020E9F7E8
:1009B0003197AF01481B590BBC0188EB91E00E94B5
:1009C0008700EC0142E050E06AE371E088EB91E0DF
:1009D0000E9487008C0F9D1FDF91CF9108950E9488
:1009E000360A1F920F920FB60F9211242F933F9346
:1009F0008F939F93AF93BF938091B0019091B1017A
:100A0000A091B201B091B3013091AF0123E0230F67
:100A10002D3758F50196A11DB11D2093AF0180938C
:100A2000B0019093B101A093B201B093B301809152
:100A3000B4019091B501A091B601B091B7010196B2
:100A4000A11DB11D8093B4019093B501A093B6018F
:100A5000B093B701BF91AF919F918F913F912F912B
:100A60000F900FBE0F901F90189526E8230F029647
:100A7000A11DB11DD2CF1F920F920FB60F9211245C
:100A80002F933F934F935F936F937F938F939F9396
:100A9000AF93BF93EF93FF9388EB91E00E94FF0029
:100AA000FF91EF91BF91AF919F918F917F916F9146
:100AB0005F914F913F912F910F900FBE0F901F901C
:100AC00018951F920F920FB60F9211242F938F93A8
:100AD0009F93EF93FF93E091C801F091C90180814A
:100AE000E091CE01F091CF0182FD1AC090818091FA
:100AF000D1018F5F2091D201821741F0E091D101A5
:100B0000F0E0E854FE4F958F8093D101FF91EF9173
:100B10009F918F912F910F900FBE0F901F9018955E
:100B20008081F4CFE8EBF1E01382128288EE93E04B
:100B3000A0E0B0E084839583A683B7838CE291E044
:100B40009183808385EC90E09587848784EC90E0A6
:100B50009787868780EC90E0918B808B81EC90E08A
:100B6000938B828B82EC90E0958B848B86EC90E06B
:100B7000978B868B118E128E138E148EE5E1F3E027
:100B80008FEF808312821182148613868FEF9FEF7E
:100B9000DC0187839087A187B2870895CF93DF9385
:100BA000CDB7DEB7C558D1090FB6F894DEBF0FBE7A
:100BB000CDBF789484B5826084BD84B5816084BDE6
:100BC00085B5826085BD85B5816085BD80916E00EB
:100BD000816080936E00109281008091810082601C
:100BE0008093810080918100816080938100809159
:100BF00080008160809380008091B1008460809348
:100C0000B1008091B00081608093B00080917A0043
:100C1000846080937A0080917A00826080937A0069
:100C200080917A00816080937A0080917A00806858
:100C300080937A001092C10080EB91E00E9411092C
:100C40004C0180919B01811145C010928D01109241
:100C50008C018FEF8093900180939101809392019A
:100C600080939301809394018093950181E0809318
:100C70009601109298011092970110928F01109294
:100C80008E018091A9019091AA01892B31F48AE803
:100C900091E09093AA018093A901E0918801F091DD
:100CA0008901309721F08AE891E0958384838AE86E
:100CB00091E0909389018093880110929A0110929B
:100CC00099018AE191E090938B0180938A0181E000
:100CD00080939B01209A90928D0180928C0180E9F3
:100CE00090E09093980180939701809118039091E0
:100CF0001903A0911A03B0911B03843C29E09207C9
:100D0000A105B10520F484EC99E0A0E0B0E0809367
:100D1000180390931903A0931A03B0931B03E09157
:100D2000C801F091C90182E08083E091C401F09193
:100D3000C5011082E091C601F091C70180E1808376
:100D40001092D001E091CC01F091CD0186E080833A
:100D5000E091CA01F091CB01808180618083E091B4
:100D6000CA01F091CB01808188608083E091CA0143
:100D7000F091CB01808180688083E091CA01F0917D
:100D8000CB0180818F7D80838DE391E00E94D2042E
:100D900010E000E0CE0101967C0152E3352E88EB95
:100DA00091E00E94E4000397D4F30F5F1F4F88EB9C
:100DB00091E00E94C30082339105B1F09F938F931D
:100DC000A4E4B1E0BF93AF931F9280E88F93FF92AA
:100DD000EF920E943B0AC7010E94D2040FB6F8941A
:100DE000DEBF0FBECDBFDBCF88EB91E00E94C3001A
:100DF000B82EA92E88EB91E00E94C3006C01DF920F
:100E00008F93AF92BF921F923F9287E591E09F939D
:100E10008F931F9240E8742E7F92FF92EF920E9470
:100E20003B0AC7010E94D2048B2D9A2D0FB6F8946D
:100E3000DEBF0FBECDBF8039910548F0AF92BF92A3
:100E400026E731E03F932F931F927F92C0CF20E09F
:100E5000CD2809F02FEFFC01EE0FFF1FE80FF91F5F
:100E6000E80DF91D208311821282C8016AE070E04A
:100E70000E94BA08892B09F092CFD0901503809177
:100E8000180390911903A0911A03B0911B03892BA9
:100E90008A2B8B2BD9F00E945F000091AB0110913F
:100EA000AC012091AD013091AE01601B710B820B42
:100EB000930B009118031091190320911A0330919C
:100EC0001B036017710782079307C8F20E945F0037
:100ED0006093AB017093AC018093AD019093AE0130
:100EE000E0912003F0912103309759F040911C03C9
:100EF00050911D0360911E0370911F038D2D099564
:100F0000D82E0091A9011091AA014D2C512C712CC1
:100F1000612C0115110509F471C0F801C484809198
:100F20001603909117038436910508F41486D801AE
:100F3000ED91FC9122813381CC57DF4F3983288397
:100F4000C458D040CF57DF4F1882C158D040CE5739
:100F5000DF4F1882C258D040CD57DF4F1882C35898
:100F6000D040DD2099F1580136E0A30EB11CF0E02D
:100F7000E0E0D5012D915D01222321F112962C9004
:100F8000222001F130E050E040E02F5F3F4F4F4F13
:100F90005F4FC301B2010E94AA089B01AC01822DE0
:100FA00090E0B0E0A0E0BC01CD016F5F7F4F8F4FBC
:100FB0009F4F0E94AA08A1E8B0E0AC0FBD1FAE0F82
:100FC000BF1F8C933196E330F10599F6F801458502
:100FD0005685628173819E012F573F4FC801CC57C0
:100FE000DF4FE881F981C458D0400995D8011C969B
:100FF000CC921C9714960D911C918BCF8091A701D8
:101000009091A8019C012F5F3F4F3093A80120933E
:10101000A70149970CF44AC08FB7F8942091B0010A
:101020003091B1014091B2015091B3018FBF8091D5
:10103000A3019091A401A091A501B091A601281B44
:10104000390B4A0B5B0B21F421E030E040E050E02B
:101050008091A7019091A801E8EEF3E08E9FB00186
:101060008F9F700D9E9F700D1124072E000C880B12
:10107000990B0E94CE083093170320931603109209
:10108000A8011092A7012FB7F8948091B001909118
:10109000B101A091B201B091B3012FBF8093A30120
:1010A0009093A401A093A501B093A60110E000E0E5
:1010B00076CE0E949B08A59F900DB49F900DA49F93
:1010C000800D911D112408952F923F924F925F92AF
:1010D0006F927F928F929F92AF92BF92CF92DF9248
:1010E000EF92FF920F931F93CF93DF93CDB7DEB7AD
:1010F000CA1BDB0B0FB6F894DEBF0FBECDBF099441
:101100002A88398848885F846E847D848C849B8497
:10111000AA84B984C884DF80EE80FD800C811B81A5
:10112000AA81B981CE0FD11D0FB6F894DEBF0FBED4
:10113000CDBFED010895A29FB001B39FC001A39F51
:10114000700D811D1124911DB29F700D811D112400
:10115000911D0895DB018F939F930E945908BF91C1
:10116000AF91A29F800D911DA39F900DB29F900DF6
:101170001124089597FB072E16F4009407D077FDED
:1011800009D00E94F70807FC05D03EF490958195A0
:101190009F4F0895709561957F4F0895A1E21A2E93
:1011A000AA1BBB1BFD010DC0AA1FBB1FEE1FFF1F0B
:1011B000A217B307E407F50720F0A21BB30BE40B5B
:1011C000F50B661F771F881F991F1A9469F76095A2
:1011D0007095809590959B01AC01BD01CF0108955C
:1011E0000E949B08B7FF0895821B930B0895AA1BCA
:1011F000BB1B51E107C0AA1FBB1FA617B70710F002
:10120000A61BB70B881F991F5A95A9F78095909533
:10121000BC01CD010895EE0FFF1F0590F491E02D64
:1012200009940F931F93CF93DF938230910510F4AD
:1012300082E090E0E0912403F091250330E020E08B
:10124000B0E0A0E0309799F42115310509F44AC0C7
:10125000281B390B24303105D8F58A819B81611513
:10126000710589F1FB0193838283FE0111C04081E6
:1012700051810281138148175907E0F04817590737
:1012800099F4109761F012960C93129713961C9391
:101290003296CF01DF91CF911F910F910895009366
:1012A000240310932503F4CF2115310551F0421783
:1012B000530738F0A901DB019A01BD01DF01F801F4
:1012C000C1CFEF01F9CF9093250380932403CDCFB5
:1012D000FE01E20FF31F819391932250310939836C
:1012E0002883D7CF2091220330912303232B41F46D
:1012F00020910201309103013093230320932203B4
:1013000020910001309101012115310541F42DB7E3
:101310003EB74091040150910501241B350BE0912B
:101320002203F0912303E217F307A0F42E1B3F0BD7
:101330002817390778F0AC014E5F5F4F2417350747
:1013400048F04E0F5F1F5093230340932203819375
:1013500091939FCFF0E0E0E09CCFCF93DF93009795
:10136000E9F0FC01329713821282A0912403B0911C
:101370002503ED0130E020E01097A1F420813181B8
:10138000820F931F209122033091230328173907DE
:1013900009F061C0F0932303E0932203DF91CF9122
:1013A0000895EA01CE17DF07E8F54A815B819E01C7
:1013B00041155105B1F7E901FB83EA834991599140
:1013C000C40FD51FEC17FD0761F48081918102964F
:1013D000840F951FE90199838883828193819B8380
:1013E0008A83F0E0E0E012968D919C91139700972C
:1013F000B9F52D913C911197CD010296820F931F63
:1014000020912203309123032817390739F63097AA
:1014100051F51092250310922403B0932303A09357
:101420002203BCCFD383C28340815181840F951F97
:10143000C817D90761F44E5F5F4F88819981480FC3
:10144000591F518340838A819B8193838283211515
:10145000310509F0B0CFF0932503E09324039ECF2C
:10146000FD01DC01C0CF13821282D7CF81E090E072
:10147000F8940C94E90CAEE0B0E0E1E4FAE00C94EE
:1014800072080D891E898F89988D26E02C831A8316
:10149000098397FF02C080E090E801979E838D83C7
:1014A000AE01455E5F4F698D7A8DCE0101960E9437
:1014B0006B0A4D815E8157FD0AC02F813885421726
:1014C00053070CF49A01020F131FF80110822E9695
:1014D000E4E00C948E08ABE0B0E0E1E7FAE00C94B5
:1014E00064087C013B018A01FC011782168283811A
:1014F00081FFC8C1CE0101965C01F7019381F30120
:1015000093FD859193FF81913F01882309F453C195
:10151000853239F493FD859193FF81913F018532A6
:1015200029F4B70190E00E945B0CE7CF912C212CAD
:10153000312CFFE1F31538F08B3211F190F4803249
:1015400009F1833229F137FC3CC020ED280F2A3005
:1015500050F536FE20C08AE0989E200D1124922E70
:1015600006C08D3291F0803371F7689430F8F30142
:1015700093FD859193FF81913F018111DACF21C0C5
:10158000689431F8689432F8F2CF689433F8EFCF6A
:10159000689434F8ECCFEAE02E9E200D1124222E20
:1015A000689435F8E4CF8E3229F436FC04C168948F
:1015B00036F8DDCF8C3619F4689437F8D8CF8836F2
:1015C000B1F2982F9F7D95549330E0F08336A1F1CE
:1015D0008337C1F1833509F063C02801F2E04F0E73
:1015E000511CF801C080D180692D70E036FC02C02A
:1015F0006FEF7FEFC6010E94450C4C01689437F8ED
:1016000082010AC00C5F1F4FFFE3F9838824839493
:10161000912C6501E89437F833FE2DC0522C8114CB
:10162000910471F5552009F468CFB70180E290E08C
:101630000E945B0C5A94F6CFF801808189830E5F7B
:101640001F4FE4CF2801F2E04F0E511CF801C0807B
:10165000D180692D70E036FC02C06FEF7FEFC601CC
:101660000E94500C4C018201D5CFB70180E290E07E
:101670000E945B0C2A942814190409F0B0F7CECF0D
:10168000F60137FC859137FE81916F01B70190E03B
:101690000E945B0C51105A94F1E08F1A9108BFCF51
:1016A000843619F0893609F077C0F80137FE6BC02F
:1016B00060817181828193810C5F1F4FF32DFF76D2
:1016C0003F2E97FF09C090958095709561957F4F4B
:1016D0008F4F9F4F689437F82AE030E0A5010E94B1
:1016E0008B0CC82ECA188C2C432C36FE0CC0E894E8
:1016F00040F8C91440F434FE05C032FC03C0F32D99
:10170000FE7E4F2E892C44FE95C0FE01EC0DF11D8E
:101710008081803309F087C0242D297E422E842DBC
:101720008870582E43FC95C040FE8FC09C2C8214BC
:1017300018F42C0C922C981844FE91C0B70180E349
:1017400090E00E945B0C42FE09C088E790E041FEF9
:1017500002C088E590E0B7010E945B0CC91408F450
:101760008AC0CA94D12C9FEFC91AD90ACA0CDB1CB3
:10177000F60182916F01B70190E00E945B0CAC14FE
:10178000BD04B1F74FCF60817181072E000C880B2B
:10179000990B0E5F1F4F92CFD32CE894D4F82AE018
:1017A00030E0853739F1232D297FD22E8F3601F194
:1017B00048F48835A9F0F701868197812B96E2E1FC
:1017C0000C948008803749F08837A9F7D4FE02C00E
:1017D0006894D2F820E130E00DC06894D4F8F6CFD8
:1017E00034FE03C0822F8660D82E20E132E002C092
:1017F00028E030E0F801D7FE0FC06081718182815E
:1018000093810C5F1F4FA5010E948B0CC82ECA1834
:101810003D2CE89437F867CF6081718190E080E0DB
:101820000E5F1F4FF0CF42FC02C0839478CF8394A9
:10183000839475CF842D867809F471CFF6CFB701E4
:1018400080E290E00E945B0C83948214C0F3512CE0
:1018500073CF522C5818821408F46ECFF8CF842D11
:10186000867809F47BCF8BE241FE80E247FC8DE273
:10187000B70190E071CFB70180E390E00E945B0C6C
:101880009A946CCF8FEF9FEF99CFFC010590615038
:1018900070400110D8F7809590958E0F9F1F089586
:1018A000FC016150704001900110D8F7809590952F
:1018B0008E0F9F1F08950F931F93CF93DF93182FC1
:1018C000092FEB018B8181FD09C01FEF0FEF812FE5
:1018D000902FDF91CF911F910F91089582FF14C037
:1018E0002E813F818C819D81281739073CF4E88146
:1018F000F981CF0101969983888310838E819F811E
:1019000001969F838E83E3CFE885F985812F099522
:10191000892BA1F3DACFFA01AA27283051F120311F
:1019200081F1E8946F936E7F6E5F7F4F8F4F9F4F73
:10193000AF4FB1E03ED0B4E03CD0670F781F891FB5
:101940009A1FA11D680F791F8A1F911DA11D6A0F83
:10195000711D811D911DA11D20D009F468943F9136
:101960002AE0269F11243019305D3193DEF6CF0135
:101970000895462F4770405D4193B3E00FD0C9F7FB
:10198000F6CF462F4F70405D4A3318F0495D31FD68
:101990004052419302D0A9F7EACFB4E0A6959795BB
:1019A000879577956795BA95C9F700976105710591
:1019B00008959B01AC010A2E0694579547953795DB
:1019C0002795BA95C9F7620F731F841F951FA01D35
:0619D0000895F894FFCF1A
:1019D60000002603800000000000EF04EF04EF047F
:1019E600A704CB04CF0400000000640420041E04F6
:1019F600A704CB048400CB0100000000210187006E
:101A0600B4006E01E400C300D6000D0A0052656101
:101A160064792100496E76616C6964206865616449
:101A260065722025642100486561646572203D2049
:101A360025642C204B6579203D2025642C204F6E93
:101A4600203D20256400496E76616C6964206B65D3
:061A560079202564210047
:00000001FF
